{
  "_format": "hh-sol-artifact-1",
  "contractName": "NFTMintUpgradable",
  "sourceName": "contracts/NFTMint.sol",
  "abi": [
    {
      "inputs": [
        {
          "internalType": "address",
          "name": "sender",
          "type": "address"
        },
        {
          "internalType": "uint256",
          "name": "balance",
          "type": "uint256"
        },
        {
          "internalType": "uint256",
          "name": "needed",
          "type": "uint256"
        },
        {
          "internalType": "uint256",
          "name": "tokenId",
          "type": "uint256"
        }
      ],
      "name": "ERC1155InsufficientBalance",
      "type": "error"
    },
    {
      "inputs": [
        {
          "internalType": "address",
          "name": "approver",
          "type": "address"
        }
      ],
      "name": "ERC1155InvalidApprover",
      "type": "error"
    },
    {
      "inputs": [
        {
          "internalType": "uint256",
          "name": "idsLength",
          "type": "uint256"
        },
        {
          "internalType": "uint256",
          "name": "valuesLength",
          "type": "uint256"
        }
      ],
      "name": "ERC1155InvalidArrayLength",
      "type": "error"
    },
    {
      "inputs": [
        {
          "internalType": "address",
          "name": "operator",
          "type": "address"
        }
      ],
      "name": "ERC1155InvalidOperator",
      "type": "error"
    },
    {
      "inputs": [
        {
          "internalType": "address",
          "name": "receiver",
          "type": "address"
        }
      ],
      "name": "ERC1155InvalidReceiver",
      "type": "error"
    },
    {
      "inputs": [
        {
          "internalType": "address",
          "name": "sender",
          "type": "address"
        }
      ],
      "name": "ERC1155InvalidSender",
      "type": "error"
    },
    {
      "inputs": [
        {
          "internalType": "address",
          "name": "operator",
          "type": "address"
        },
        {
          "internalType": "address",
          "name": "owner",
          "type": "address"
        }
      ],
      "name": "ERC1155MissingApprovalForAll",
      "type": "error"
    },
    {
      "inputs": [],
      "name": "InvalidInitialization",
      "type": "error"
    },
    {
      "inputs": [],
      "name": "NotInitializing",
      "type": "error"
    },
    {
      "anonymous": false,
      "inputs": [
        {
          "indexed": true,
          "internalType": "address",
          "name": "account",
          "type": "address"
        },
        {
          "indexed": true,
          "internalType": "address",
          "name": "operator",
          "type": "address"
        },
        {
          "indexed": false,
          "internalType": "bool",
          "name": "approved",
          "type": "bool"
        }
      ],
      "name": "ApprovalForAll",
      "type": "event"
    },
    {
      "anonymous": false,
      "inputs": [
        {
          "indexed": false,
          "internalType": "uint64",
          "name": "version",
          "type": "uint64"
        }
      ],
      "name": "Initialized",
      "type": "event"
    },
    {
      "anonymous": false,
      "inputs": [
        {
          "indexed": true,
          "internalType": "uint256",
          "name": "tokenId",
          "type": "uint256"
        },
        {
          "indexed": false,
          "internalType": "address",
          "name": "smartContract",
          "type": "address"
        }
      ],
      "name": "TokenCreated",
      "type": "event"
    },
    {
      "anonymous": false,
      "inputs": [
        {
          "indexed": true,
          "internalType": "address",
          "name": "operator",
          "type": "address"
        },
        {
          "indexed": true,
          "internalType": "address",
          "name": "from",
          "type": "address"
        },
        {
          "indexed": true,
          "internalType": "address",
          "name": "to",
          "type": "address"
        },
        {
          "indexed": false,
          "internalType": "uint256[]",
          "name": "ids",
          "type": "uint256[]"
        },
        {
          "indexed": false,
          "internalType": "uint256[]",
          "name": "values",
          "type": "uint256[]"
        }
      ],
      "name": "TransferBatch",
      "type": "event"
    },
    {
      "anonymous": false,
      "inputs": [
        {
          "indexed": true,
          "internalType": "address",
          "name": "operator",
          "type": "address"
        },
        {
          "indexed": true,
          "internalType": "address",
          "name": "from",
          "type": "address"
        },
        {
          "indexed": true,
          "internalType": "address",
          "name": "to",
          "type": "address"
        },
        {
          "indexed": false,
          "internalType": "uint256",
          "name": "id",
          "type": "uint256"
        },
        {
          "indexed": false,
          "internalType": "uint256",
          "name": "value",
          "type": "uint256"
        }
      ],
      "name": "TransferSingle",
      "type": "event"
    },
    {
      "anonymous": false,
      "inputs": [
        {
          "indexed": false,
          "internalType": "string",
          "name": "value",
          "type": "string"
        },
        {
          "indexed": true,
          "internalType": "uint256",
          "name": "id",
          "type": "uint256"
        }
      ],
      "name": "URI",
      "type": "event"
    },
    {
      "inputs": [
        {
          "internalType": "address",
          "name": "account",
          "type": "address"
        },
        {
          "internalType": "uint256",
          "name": "id",
          "type": "uint256"
        }
      ],
      "name": "balanceOf",
      "outputs": [
        {
          "internalType": "uint256",
          "name": "",
          "type": "uint256"
        }
      ],
      "stateMutability": "view",
      "type": "function"
    },
    {
      "inputs": [
        {
          "internalType": "address[]",
          "name": "accounts",
          "type": "address[]"
        },
        {
          "internalType": "uint256[]",
          "name": "ids",
          "type": "uint256[]"
        }
      ],
      "name": "balanceOfBatch",
      "outputs": [
        {
          "internalType": "uint256[]",
          "name": "",
          "type": "uint256[]"
        }
      ],
      "stateMutability": "view",
      "type": "function"
    },
    {
      "inputs": [
        {
          "internalType": "string",
          "name": "tokenURI",
          "type": "string"
        },
        {
          "internalType": "uint256",
          "name": "price",
          "type": "uint256"
        },
        {
          "internalType": "uint256",
          "name": "supply",
          "type": "uint256"
        },
        {
          "internalType": "uint256",
          "name": "amount",
          "type": "uint256"
        },
        {
          "internalType": "uint256",
          "name": "royalties",
          "type": "uint256"
        },
        {
          "internalType": "uint256",
          "name": "firstSalesFees",
          "type": "uint256"
        },
        {
          "internalType": "address",
          "name": "NFTMarketplaceAddress",
          "type": "address"
        }
      ],
      "name": "createAndListToken",
      "outputs": [],
      "stateMutability": "nonpayable",
      "type": "function"
    },
    {
      "inputs": [
        {
          "internalType": "string",
          "name": "tokenURI",
          "type": "string"
        },
        {
          "internalType": "uint256",
          "name": "supply",
          "type": "uint256"
        },
        {
          "internalType": "uint256",
          "name": "royalties",
          "type": "uint256"
        }
      ],
      "name": "createToken",
      "outputs": [
        {
          "internalType": "uint256",
          "name": "",
          "type": "uint256"
        }
      ],
      "stateMutability": "nonpayable",
      "type": "function"
    },
    {
      "inputs": [
        {
          "internalType": "uint256",
          "name": "tokenId",
          "type": "uint256"
        },
        {
          "internalType": "uint256",
          "name": "price",
          "type": "uint256"
        },
        {
          "internalType": "uint256",
          "name": "supply",
          "type": "uint256"
        },
        {
          "internalType": "uint256",
          "name": "amount",
          "type": "uint256"
        },
        {
          "internalType": "uint256",
          "name": "royalties",
          "type": "uint256"
        },
        {
          "internalType": "uint256",
          "name": "firstSalesFees",
          "type": "uint256"
        },
        {
          "internalType": "address",
          "name": "NFTMarketplaceAddress",
          "type": "address"
        }
      ],
      "name": "firstListing",
      "outputs": [],
      "stateMutability": "nonpayable",
      "type": "function"
    },
    {
      "inputs": [],
      "name": "getLastTokenId",
      "outputs": [
        {
          "internalType": "uint256",
          "name": "",
          "type": "uint256"
        }
      ],
      "stateMutability": "view",
      "type": "function"
    },
    {
      "inputs": [],
      "name": "initialize",
      "outputs": [],
      "stateMutability": "nonpayable",
      "type": "function"
    },
    {
      "inputs": [
        {
          "internalType": "address",
          "name": "account",
          "type": "address"
        },
        {
          "internalType": "address",
          "name": "operator",
          "type": "address"
        }
      ],
      "name": "isApprovedForAll",
      "outputs": [
        {
          "internalType": "bool",
          "name": "",
          "type": "bool"
        }
      ],
      "stateMutability": "view",
      "type": "function"
    },
    {
      "inputs": [],
      "name": "name",
      "outputs": [
        {
          "internalType": "string",
          "name": "",
          "type": "string"
        }
      ],
      "stateMutability": "view",
      "type": "function"
    },
    {
      "inputs": [],
      "name": "nftMarketplaceInstance",
      "outputs": [
        {
          "internalType": "contract Marketplace",
          "name": "",
          "type": "address"
        }
      ],
      "stateMutability": "view",
      "type": "function"
    },
    {
      "inputs": [
        {
          "internalType": "address",
          "name": "from",
          "type": "address"
        },
        {
          "internalType": "address",
          "name": "to",
          "type": "address"
        },
        {
          "internalType": "uint256[]",
          "name": "ids",
          "type": "uint256[]"
        },
        {
          "internalType": "uint256[]",
          "name": "values",
          "type": "uint256[]"
        },
        {
          "internalType": "bytes",
          "name": "data",
          "type": "bytes"
        }
      ],
      "name": "safeBatchTransferFrom",
      "outputs": [],
      "stateMutability": "nonpayable",
      "type": "function"
    },
    {
      "inputs": [
        {
          "internalType": "address",
          "name": "from",
          "type": "address"
        },
        {
          "internalType": "address",
          "name": "to",
          "type": "address"
        },
        {
          "internalType": "uint256",
          "name": "id",
          "type": "uint256"
        },
        {
          "internalType": "uint256",
          "name": "value",
          "type": "uint256"
        },
        {
          "internalType": "bytes",
          "name": "data",
          "type": "bytes"
        }
      ],
      "name": "safeTransferFrom",
      "outputs": [],
      "stateMutability": "nonpayable",
      "type": "function"
    },
    {
      "inputs": [
        {
          "internalType": "uint256",
          "name": "tokenId",
          "type": "uint256"
        },
        {
          "internalType": "uint256",
          "name": "amount",
          "type": "uint256"
        },
        {
          "internalType": "uint256",
          "name": "price",
          "type": "uint256"
        },
        {
          "internalType": "address",
          "name": "NFTMarketplaceAddress",
          "type": "address"
        }
      ],
      "name": "secondaryListing",
      "outputs": [],
      "stateMutability": "nonpayable",
      "type": "function"
    },
    {
      "inputs": [
        {
          "internalType": "address",
          "name": "operator",
          "type": "address"
        },
        {
          "internalType": "bool",
          "name": "approved",
          "type": "bool"
        }
      ],
      "name": "setApprovalForAll",
      "outputs": [],
      "stateMutability": "nonpayable",
      "type": "function"
    },
    {
      "inputs": [
        {
          "internalType": "bytes4",
          "name": "interfaceId",
          "type": "bytes4"
        }
      ],
      "name": "supportsInterface",
      "outputs": [
        {
          "internalType": "bool",
          "name": "",
          "type": "bool"
        }
      ],
      "stateMutability": "view",
      "type": "function"
    },
    {
      "inputs": [],
      "name": "symbol",
      "outputs": [
        {
          "internalType": "string",
          "name": "",
          "type": "string"
        }
      ],
      "stateMutability": "view",
      "type": "function"
    },
    {
      "inputs": [
        {
          "internalType": "uint256",
          "name": "",
          "type": "uint256"
        }
      ],
      "name": "tokenCreator",
      "outputs": [
        {
          "internalType": "address",
          "name": "",
          "type": "address"
        }
      ],
      "stateMutability": "view",
      "type": "function"
    },
    {
      "inputs": [
        {
          "internalType": "uint256",
          "name": "",
          "type": "uint256"
        }
      ],
      "name": "tokenRoyalties",
      "outputs": [
        {
          "internalType": "uint256",
          "name": "",
          "type": "uint256"
        }
      ],
      "stateMutability": "view",
      "type": "function"
    },
    {
      "inputs": [
        {
          "internalType": "uint256",
          "name": "",
          "type": "uint256"
        }
      ],
      "name": "tokenSupply",
      "outputs": [
        {
          "internalType": "uint256",
          "name": "",
          "type": "uint256"
        }
      ],
      "stateMutability": "view",
      "type": "function"
    },
    {
      "inputs": [
        {
          "internalType": "uint256",
          "name": "tokenId",
          "type": "uint256"
        }
      ],
      "name": "uri",
      "outputs": [
        {
          "internalType": "string",
          "name": "",
          "type": "string"
        }
      ],
      "stateMutability": "view",
      "type": "function"
    },
    {
      "inputs": [],
      "name": "viewName",
      "outputs": [
        {
          "internalType": "string",
          "name": "",
          "type": "string"
        }
      ],
      "stateMutability": "view",
      "type": "function"
    },
    {
      "inputs": [],
      "name": "viewSymbol",
      "outputs": [
        {
          "internalType": "string",
          "name": "",
          "type": "string"
        }
      ],
      "stateMutability": "view",
      "type": "function"
    }
  ],
  "bytecode": "0x608060405234801561001057600080fd5b50613849806100206000396000f3fe608060405234801561001057600080fd5b50600436106101415760003560e01c80638129fc1c116100b8578063b5f10b381161007c578063b5f10b3814610374578063bec2a7c514610392578063c188655f146103c2578063cb53b24b146103e0578063e985e9c514610410578063f242432a1461044057610141565b80638129fc1c146102f657806383c4c00d1461030057806384238fb41461031e57806395d89b411461033a578063a22cb4651461035857610141565b80632693ebf21161010a5780632693ebf2146102125780632eb2c2d61461024257806340c1a0641461025e5780634e1273f41461028e5780635eccb995146102be5780637cd7a6e8146102da57610141565b8062fdd58e1461014657806301ffc9a71461017657806306fdde03146101a65780630e89341c146101c45780631ee5c248146101f4575b600080fd5b610160600480360381019061015b919061232e565b61045c565b60405161016d919061237d565b60405180910390f35b610190600480360381019061018b91906123f0565b6104c5565b60405161019d9190612438565b60405180910390f35b6101ae6105a7565b6040516101bb91906124e3565b60405180910390f35b6101de60048036038101906101d99190612505565b610635565b6040516101eb91906124e3565b60405180910390f35b6101fc61072b565b60405161020991906124e3565b60405180910390f35b61022c60048036038101906102279190612505565b6107bd565b604051610239919061237d565b60405180910390f35b61025c6004803603810190610257919061272f565b6107d5565b005b61027860048036038101906102739190612505565b61087d565b604051610285919061280d565b60405180910390f35b6102a860048036038101906102a391906128eb565b6108b0565b6040516102b59190612a21565b60405180910390f35b6102d860048036038101906102d39190612ae4565b6109bf565b005b6102f460048036038101906102ef9190612ba2565b610a77565b005b6102fe610bf5565b005b610308610ea2565b604051610315919061237d565b60405180910390f35b61033860048036038101906103339190612c44565b610eb3565b005b610342610f98565b60405161034f91906124e3565b60405180910390f35b610372600480360381019061036d9190612cd7565b611026565b005b61037c61103c565b60405161038991906124e3565b60405180910390f35b6103ac60048036038101906103a79190612d17565b6110ce565b6040516103b9919061237d565b60405180910390f35b6103ca611262565b6040516103d79190612de5565b60405180910390f35b6103fa60048036038101906103f59190612505565b611288565b604051610407919061237d565b60405180910390f35b61042a60048036038101906104259190612e00565b6112a0565b6040516104379190612438565b60405180910390f35b61045a60048036038101906104559190612e40565b611342565b005b6000806104676113ea565b905080600001600084815260200190815260200160002060008573ffffffffffffffffffffffffffffffffffffffff1673ffffffffffffffffffffffffffffffffffffffff1681526020019081526020016000205491505092915050565b60007fd9b67a26000000000000000000000000000000000000000000000000000000007bffffffffffffffffffffffffffffffffffffffffffffffffffffffff1916827bffffffffffffffffffffffffffffffffffffffffffffffffffffffff1916148061059057507f0e89341c000000000000000000000000000000000000000000000000000000007bffffffffffffffffffffffffffffffffffffffffffffffffffffffff1916827bffffffffffffffffffffffffffffffffffffffffffffffffffffffff1916145b806105a0575061059f82611412565b5b9050919050565b600680546105b490612f06565b80601f01602080910402602001604051908101604052809291908181526020018280546105e090612f06565b801561062d5780601f106106025761010080835404028352916020019161062d565b820191906000526020600020905b81548152906001019060200180831161061057829003601f168201915b505050505081565b6060600061064161147c565b90506000816001016000858152602001908152602001600020805461066590612f06565b80601f016020809104026020016040519081016040528092919081815260200182805461069190612f06565b80156106de5780601f106106b3576101008083540402835291602001916106de565b820191906000526020600020905b8154815290600101906020018083116106c157829003601f168201915b5050505050905060008151116106fc576106f7846114a4565b610722565b816000018160405160200161071292919061300b565b6040516020818303038152906040525b92505050919050565b60606007805461073a90612f06565b80601f016020809104026020016040519081016040528092919081815260200182805461076690612f06565b80156107b35780601f10610788576101008083540402835291602001916107b3565b820191906000526020600020905b81548152906001019060200180831161079657829003601f168201915b5050505050905090565b60026020528060005260406000206000915090505481565b60006107df611547565b90508073ffffffffffffffffffffffffffffffffffffffff168673ffffffffffffffffffffffffffffffffffffffff1614158015610824575061082286826112a0565b155b156108685780866040517fe237d92200000000000000000000000000000000000000000000000000000000815260040161085f92919061302f565b60405180910390fd5b610875868686868661154f565b505050505050565b60016020528060005260406000206000915054906101000a900473ffffffffffffffffffffffffffffffffffffffff1681565b606081518351146108fc57815183516040517f5b0599910000000000000000000000000000000000000000000000000000000081526004016108f3929190613058565b60405180910390fd5b6000835167ffffffffffffffff81111561091957610918612537565b5b6040519080825280602002602001820160405280156109475781602001602082028036833780820191505090505b50905060005b84518110156109b45761098461096c828761164790919063ffffffff16565b61097f838761165b90919063ffffffff16565b61045c565b82828151811061099757610996613081565b5b602002602001018181525050806109ad906130df565b905061094d565b508091505092915050565b600460009054906101000a900473ffffffffffffffffffffffffffffffffffffffff1673ffffffffffffffffffffffffffffffffffffffff163373ffffffffffffffffffffffffffffffffffffffff1614610a4f576040517f08c379a0000000000000000000000000000000000000000000000000000000008152600401610a4690613199565b60405180910390fd5b6000610a5c8887866110ce565b9050610a6d81888888888888610a77565b5050505050505050565b600460009054906101000a900473ffffffffffffffffffffffffffffffffffffffff1673ffffffffffffffffffffffffffffffffffffffff163373ffffffffffffffffffffffffffffffffffffffff1614610b07576040517f08c379a0000000000000000000000000000000000000000000000000000000008152600401610afe90613199565b60405180910390fd5b610b12816001611026565b80600560006101000a81548173ffffffffffffffffffffffffffffffffffffffff021916908373ffffffffffffffffffffffffffffffffffffffff160217905550600560009054906101000a900473ffffffffffffffffffffffffffffffffffffffff1673ffffffffffffffffffffffffffffffffffffffff16637e7955fc888886868a8a336040518863ffffffff1660e01b8152600401610bba97969594939291906131da565b600060405180830381600087803b158015610bd457600080fd5b505af1158015610be8573d6000803e3d6000fd5b5050505050505050505050565b6000610bff61166f565b905060008160000160089054906101000a900460ff1615905060008260000160009054906101000a900467ffffffffffffffff1690506000808267ffffffffffffffff16148015610c4d5750825b9050600060018367ffffffffffffffff16148015610c82575060003073ffffffffffffffffffffffffffffffffffffffff163b145b905081158015610c90575080155b15610cc7576040517ff92ee8a900000000000000000000000000000000000000000000000000000000815260040160405180910390fd5b60018560000160006101000a81548167ffffffffffffffff021916908367ffffffffffffffff1602179055508315610d175760018560000160086101000a81548160ff0219169083151502179055505b600460149054906101000a900460ff1615610d67576040517f08c379a0000000000000000000000000000000000000000000000000000000008152600401610d5e906132bb565b60405180910390fd5b6001600460146101000a81548160ff02191690831515021790555033600460006101000a81548173ffffffffffffffffffffffffffffffffffffffff021916908373ffffffffffffffffffffffffffffffffffffffff160217905550610e016040518060400160405280601181526020017f546f7269756b65204c697220546f6b656e000000000000000000000000000000815250611697565b610e3f6040518060400160405280600381526020017f54524b00000000000000000000000000000000000000000000000000000000008152506116aa565b8315610e9b5760008560000160086101000a81548160ff0219169083151502179055507fc7f505b2f371ae2175ee4913f4499e1f2633a7b5936321eed1cdaeb6115181d26001604051610e92919061332a565b60405180910390a15b5050505050565b6000610eae60006116bd565b905090565b610ebe816001611026565b80600560006101000a81548173ffffffffffffffffffffffffffffffffffffffff021916908373ffffffffffffffffffffffffffffffffffffffff160217905550600560009054906101000a900473ffffffffffffffffffffffffffffffffffffffff1673ffffffffffffffffffffffffffffffffffffffff166308c0dcbc858585336040518563ffffffff1660e01b8152600401610f609493929190613366565b600060405180830381600087803b158015610f7a57600080fd5b505af1158015610f8e573d6000803e3d6000fd5b5050505050505050565b60078054610fa590612f06565b80601f0160208091040260200160405190810160405280929190818152602001828054610fd190612f06565b801561101e5780601f10610ff35761010080835404028352916020019161101e565b820191906000526020600020905b81548152906001019060200180831161100157829003601f168201915b505050505081565b611038611031611547565b83836116cb565b5050565b60606006805461104b90612f06565b80601f016020809104026020016040519081016040528092919081815260200182805461107790612f06565b80156110c45780601f10611099576101008083540402835291602001916110c4565b820191906000526020600020905b8154815290600101906020018083116110a757829003601f168201915b5050505050905090565b6000600460009054906101000a900473ffffffffffffffffffffffffffffffffffffffff1673ffffffffffffffffffffffffffffffffffffffff163373ffffffffffffffffffffffffffffffffffffffff1614611160576040517f08c379a000000000000000000000000000000000000000000000000000000000815260040161115790613199565b60405180910390fd5b61116a600061184a565b600061117660006116bd565b905061119333828660405180602001604052806000815250611860565b836002600083815260200190815260200160002081905550336001600083815260200190815260200160002060006101000a81548173ffffffffffffffffffffffffffffffffffffffff021916908373ffffffffffffffffffffffffffffffffffffffff16021790555082600360008381526020019081526020016000208190555061121f81866118f9565b807fc331dc3e37e2ab4d6e65d42a119ffdfab8481b9be24d26704f9f4b4a331d4dd03060405161124f919061280d565b60405180910390a2809150509392505050565b600560009054906101000a900473ffffffffffffffffffffffffffffffffffffffff1681565b60036020528060005260406000206000915090505481565b6000806112ab6113ea565b90508060010160008573ffffffffffffffffffffffffffffffffffffffff1673ffffffffffffffffffffffffffffffffffffffff16815260200190815260200160002060008473ffffffffffffffffffffffffffffffffffffffff1673ffffffffffffffffffffffffffffffffffffffff16815260200190815260200160002060009054906101000a900460ff1691505092915050565b600061134c611547565b90508073ffffffffffffffffffffffffffffffffffffffff168673ffffffffffffffffffffffffffffffffffffffff1614158015611391575061138f86826112a0565b155b156113d55780866040517fe237d9220000000000000000000000000000000000000000000000000000000081526004016113cc92919061302f565b60405180910390fd5b6113e2868686868661196d565b505050505050565b60007f88be536d5240c274a3b1d3a1be54482fd9caa294f08c62a7cde569f49a3c4500905090565b60007f01ffc9a7000000000000000000000000000000000000000000000000000000007bffffffffffffffffffffffffffffffffffffffffffffffffffffffff1916827bffffffffffffffffffffffffffffffffffffffffffffffffffffffff1916149050919050565b60007f89fc852226e759c7c636cf34d732f0198fc56a54876b2374a52beb7b0c558600905090565b606060006114b06113ea565b90508060020180546114c190612f06565b80601f01602080910402602001604051908101604052809291908181526020018280546114ed90612f06565b801561153a5780601f1061150f5761010080835404028352916020019161153a565b820191906000526020600020905b81548152906001019060200180831161151d57829003601f168201915b5050505050915050919050565b600033905090565b600073ffffffffffffffffffffffffffffffffffffffff168473ffffffffffffffffffffffffffffffffffffffff16036115c15760006040517f57f447ce0000000000000000000000000000000000000000000000000000000081526004016115b8919061280d565b60405180910390fd5b600073ffffffffffffffffffffffffffffffffffffffff168573ffffffffffffffffffffffffffffffffffffffff16036116335760006040517f01a8351400000000000000000000000000000000000000000000000000000000815260040161162a919061280d565b60405180910390fd5b6116408585858585611a78565b5050505050565b600060208202602084010151905092915050565b600060208202602084010151905092915050565b60007ff0c57e16840df040f15088dc2f81fe391c3923bec73e23a9662efc9c229c6a00905090565b80600690816116a69190613538565b5050565b80600790816116b99190613538565b5050565b600081600001549050919050565b60006116d56113ea565b9050600073ffffffffffffffffffffffffffffffffffffffff168373ffffffffffffffffffffffffffffffffffffffff16036117495760006040517fced3e100000000000000000000000000000000000000000000000000000000008152600401611740919061280d565b60405180910390fd5b818160010160008673ffffffffffffffffffffffffffffffffffffffff1673ffffffffffffffffffffffffffffffffffffffff16815260200190815260200160002060008573ffffffffffffffffffffffffffffffffffffffff1673ffffffffffffffffffffffffffffffffffffffff16815260200190815260200160002060006101000a81548160ff0219169083151502179055508273ffffffffffffffffffffffffffffffffffffffff168473ffffffffffffffffffffffffffffffffffffffff167f17307eab39ab6107e8899845ad3d59bd9653f200f220920489ca2b5937696c318460405161183c9190612438565b60405180910390a350505050565b6001816000016000828254019250508190555050565b600073ffffffffffffffffffffffffffffffffffffffff168473ffffffffffffffffffffffffffffffffffffffff16036118d25760006040517f57f447ce0000000000000000000000000000000000000000000000000000000081526004016118c9919061280d565b60405180910390fd5b6000806118df8585611b2a565b915091506118f1600087848487611a78565b505050505050565b600061190361147c565b90508181600101600085815260200190815260200160002090816119279190613538565b50827f6bb7ff708619ba0610cba295a58592e0451dee2622938c8755667688daf3529b61195385610635565b60405161196091906124e3565b60405180910390a2505050565b600073ffffffffffffffffffffffffffffffffffffffff168473ffffffffffffffffffffffffffffffffffffffff16036119df5760006040517f57f447ce0000000000000000000000000000000000000000000000000000000081526004016119d6919061280d565b60405180910390fd5b600073ffffffffffffffffffffffffffffffffffffffff168573ffffffffffffffffffffffffffffffffffffffff1603611a515760006040517f01a83514000000000000000000000000000000000000000000000000000000008152600401611a48919061280d565b60405180910390fd5b600080611a5e8585611b2a565b91509150611a6f8787848487611a78565b50505050505050565b611a8485858585611b5a565b600073ffffffffffffffffffffffffffffffffffffffff168473ffffffffffffffffffffffffffffffffffffffff1614611b23576000611ac2611547565b90506001845103611b12576000611ae360008661165b90919063ffffffff16565b90506000611afb60008661165b90919063ffffffff16565b9050611b0b838989858589611f1e565b5050611b21565b611b208187878787876120d2565b5b505b5050505050565b60608060405191506001825283602083015260408201905060018152826020820152604081016040529250929050565b6000611b646113ea565b90508151835114611bb057825182516040517f5b059991000000000000000000000000000000000000000000000000000000008152600401611ba7929190613058565b60405180910390fd5b6000611bba611547565b905060005b8451811015611dd8576000611bdd828761165b90919063ffffffff16565b90506000611bf4838761165b90919063ffffffff16565b9050600073ffffffffffffffffffffffffffffffffffffffff168973ffffffffffffffffffffffffffffffffffffffff1614611d2757600085600001600084815260200190815260200160002060008b73ffffffffffffffffffffffffffffffffffffffff1673ffffffffffffffffffffffffffffffffffffffff16815260200190815260200160002054905081811015611ccc57898183856040517f03dee4c5000000000000000000000000000000000000000000000000000000008152600401611cc3949392919061360a565b60405180910390fd5b81810386600001600085815260200190815260200160002060008c73ffffffffffffffffffffffffffffffffffffffff1673ffffffffffffffffffffffffffffffffffffffff16815260200190815260200160002081905550505b600073ffffffffffffffffffffffffffffffffffffffff168873ffffffffffffffffffffffffffffffffffffffff1614611dc5578085600001600084815260200190815260200160002060008a73ffffffffffffffffffffffffffffffffffffffff1673ffffffffffffffffffffffffffffffffffffffff1681526020019081526020016000206000828254611dbd919061364f565b925050819055505b505080611dd1906130df565b9050611bbf565b506001845103611e97576000611df860008661165b90919063ffffffff16565b90506000611e1060008661165b90919063ffffffff16565b90508673ffffffffffffffffffffffffffffffffffffffff168873ffffffffffffffffffffffffffffffffffffffff168473ffffffffffffffffffffffffffffffffffffffff167fc3d58168c5ae7397731d063d5bbf3d657854427343f4c083240f7aacaa2d0f628585604051611e88929190613058565b60405180910390a45050611f16565b8473ffffffffffffffffffffffffffffffffffffffff168673ffffffffffffffffffffffffffffffffffffffff168273ffffffffffffffffffffffffffffffffffffffff167f4a39dc06d4c0dbc64b70af90fd698a233a518aa5d07e595d983b8c0526c8f7fb8787604051611f0d929190613683565b60405180910390a45b505050505050565b60008473ffffffffffffffffffffffffffffffffffffffff163b11156120ca578373ffffffffffffffffffffffffffffffffffffffff1663f23a6e6187878686866040518663ffffffff1660e01b8152600401611f7f95949392919061370f565b6020604051808303816000875af1925050508015611fbb57506040513d601f19601f82011682018060405250810190611fb8919061377e565b60015b61203f573d8060008114611feb576040519150601f19603f3d011682016040523d82523d6000602084013e611ff0565b606091505b50600081510361203757846040517f57f447ce00000000000000000000000000000000000000000000000000000000815260040161202e919061280d565b60405180910390fd5b805181602001fd5b63f23a6e6160e01b7bffffffffffffffffffffffffffffffffffffffffffffffffffffffff1916817bffffffffffffffffffffffffffffffffffffffffffffffffffffffff1916146120c857846040517f57f447ce0000000000000000000000000000000000000000000000000000000081526004016120bf919061280d565b60405180910390fd5b505b505050505050565b60008473ffffffffffffffffffffffffffffffffffffffff163b111561227e578373ffffffffffffffffffffffffffffffffffffffff1663bc197c8187878686866040518663ffffffff1660e01b81526004016121339594939291906137ab565b6020604051808303816000875af192505050801561216f57506040513d601f19601f8201168201806040525081019061216c919061377e565b60015b6121f3573d806000811461219f576040519150601f19603f3d011682016040523d82523d6000602084013e6121a4565b606091505b5060008151036121eb57846040517f57f447ce0000000000000000000000000000000000000000000000000000000081526004016121e2919061280d565b60405180910390fd5b805181602001fd5b63bc197c8160e01b7bffffffffffffffffffffffffffffffffffffffffffffffffffffffff1916817bffffffffffffffffffffffffffffffffffffffffffffffffffffffff19161461227c57846040517f57f447ce000000000000000000000000000000000000000000000000000000008152600401612273919061280d565b60405180910390fd5b505b505050505050565b6000604051905090565b600080fd5b600080fd5b600073ffffffffffffffffffffffffffffffffffffffff82169050919050565b60006122c58261229a565b9050919050565b6122d5816122ba565b81146122e057600080fd5b50565b6000813590506122f2816122cc565b92915050565b6000819050919050565b61230b816122f8565b811461231657600080fd5b50565b60008135905061232881612302565b92915050565b6000806040838503121561234557612344612290565b5b6000612353858286016122e3565b925050602061236485828601612319565b9150509250929050565b612377816122f8565b82525050565b6000602082019050612392600083018461236e565b92915050565b60007fffffffff0000000000000000000000000000000000000000000000000000000082169050919050565b6123cd81612398565b81146123d857600080fd5b50565b6000813590506123ea816123c4565b92915050565b60006020828403121561240657612405612290565b5b6000612414848285016123db565b91505092915050565b60008115159050919050565b6124328161241d565b82525050565b600060208201905061244d6000830184612429565b92915050565b600081519050919050565b600082825260208201905092915050565b60005b8381101561248d578082015181840152602081019050612472565b60008484015250505050565b6000601f19601f8301169050919050565b60006124b582612453565b6124bf818561245e565b93506124cf81856020860161246f565b6124d881612499565b840191505092915050565b600060208201905081810360008301526124fd81846124aa565b905092915050565b60006020828403121561251b5761251a612290565b5b600061252984828501612319565b91505092915050565b600080fd5b7f4e487b7100000000000000000000000000000000000000000000000000000000600052604160045260246000fd5b61256f82612499565b810181811067ffffffffffffffff8211171561258e5761258d612537565b5b80604052505050565b60006125a1612286565b90506125ad8282612566565b919050565b600067ffffffffffffffff8211156125cd576125cc612537565b5b602082029050602081019050919050565b600080fd5b60006125f66125f1846125b2565b612597565b90508083825260208201905060208402830185811115612619576126186125de565b5b835b81811015612642578061262e8882612319565b84526020840193505060208101905061261b565b5050509392505050565b600082601f83011261266157612660612532565b5b81356126718482602086016125e3565b91505092915050565b600080fd5b600067ffffffffffffffff82111561269a57612699612537565b5b6126a382612499565b9050602081019050919050565b82818337600083830152505050565b60006126d26126cd8461267f565b612597565b9050828152602081018484840111156126ee576126ed61267a565b5b6126f98482856126b0565b509392505050565b600082601f83011261271657612715612532565b5b81356127268482602086016126bf565b91505092915050565b600080600080600060a0868803121561274b5761274a612290565b5b6000612759888289016122e3565b955050602061276a888289016122e3565b945050604086013567ffffffffffffffff81111561278b5761278a612295565b5b6127978882890161264c565b935050606086013567ffffffffffffffff8111156127b8576127b7612295565b5b6127c48882890161264c565b925050608086013567ffffffffffffffff8111156127e5576127e4612295565b5b6127f188828901612701565b9150509295509295909350565b612807816122ba565b82525050565b600060208201905061282260008301846127fe565b92915050565b600067ffffffffffffffff82111561284357612842612537565b5b602082029050602081019050919050565b600061286761286284612828565b612597565b9050808382526020820190506020840283018581111561288a576128896125de565b5b835b818110156128b3578061289f88826122e3565b84526020840193505060208101905061288c565b5050509392505050565b600082601f8301126128d2576128d1612532565b5b81356128e2848260208601612854565b91505092915050565b6000806040838503121561290257612901612290565b5b600083013567ffffffffffffffff8111156129205761291f612295565b5b61292c858286016128bd565b925050602083013567ffffffffffffffff81111561294d5761294c612295565b5b6129598582860161264c565b9150509250929050565b600081519050919050565b600082825260208201905092915050565b6000819050602082019050919050565b612998816122f8565b82525050565b60006129aa838361298f565b60208301905092915050565b6000602082019050919050565b60006129ce82612963565b6129d8818561296e565b93506129e38361297f565b8060005b83811015612a145781516129fb888261299e565b9750612a06836129b6565b9250506001810190506129e7565b5085935050505092915050565b60006020820190508181036000830152612a3b81846129c3565b905092915050565b600067ffffffffffffffff821115612a5e57612a5d612537565b5b612a6782612499565b9050602081019050919050565b6000612a87612a8284612a43565b612597565b905082815260208101848484011115612aa357612aa261267a565b5b612aae8482856126b0565b509392505050565b600082601f830112612acb57612aca612532565b5b8135612adb848260208601612a74565b91505092915050565b600080600080600080600060e0888a031215612b0357612b02612290565b5b600088013567ffffffffffffffff811115612b2157612b20612295565b5b612b2d8a828b01612ab6565b9750506020612b3e8a828b01612319565b9650506040612b4f8a828b01612319565b9550506060612b608a828b01612319565b9450506080612b718a828b01612319565b93505060a0612b828a828b01612319565b92505060c0612b938a828b016122e3565b91505092959891949750929550565b600080600080600080600060e0888a031215612bc157612bc0612290565b5b6000612bcf8a828b01612319565b9750506020612be08a828b01612319565b9650506040612bf18a828b01612319565b9550506060612c028a828b01612319565b9450506080612c138a828b01612319565b93505060a0612c248a828b01612319565b92505060c0612c358a828b016122e3565b91505092959891949750929550565b60008060008060808587031215612c5e57612c5d612290565b5b6000612c6c87828801612319565b9450506020612c7d87828801612319565b9350506040612c8e87828801612319565b9250506060612c9f878288016122e3565b91505092959194509250565b612cb48161241d565b8114612cbf57600080fd5b50565b600081359050612cd181612cab565b92915050565b60008060408385031215612cee57612ced612290565b5b6000612cfc858286016122e3565b9250506020612d0d85828601612cc2565b9150509250929050565b600080600060608486031215612d3057612d2f612290565b5b600084013567ffffffffffffffff811115612d4e57612d4d612295565b5b612d5a86828701612ab6565b9350506020612d6b86828701612319565b9250506040612d7c86828701612319565b9150509250925092565b6000819050919050565b6000612dab612da6612da18461229a565b612d86565b61229a565b9050919050565b6000612dbd82612d90565b9050919050565b6000612dcf82612db2565b9050919050565b612ddf81612dc4565b82525050565b6000602082019050612dfa6000830184612dd6565b92915050565b60008060408385031215612e1757612e16612290565b5b6000612e25858286016122e3565b9250506020612e36858286016122e3565b9150509250929050565b600080600080600060a08688031215612e5c57612e5b612290565b5b6000612e6a888289016122e3565b9550506020612e7b888289016122e3565b9450506040612e8c88828901612319565b9350506060612e9d88828901612319565b925050608086013567ffffffffffffffff811115612ebe57612ebd612295565b5b612eca88828901612701565b9150509295509295909350565b7f4e487b7100000000000000000000000000000000000000000000000000000000600052602260045260246000fd5b60006002820490506001821680612f1e57607f821691505b602082108103612f3157612f30612ed7565b5b50919050565b600081905092915050565b60008190508160005260206000209050919050565b60008154612f6481612f06565b612f6e8186612f37565b94506001821660008114612f895760018114612f9e57612fd1565b60ff1983168652811515820286019350612fd1565b612fa785612f42565b60005b83811015612fc957815481890152600182019150602081019050612faa565b838801955050505b50505092915050565b6000612fe582612453565b612fef8185612f37565b9350612fff81856020860161246f565b80840191505092915050565b60006130178285612f57565b91506130238284612fda565b91508190509392505050565b600060408201905061304460008301856127fe565b61305160208301846127fe565b9392505050565b600060408201905061306d600083018561236e565b61307a602083018461236e565b9392505050565b7f4e487b7100000000000000000000000000000000000000000000000000000000600052603260045260246000fd5b7f4e487b7100000000000000000000000000000000000000000000000000000000600052601160045260246000fd5b60006130ea826122f8565b91507fffffffffffffffffffffffffffffffffffffffffffffffffffffffffffffffff820361311c5761311b6130b0565b5b600182019050919050565b7f4f6e6c7920746865206f776e6572206f6620746865206d61726b6574706c616360008201527f652063616e2063616c6c20746869732066756e6374696f6e0000000000000000602082015250565b600061318360388361245e565b915061318e82613127565b604082019050919050565b600060208201905081810360008301526131b281613176565b9050919050565b60006131c48261229a565b9050919050565b6131d4816131b9565b82525050565b600060e0820190506131ef600083018a61236e565b6131fc602083018961236e565b613209604083018861236e565b613216606083018761236e565b613223608083018661236e565b61323060a083018561236e565b61323d60c08301846131cb565b98975050505050505050565b7f436f6e747261637420696e7374616e63652068617320616c726561647920626560008201527f696e6720696e697469616c697a65640000000000000000000000000000000000602082015250565b60006132a5602f8361245e565b91506132b082613249565b604082019050919050565b600060208201905081810360008301526132d481613298565b9050919050565b6000819050919050565b600067ffffffffffffffff82169050919050565b600061331461330f61330a846132db565b612d86565b6132e5565b9050919050565b613324816132f9565b82525050565b600060208201905061333f600083018461331b565b92915050565b600061335082612db2565b9050919050565b61336081613345565b82525050565b600060808201905061337b600083018761236e565b613388602083018661236e565b613395604083018561236e565b6133a26060830184613357565b95945050505050565b60006020601f8301049050919050565b600082821b905092915050565b6000600883026133f87fffffffffffffffffffffffffffffffffffffffffffffffffffffffffffffffff826133bb565b61340286836133bb565b95508019841693508086168417925050509392505050565b600061343561343061342b846122f8565b612d86565b6122f8565b9050919050565b6000819050919050565b61344f8361341a565b61346361345b8261343c565b8484546133c8565b825550505050565b600090565b61347861346b565b613483818484613446565b505050565b5b818110156134a75761349c600082613470565b600181019050613489565b5050565b601f8211156134ec576134bd81612f42565b6134c6846133ab565b810160208510156134d5578190505b6134e96134e1856133ab565b830182613488565b50505b505050565b600082821c905092915050565b600061350f600019846008026134f1565b1980831691505092915050565b600061352883836134fe565b9150826002028217905092915050565b61354182612453565b67ffffffffffffffff81111561355a57613559612537565b5b6135648254612f06565b61356f8282856134ab565b600060209050601f8311600181146135a25760008415613590578287015190505b61359a858261351c565b865550613602565b601f1984166135b086612f42565b60005b828110156135d8578489015182556001820191506020850194506020810190506135b3565b868310156135f557848901516135f1601f8916826134fe565b8355505b6001600288020188555050505b505050505050565b600060808201905061361f60008301876127fe565b61362c602083018661236e565b613639604083018561236e565b613646606083018461236e565b95945050505050565b600061365a826122f8565b9150613665836122f8565b925082820190508082111561367d5761367c6130b0565b5b92915050565b6000604082019050818103600083015261369d81856129c3565b905081810360208301526136b181846129c3565b90509392505050565b600081519050919050565b600082825260208201905092915050565b60006136e1826136ba565b6136eb81856136c5565b93506136fb81856020860161246f565b61370481612499565b840191505092915050565b600060a08201905061372460008301886127fe565b61373160208301876127fe565b61373e604083018661236e565b61374b606083018561236e565b818103608083015261375d81846136d6565b90509695505050505050565b600081519050613778816123c4565b92915050565b60006020828403121561379457613793612290565b5b60006137a284828501613769565b91505092915050565b600060a0820190506137c060008301886127fe565b6137cd60208301876127fe565b81810360408301526137df81866129c3565b905081810360608301526137f381856129c3565b9050818103608083015261380781846136d6565b9050969550505050505056fea2646970667358221220b42e75b49650648465bd39283be305906befaf482a95cd3e923dee33a8f1cf8a64736f6c63430008140033",
  "linkReferences": {},
  "deployedLinkReferences": {}
}