{
  "_format": "hh-sol-artifact-1",
  "contractName": "NFTMintUpgradable",
  "sourceName": "contracts/NFTMint.sol",
  "abi": [
    {
      "inputs": [
        {
          "internalType": "address",
          "name": "sender",
          "type": "address"
        },
        {
          "internalType": "uint256",
          "name": "balance",
          "type": "uint256"
        },
        {
          "internalType": "uint256",
          "name": "needed",
          "type": "uint256"
        },
        {
          "internalType": "uint256",
          "name": "tokenId",
          "type": "uint256"
        }
      ],
      "name": "ERC1155InsufficientBalance",
      "type": "error"
    },
    {
      "inputs": [
        {
          "internalType": "address",
          "name": "approver",
          "type": "address"
        }
      ],
      "name": "ERC1155InvalidApprover",
      "type": "error"
    },
    {
      "inputs": [
        {
          "internalType": "uint256",
          "name": "idsLength",
          "type": "uint256"
        },
        {
          "internalType": "uint256",
          "name": "valuesLength",
          "type": "uint256"
        }
      ],
      "name": "ERC1155InvalidArrayLength",
      "type": "error"
    },
    {
      "inputs": [
        {
          "internalType": "address",
          "name": "operator",
          "type": "address"
        }
      ],
      "name": "ERC1155InvalidOperator",
      "type": "error"
    },
    {
      "inputs": [
        {
          "internalType": "address",
          "name": "receiver",
          "type": "address"
        }
      ],
      "name": "ERC1155InvalidReceiver",
      "type": "error"
    },
    {
      "inputs": [
        {
          "internalType": "address",
          "name": "sender",
          "type": "address"
        }
      ],
      "name": "ERC1155InvalidSender",
      "type": "error"
    },
    {
      "inputs": [
        {
          "internalType": "address",
          "name": "operator",
          "type": "address"
        },
        {
          "internalType": "address",
          "name": "owner",
          "type": "address"
        }
      ],
      "name": "ERC1155MissingApprovalForAll",
      "type": "error"
    },
    {
      "inputs": [],
      "name": "InvalidInitialization",
      "type": "error"
    },
    {
      "inputs": [],
      "name": "NotInitializing",
      "type": "error"
    },
    {
      "anonymous": false,
      "inputs": [
        {
          "indexed": true,
          "internalType": "address",
          "name": "account",
          "type": "address"
        },
        {
          "indexed": true,
          "internalType": "address",
          "name": "operator",
          "type": "address"
        },
        {
          "indexed": false,
          "internalType": "bool",
          "name": "approved",
          "type": "bool"
        }
      ],
      "name": "ApprovalForAll",
      "type": "event"
    },
    {
      "anonymous": false,
      "inputs": [
        {
          "indexed": false,
          "internalType": "uint64",
          "name": "version",
          "type": "uint64"
        }
      ],
      "name": "Initialized",
      "type": "event"
    },
    {
      "anonymous": false,
      "inputs": [
        {
          "indexed": true,
          "internalType": "uint256",
          "name": "tokenId",
          "type": "uint256"
        },
        {
          "indexed": false,
          "internalType": "address",
          "name": "smartContract",
          "type": "address"
        }
      ],
      "name": "TokenCreated",
      "type": "event"
    },
    {
      "anonymous": false,
      "inputs": [
        {
          "indexed": true,
          "internalType": "address",
          "name": "operator",
          "type": "address"
        },
        {
          "indexed": true,
          "internalType": "address",
          "name": "from",
          "type": "address"
        },
        {
          "indexed": true,
          "internalType": "address",
          "name": "to",
          "type": "address"
        },
        {
          "indexed": false,
          "internalType": "uint256[]",
          "name": "ids",
          "type": "uint256[]"
        },
        {
          "indexed": false,
          "internalType": "uint256[]",
          "name": "values",
          "type": "uint256[]"
        }
      ],
      "name": "TransferBatch",
      "type": "event"
    },
    {
      "anonymous": false,
      "inputs": [
        {
          "indexed": true,
          "internalType": "address",
          "name": "operator",
          "type": "address"
        },
        {
          "indexed": true,
          "internalType": "address",
          "name": "from",
          "type": "address"
        },
        {
          "indexed": true,
          "internalType": "address",
          "name": "to",
          "type": "address"
        },
        {
          "indexed": false,
          "internalType": "uint256",
          "name": "id",
          "type": "uint256"
        },
        {
          "indexed": false,
          "internalType": "uint256",
          "name": "value",
          "type": "uint256"
        }
      ],
      "name": "TransferSingle",
      "type": "event"
    },
    {
      "anonymous": false,
      "inputs": [
        {
          "indexed": false,
          "internalType": "string",
          "name": "value",
          "type": "string"
        },
        {
          "indexed": true,
          "internalType": "uint256",
          "name": "id",
          "type": "uint256"
        }
      ],
      "name": "URI",
      "type": "event"
    },
    {
      "inputs": [
        {
          "internalType": "address",
          "name": "account",
          "type": "address"
        },
        {
          "internalType": "uint256",
          "name": "id",
          "type": "uint256"
        }
      ],
      "name": "balanceOf",
      "outputs": [
        {
          "internalType": "uint256",
          "name": "",
          "type": "uint256"
        }
      ],
      "stateMutability": "view",
      "type": "function"
    },
    {
      "inputs": [
        {
          "internalType": "address[]",
          "name": "accounts",
          "type": "address[]"
        },
        {
          "internalType": "uint256[]",
          "name": "ids",
          "type": "uint256[]"
        }
      ],
      "name": "balanceOfBatch",
      "outputs": [
        {
          "internalType": "uint256[]",
          "name": "",
          "type": "uint256[]"
        }
      ],
      "stateMutability": "view",
      "type": "function"
    },
    {
      "inputs": [
        {
          "internalType": "string",
          "name": "tokenURI",
          "type": "string"
        },
        {
          "internalType": "uint256",
          "name": "price",
          "type": "uint256"
        },
        {
          "internalType": "uint256",
          "name": "supply",
          "type": "uint256"
        },
        {
          "internalType": "uint256",
          "name": "amount",
          "type": "uint256"
        },
        {
          "internalType": "uint256",
          "name": "royalties",
          "type": "uint256"
        },
        {
          "internalType": "uint256",
          "name": "firstSalesFees",
          "type": "uint256"
        },
        {
          "internalType": "address",
          "name": "NFTMarketplaceAddress",
          "type": "address"
        }
      ],
      "name": "createAndListToken",
      "outputs": [],
      "stateMutability": "nonpayable",
      "type": "function"
    },
    {
      "inputs": [
        {
          "internalType": "string",
          "name": "tokenURI",
          "type": "string"
        },
        {
          "internalType": "uint256",
          "name": "supply",
          "type": "uint256"
        },
        {
          "internalType": "uint256",
          "name": "royalties",
          "type": "uint256"
        }
      ],
      "name": "createToken",
      "outputs": [
        {
          "internalType": "uint256",
          "name": "",
          "type": "uint256"
        }
      ],
      "stateMutability": "nonpayable",
      "type": "function"
    },
    {
      "inputs": [
        {
          "internalType": "uint256",
          "name": "tokenId",
          "type": "uint256"
        },
        {
          "internalType": "uint256",
          "name": "price",
          "type": "uint256"
        },
        {
          "internalType": "uint256",
          "name": "supply",
          "type": "uint256"
        },
        {
          "internalType": "uint256",
          "name": "amount",
          "type": "uint256"
        },
        {
          "internalType": "uint256",
          "name": "royalties",
          "type": "uint256"
        },
        {
          "internalType": "uint256",
          "name": "firstSalesFees",
          "type": "uint256"
        },
        {
          "internalType": "address",
          "name": "NFTMarketplaceAddress",
          "type": "address"
        }
      ],
      "name": "firstListing",
      "outputs": [],
      "stateMutability": "nonpayable",
      "type": "function"
    },
    {
      "inputs": [],
      "name": "getLastTokenId",
      "outputs": [
        {
          "internalType": "uint256",
          "name": "",
          "type": "uint256"
        }
      ],
      "stateMutability": "view",
      "type": "function"
    },
    {
      "inputs": [
        {
          "internalType": "string",
          "name": "nameToken",
          "type": "string"
        },
        {
          "internalType": "string",
          "name": "symbolToken",
          "type": "string"
        },
        {
          "internalType": "address",
          "name": "ownerAddress",
          "type": "address"
        }
      ],
      "name": "initialize",
      "outputs": [],
      "stateMutability": "nonpayable",
      "type": "function"
    },
    {
      "inputs": [
        {
          "internalType": "address",
          "name": "account",
          "type": "address"
        },
        {
          "internalType": "address",
          "name": "operator",
          "type": "address"
        }
      ],
      "name": "isApprovedForAll",
      "outputs": [
        {
          "internalType": "bool",
          "name": "",
          "type": "bool"
        }
      ],
      "stateMutability": "view",
      "type": "function"
    },
    {
      "inputs": [],
      "name": "name",
      "outputs": [
        {
          "internalType": "string",
          "name": "",
          "type": "string"
        }
      ],
      "stateMutability": "view",
      "type": "function"
    },
    {
      "inputs": [],
      "name": "nftMarketplaceInstance",
      "outputs": [
        {
          "internalType": "contract Marketplace",
          "name": "",
          "type": "address"
        }
      ],
      "stateMutability": "view",
      "type": "function"
    },
    {
      "inputs": [
        {
          "internalType": "address",
          "name": "from",
          "type": "address"
        },
        {
          "internalType": "address",
          "name": "to",
          "type": "address"
        },
        {
          "internalType": "uint256[]",
          "name": "ids",
          "type": "uint256[]"
        },
        {
          "internalType": "uint256[]",
          "name": "values",
          "type": "uint256[]"
        },
        {
          "internalType": "bytes",
          "name": "data",
          "type": "bytes"
        }
      ],
      "name": "safeBatchTransferFrom",
      "outputs": [],
      "stateMutability": "nonpayable",
      "type": "function"
    },
    {
      "inputs": [
        {
          "internalType": "address",
          "name": "from",
          "type": "address"
        },
        {
          "internalType": "address",
          "name": "to",
          "type": "address"
        },
        {
          "internalType": "uint256",
          "name": "id",
          "type": "uint256"
        },
        {
          "internalType": "uint256",
          "name": "value",
          "type": "uint256"
        },
        {
          "internalType": "bytes",
          "name": "data",
          "type": "bytes"
        }
      ],
      "name": "safeTransferFrom",
      "outputs": [],
      "stateMutability": "nonpayable",
      "type": "function"
    },
    {
      "inputs": [
        {
          "internalType": "uint256",
          "name": "tokenId",
          "type": "uint256"
        },
        {
          "internalType": "uint256",
          "name": "amount",
          "type": "uint256"
        },
        {
          "internalType": "uint256",
          "name": "price",
          "type": "uint256"
        },
        {
          "internalType": "address",
          "name": "NFTMarketplaceAddress",
          "type": "address"
        }
      ],
      "name": "secondaryListing",
      "outputs": [],
      "stateMutability": "nonpayable",
      "type": "function"
    },
    {
      "inputs": [
        {
          "internalType": "address",
          "name": "operator",
          "type": "address"
        },
        {
          "internalType": "bool",
          "name": "approved",
          "type": "bool"
        }
      ],
      "name": "setApprovalForAll",
      "outputs": [],
      "stateMutability": "nonpayable",
      "type": "function"
    },
    {
      "inputs": [
        {
          "internalType": "bytes4",
          "name": "interfaceId",
          "type": "bytes4"
        }
      ],
      "name": "supportsInterface",
      "outputs": [
        {
          "internalType": "bool",
          "name": "",
          "type": "bool"
        }
      ],
      "stateMutability": "view",
      "type": "function"
    },
    {
      "inputs": [],
      "name": "symbol",
      "outputs": [
        {
          "internalType": "string",
          "name": "",
          "type": "string"
        }
      ],
      "stateMutability": "view",
      "type": "function"
    },
    {
      "inputs": [
        {
          "internalType": "uint256",
          "name": "",
          "type": "uint256"
        }
      ],
      "name": "tokenCreator",
      "outputs": [
        {
          "internalType": "address",
          "name": "",
          "type": "address"
        }
      ],
      "stateMutability": "view",
      "type": "function"
    },
    {
      "inputs": [
        {
          "internalType": "uint256",
          "name": "",
          "type": "uint256"
        }
      ],
      "name": "tokenRoyalties",
      "outputs": [
        {
          "internalType": "uint256",
          "name": "",
          "type": "uint256"
        }
      ],
      "stateMutability": "view",
      "type": "function"
    },
    {
      "inputs": [
        {
          "internalType": "uint256",
          "name": "",
          "type": "uint256"
        }
      ],
      "name": "tokenSupply",
      "outputs": [
        {
          "internalType": "uint256",
          "name": "",
          "type": "uint256"
        }
      ],
      "stateMutability": "view",
      "type": "function"
    },
    {
      "inputs": [
        {
          "internalType": "uint256",
          "name": "tokenId",
          "type": "uint256"
        }
      ],
      "name": "uri",
      "outputs": [
        {
          "internalType": "string",
          "name": "",
          "type": "string"
        }
      ],
      "stateMutability": "view",
      "type": "function"
    },
    {
      "inputs": [],
      "name": "viewName",
      "outputs": [
        {
          "internalType": "string",
          "name": "",
          "type": "string"
        }
      ],
      "stateMutability": "view",
      "type": "function"
    },
    {
      "inputs": [],
      "name": "viewSymbol",
      "outputs": [
        {
          "internalType": "string",
          "name": "",
          "type": "string"
        }
      ],
      "stateMutability": "view",
      "type": "function"
    }
  ],
  "bytecode": "0x608060405234801561001057600080fd5b5061387f806100206000396000f3fe608060405234801561001057600080fd5b50600436106101415760003560e01c80637cd7a6e8116100b8578063b5f10b381161007c578063b5f10b3814610386578063bec2a7c5146103a4578063c188655f146103d4578063cb53b24b146103f2578063e985e9c514610422578063f242432a1461045257610141565b80637cd7a6e8146102f657806383c4c00d1461031257806384238fb41461033057806395d89b411461034c578063a22cb4651461036a57610141565b80631ee5c2481161010a5780631ee5c248146102105780632693ebf21461022e5780632eb2c2d61461025e57806340c1a0641461027a5780634e1273f4146102aa5780635eccb995146102da57610141565b8062fdd58e1461014657806301ffc9a71461017657806306fdde03146101a6578063077f224a146101c45780630e89341c146101e0575b600080fd5b610160600480360381019061015b91906122d9565b61046e565b60405161016d9190612328565b60405180910390f35b610190600480360381019061018b919061239b565b6104d7565b60405161019d91906123e3565b60405180910390f35b6101ae6105b9565b6040516101bb919061248e565b60405180910390f35b6101de60048036038101906101d991906125e5565b610647565b005b6101fa60048036038101906101f59190612670565b61088d565b604051610207919061248e565b60405180910390f35b610218610983565b604051610225919061248e565b60405180910390f35b61024860048036038101906102439190612670565b610a15565b6040516102559190612328565b60405180910390f35b61027860048036038101906102739190612806565b610a2d565b005b610294600480360381019061028f9190612670565b610ad5565b6040516102a191906128e4565b60405180910390f35b6102c460048036038101906102bf91906129c2565b610b08565b6040516102d19190612af8565b60405180910390f35b6102f460048036038101906102ef9190612b1a565b610c17565b005b610310600480360381019061030b9190612bd8565b610ccf565b005b61031a610e4d565b6040516103279190612328565b60405180910390f35b61034a60048036038101906103459190612c7a565b610e5e565b005b610354610f43565b604051610361919061248e565b60405180910390f35b610384600480360381019061037f9190612d0d565b610fd1565b005b61038e610fe7565b60405161039b919061248e565b60405180910390f35b6103be60048036038101906103b99190612d4d565b611079565b6040516103cb9190612328565b60405180910390f35b6103dc61120d565b6040516103e99190612e1b565b60405180910390f35b61040c60048036038101906104079190612670565b611233565b6040516104199190612328565b60405180910390f35b61043c60048036038101906104379190612e36565b61124b565b60405161044991906123e3565b60405180910390f35b61046c60048036038101906104679190612e76565b6112ed565b005b600080610479611395565b905080600001600084815260200190815260200160002060008573ffffffffffffffffffffffffffffffffffffffff1673ffffffffffffffffffffffffffffffffffffffff1681526020019081526020016000205491505092915050565b60007fd9b67a26000000000000000000000000000000000000000000000000000000007bffffffffffffffffffffffffffffffffffffffffffffffffffffffff1916827bffffffffffffffffffffffffffffffffffffffffffffffffffffffff191614806105a257507f0e89341c000000000000000000000000000000000000000000000000000000007bffffffffffffffffffffffffffffffffffffffffffffffffffffffff1916827bffffffffffffffffffffffffffffffffffffffffffffffffffffffff1916145b806105b257506105b1826113bd565b5b9050919050565b600680546105c690612f3c565b80601f01602080910402602001604051908101604052809291908181526020018280546105f290612f3c565b801561063f5780601f106106145761010080835404028352916020019161063f565b820191906000526020600020905b81548152906001019060200180831161062257829003601f168201915b505050505081565b6000610651611427565b905060008160000160089054906101000a900460ff1615905060008260000160009054906101000a900467ffffffffffffffff1690506000808267ffffffffffffffff1614801561069f5750825b9050600060018367ffffffffffffffff161480156106d4575060003073ffffffffffffffffffffffffffffffffffffffff163b145b9050811580156106e2575080155b15610719576040517ff92ee8a900000000000000000000000000000000000000000000000000000000815260040160405180910390fd5b60018560000160006101000a81548167ffffffffffffffff021916908367ffffffffffffffff16021790555083156107695760018560000160086101000a81548160ff0219169083151502179055505b600460149054906101000a900460ff16156107b9576040517f08c379a00000000000000000000000000000000000000000000000000000000081526004016107b090612fdf565b60405180910390fd5b6001600460146101000a81548160ff02191690831515021790555085600460006101000a81548173ffffffffffffffffffffffffffffffffffffffff021916908373ffffffffffffffffffffffffffffffffffffffff16021790555061081e8861144f565b61082787611462565b83156108835760008560000160086101000a81548160ff0219169083151502179055507fc7f505b2f371ae2175ee4913f4499e1f2633a7b5936321eed1cdaeb6115181d2600160405161087a919061304e565b60405180910390a15b5050505050505050565b60606000610899611475565b9050600081600101600085815260200190815260200160002080546108bd90612f3c565b80601f01602080910402602001604051908101604052809291908181526020018280546108e990612f3c565b80156109365780601f1061090b57610100808354040283529160200191610936565b820191906000526020600020905b81548152906001019060200180831161091957829003601f168201915b5050505050905060008151116109545761094f8461149d565b61097a565b816000018160405160200161096a92919061313d565b6040516020818303038152906040525b92505050919050565b60606007805461099290612f3c565b80601f01602080910402602001604051908101604052809291908181526020018280546109be90612f3c565b8015610a0b5780601f106109e057610100808354040283529160200191610a0b565b820191906000526020600020905b8154815290600101906020018083116109ee57829003601f168201915b5050505050905090565b60026020528060005260406000206000915090505481565b6000610a37611540565b90508073ffffffffffffffffffffffffffffffffffffffff168673ffffffffffffffffffffffffffffffffffffffff1614158015610a7c5750610a7a868261124b565b155b15610ac05780866040517fe237d922000000000000000000000000000000000000000000000000000000008152600401610ab7929190613161565b60405180910390fd5b610acd8686868686611548565b505050505050565b60016020528060005260406000206000915054906101000a900473ffffffffffffffffffffffffffffffffffffffff1681565b60608151835114610b5457815183516040517f5b059991000000000000000000000000000000000000000000000000000000008152600401610b4b92919061318a565b60405180910390fd5b6000835167ffffffffffffffff811115610b7157610b706124ba565b5b604051908082528060200260200182016040528015610b9f5781602001602082028036833780820191505090505b50905060005b8451811015610c0c57610bdc610bc4828761164090919063ffffffff16565b610bd7838761165490919063ffffffff16565b61046e565b828281518110610bef57610bee6131b3565b5b60200260200101818152505080610c0590613211565b9050610ba5565b508091505092915050565b600460009054906101000a900473ffffffffffffffffffffffffffffffffffffffff1673ffffffffffffffffffffffffffffffffffffffff163373ffffffffffffffffffffffffffffffffffffffff1614610ca7576040517f08c379a0000000000000000000000000000000000000000000000000000000008152600401610c9e906132cb565b60405180910390fd5b6000610cb4888786611079565b9050610cc581888888888888610ccf565b5050505050505050565b600460009054906101000a900473ffffffffffffffffffffffffffffffffffffffff1673ffffffffffffffffffffffffffffffffffffffff163373ffffffffffffffffffffffffffffffffffffffff1614610d5f576040517f08c379a0000000000000000000000000000000000000000000000000000000008152600401610d56906132cb565b60405180910390fd5b610d6a816001610fd1565b80600560006101000a81548173ffffffffffffffffffffffffffffffffffffffff021916908373ffffffffffffffffffffffffffffffffffffffff160217905550600560009054906101000a900473ffffffffffffffffffffffffffffffffffffffff1673ffffffffffffffffffffffffffffffffffffffff16637e7955fc888886868a8a336040518863ffffffff1660e01b8152600401610e12979695949392919061330c565b600060405180830381600087803b158015610e2c57600080fd5b505af1158015610e40573d6000803e3d6000fd5b5050505050505050505050565b6000610e596000611668565b905090565b610e69816001610fd1565b80600560006101000a81548173ffffffffffffffffffffffffffffffffffffffff021916908373ffffffffffffffffffffffffffffffffffffffff160217905550600560009054906101000a900473ffffffffffffffffffffffffffffffffffffffff1673ffffffffffffffffffffffffffffffffffffffff166308c0dcbc858585336040518563ffffffff1660e01b8152600401610f0b949392919061339c565b600060405180830381600087803b158015610f2557600080fd5b505af1158015610f39573d6000803e3d6000fd5b5050505050505050565b60078054610f5090612f3c565b80601f0160208091040260200160405190810160405280929190818152602001828054610f7c90612f3c565b8015610fc95780601f10610f9e57610100808354040283529160200191610fc9565b820191906000526020600020905b815481529060010190602001808311610fac57829003601f168201915b505050505081565b610fe3610fdc611540565b8383611676565b5050565b606060068054610ff690612f3c565b80601f016020809104026020016040519081016040528092919081815260200182805461102290612f3c565b801561106f5780601f106110445761010080835404028352916020019161106f565b820191906000526020600020905b81548152906001019060200180831161105257829003601f168201915b5050505050905090565b6000600460009054906101000a900473ffffffffffffffffffffffffffffffffffffffff1673ffffffffffffffffffffffffffffffffffffffff163373ffffffffffffffffffffffffffffffffffffffff161461110b576040517f08c379a0000000000000000000000000000000000000000000000000000000008152600401611102906132cb565b60405180910390fd5b61111560006117f5565b60006111216000611668565b905061113e3382866040518060200160405280600081525061180b565b836002600083815260200190815260200160002081905550336001600083815260200190815260200160002060006101000a81548173ffffffffffffffffffffffffffffffffffffffff021916908373ffffffffffffffffffffffffffffffffffffffff1602179055508260036000838152602001908152602001600020819055506111ca81866118a4565b807fc331dc3e37e2ab4d6e65d42a119ffdfab8481b9be24d26704f9f4b4a331d4dd0306040516111fa91906128e4565b60405180910390a2809150509392505050565b600560009054906101000a900473ffffffffffffffffffffffffffffffffffffffff1681565b60036020528060005260406000206000915090505481565b600080611256611395565b90508060010160008573ffffffffffffffffffffffffffffffffffffffff1673ffffffffffffffffffffffffffffffffffffffff16815260200190815260200160002060008473ffffffffffffffffffffffffffffffffffffffff1673ffffffffffffffffffffffffffffffffffffffff16815260200190815260200160002060009054906101000a900460ff1691505092915050565b60006112f7611540565b90508073ffffffffffffffffffffffffffffffffffffffff168673ffffffffffffffffffffffffffffffffffffffff161415801561133c575061133a868261124b565b155b156113805780866040517fe237d922000000000000000000000000000000000000000000000000000000008152600401611377929190613161565b60405180910390fd5b61138d8686868686611918565b505050505050565b60007f88be536d5240c274a3b1d3a1be54482fd9caa294f08c62a7cde569f49a3c4500905090565b60007f01ffc9a7000000000000000000000000000000000000000000000000000000007bffffffffffffffffffffffffffffffffffffffffffffffffffffffff1916827bffffffffffffffffffffffffffffffffffffffffffffffffffffffff1916149050919050565b60007ff0c57e16840df040f15088dc2f81fe391c3923bec73e23a9662efc9c229c6a00905090565b806006908161145e919061356e565b5050565b8060079081611471919061356e565b5050565b60007f89fc852226e759c7c636cf34d732f0198fc56a54876b2374a52beb7b0c558600905090565b606060006114a9611395565b90508060020180546114ba90612f3c565b80601f01602080910402602001604051908101604052809291908181526020018280546114e690612f3c565b80156115335780601f1061150857610100808354040283529160200191611533565b820191906000526020600020905b81548152906001019060200180831161151657829003601f168201915b5050505050915050919050565b600033905090565b600073ffffffffffffffffffffffffffffffffffffffff168473ffffffffffffffffffffffffffffffffffffffff16036115ba5760006040517f57f447ce0000000000000000000000000000000000000000000000000000000081526004016115b191906128e4565b60405180910390fd5b600073ffffffffffffffffffffffffffffffffffffffff168573ffffffffffffffffffffffffffffffffffffffff160361162c5760006040517f01a8351400000000000000000000000000000000000000000000000000000000815260040161162391906128e4565b60405180910390fd5b6116398585858585611a23565b5050505050565b600060208202602084010151905092915050565b600060208202602084010151905092915050565b600081600001549050919050565b6000611680611395565b9050600073ffffffffffffffffffffffffffffffffffffffff168373ffffffffffffffffffffffffffffffffffffffff16036116f45760006040517fced3e1000000000000000000000000000000000000000000000000000000000081526004016116eb91906128e4565b60405180910390fd5b818160010160008673ffffffffffffffffffffffffffffffffffffffff1673ffffffffffffffffffffffffffffffffffffffff16815260200190815260200160002060008573ffffffffffffffffffffffffffffffffffffffff1673ffffffffffffffffffffffffffffffffffffffff16815260200190815260200160002060006101000a81548160ff0219169083151502179055508273ffffffffffffffffffffffffffffffffffffffff168473ffffffffffffffffffffffffffffffffffffffff167f17307eab39ab6107e8899845ad3d59bd9653f200f220920489ca2b5937696c31846040516117e791906123e3565b60405180910390a350505050565b6001816000016000828254019250508190555050565b600073ffffffffffffffffffffffffffffffffffffffff168473ffffffffffffffffffffffffffffffffffffffff160361187d5760006040517f57f447ce00000000000000000000000000000000000000000000000000000000815260040161187491906128e4565b60405180910390fd5b60008061188a8585611ad5565b9150915061189c600087848487611a23565b505050505050565b60006118ae611475565b90508181600101600085815260200190815260200160002090816118d2919061356e565b50827f6bb7ff708619ba0610cba295a58592e0451dee2622938c8755667688daf3529b6118fe8561088d565b60405161190b919061248e565b60405180910390a2505050565b600073ffffffffffffffffffffffffffffffffffffffff168473ffffffffffffffffffffffffffffffffffffffff160361198a5760006040517f57f447ce00000000000000000000000000000000000000000000000000000000815260040161198191906128e4565b60405180910390fd5b600073ffffffffffffffffffffffffffffffffffffffff168573ffffffffffffffffffffffffffffffffffffffff16036119fc5760006040517f01a835140000000000000000000000000000000000000000000000000000000081526004016119f391906128e4565b60405180910390fd5b600080611a098585611ad5565b91509150611a1a8787848487611a23565b50505050505050565b611a2f85858585611b05565b600073ffffffffffffffffffffffffffffffffffffffff168473ffffffffffffffffffffffffffffffffffffffff1614611ace576000611a6d611540565b90506001845103611abd576000611a8e60008661165490919063ffffffff16565b90506000611aa660008661165490919063ffffffff16565b9050611ab6838989858589611ec9565b5050611acc565b611acb81878787878761207d565b5b505b5050505050565b60608060405191506001825283602083015260408201905060018152826020820152604081016040529250929050565b6000611b0f611395565b90508151835114611b5b57825182516040517f5b059991000000000000000000000000000000000000000000000000000000008152600401611b5292919061318a565b60405180910390fd5b6000611b65611540565b905060005b8451811015611d83576000611b88828761165490919063ffffffff16565b90506000611b9f838761165490919063ffffffff16565b9050600073ffffffffffffffffffffffffffffffffffffffff168973ffffffffffffffffffffffffffffffffffffffff1614611cd257600085600001600084815260200190815260200160002060008b73ffffffffffffffffffffffffffffffffffffffff1673ffffffffffffffffffffffffffffffffffffffff16815260200190815260200160002054905081811015611c7757898183856040517f03dee4c5000000000000000000000000000000000000000000000000000000008152600401611c6e9493929190613640565b60405180910390fd5b81810386600001600085815260200190815260200160002060008c73ffffffffffffffffffffffffffffffffffffffff1673ffffffffffffffffffffffffffffffffffffffff16815260200190815260200160002081905550505b600073ffffffffffffffffffffffffffffffffffffffff168873ffffffffffffffffffffffffffffffffffffffff1614611d70578085600001600084815260200190815260200160002060008a73ffffffffffffffffffffffffffffffffffffffff1673ffffffffffffffffffffffffffffffffffffffff1681526020019081526020016000206000828254611d689190613685565b925050819055505b505080611d7c90613211565b9050611b6a565b506001845103611e42576000611da360008661165490919063ffffffff16565b90506000611dbb60008661165490919063ffffffff16565b90508673ffffffffffffffffffffffffffffffffffffffff168873ffffffffffffffffffffffffffffffffffffffff168473ffffffffffffffffffffffffffffffffffffffff167fc3d58168c5ae7397731d063d5bbf3d657854427343f4c083240f7aacaa2d0f628585604051611e3392919061318a565b60405180910390a45050611ec1565b8473ffffffffffffffffffffffffffffffffffffffff168673ffffffffffffffffffffffffffffffffffffffff168273ffffffffffffffffffffffffffffffffffffffff167f4a39dc06d4c0dbc64b70af90fd698a233a518aa5d07e595d983b8c0526c8f7fb8787604051611eb89291906136b9565b60405180910390a45b505050505050565b60008473ffffffffffffffffffffffffffffffffffffffff163b1115612075578373ffffffffffffffffffffffffffffffffffffffff1663f23a6e6187878686866040518663ffffffff1660e01b8152600401611f2a959493929190613745565b6020604051808303816000875af1925050508015611f6657506040513d601f19601f82011682018060405250810190611f6391906137b4565b60015b611fea573d8060008114611f96576040519150601f19603f3d011682016040523d82523d6000602084013e611f9b565b606091505b506000815103611fe257846040517f57f447ce000000000000000000000000000000000000000000000000000000008152600401611fd991906128e4565b60405180910390fd5b805181602001fd5b63f23a6e6160e01b7bffffffffffffffffffffffffffffffffffffffffffffffffffffffff1916817bffffffffffffffffffffffffffffffffffffffffffffffffffffffff19161461207357846040517f57f447ce00000000000000000000000000000000000000000000000000000000815260040161206a91906128e4565b60405180910390fd5b505b505050505050565b60008473ffffffffffffffffffffffffffffffffffffffff163b1115612229578373ffffffffffffffffffffffffffffffffffffffff1663bc197c8187878686866040518663ffffffff1660e01b81526004016120de9594939291906137e1565b6020604051808303816000875af192505050801561211a57506040513d601f19601f8201168201806040525081019061211791906137b4565b60015b61219e573d806000811461214a576040519150601f19603f3d011682016040523d82523d6000602084013e61214f565b606091505b50600081510361219657846040517f57f447ce00000000000000000000000000000000000000000000000000000000815260040161218d91906128e4565b60405180910390fd5b805181602001fd5b63bc197c8160e01b7bffffffffffffffffffffffffffffffffffffffffffffffffffffffff1916817bffffffffffffffffffffffffffffffffffffffffffffffffffffffff19161461222757846040517f57f447ce00000000000000000000000000000000000000000000000000000000815260040161221e91906128e4565b60405180910390fd5b505b505050505050565b6000604051905090565b600080fd5b600080fd5b600073ffffffffffffffffffffffffffffffffffffffff82169050919050565b600061227082612245565b9050919050565b61228081612265565b811461228b57600080fd5b50565b60008135905061229d81612277565b92915050565b6000819050919050565b6122b6816122a3565b81146122c157600080fd5b50565b6000813590506122d3816122ad565b92915050565b600080604083850312156122f0576122ef61223b565b5b60006122fe8582860161228e565b925050602061230f858286016122c4565b9150509250929050565b612322816122a3565b82525050565b600060208201905061233d6000830184612319565b92915050565b60007fffffffff0000000000000000000000000000000000000000000000000000000082169050919050565b61237881612343565b811461238357600080fd5b50565b6000813590506123958161236f565b92915050565b6000602082840312156123b1576123b061223b565b5b60006123bf84828501612386565b91505092915050565b60008115159050919050565b6123dd816123c8565b82525050565b60006020820190506123f860008301846123d4565b92915050565b600081519050919050565b600082825260208201905092915050565b60005b8381101561243857808201518184015260208101905061241d565b60008484015250505050565b6000601f19601f8301169050919050565b6000612460826123fe565b61246a8185612409565b935061247a81856020860161241a565b61248381612444565b840191505092915050565b600060208201905081810360008301526124a88184612455565b905092915050565b600080fd5b600080fd5b7f4e487b7100000000000000000000000000000000000000000000000000000000600052604160045260246000fd5b6124f282612444565b810181811067ffffffffffffffff82111715612511576125106124ba565b5b80604052505050565b6000612524612231565b905061253082826124e9565b919050565b600067ffffffffffffffff8211156125505761254f6124ba565b5b61255982612444565b9050602081019050919050565b82818337600083830152505050565b600061258861258384612535565b61251a565b9050828152602081018484840111156125a4576125a36124b5565b5b6125af848285612566565b509392505050565b600082601f8301126125cc576125cb6124b0565b5b81356125dc848260208601612575565b91505092915050565b6000806000606084860312156125fe576125fd61223b565b5b600084013567ffffffffffffffff81111561261c5761261b612240565b5b612628868287016125b7565b935050602084013567ffffffffffffffff81111561264957612648612240565b5b612655868287016125b7565b92505060406126668682870161228e565b9150509250925092565b6000602082840312156126865761268561223b565b5b6000612694848285016122c4565b91505092915050565b600067ffffffffffffffff8211156126b8576126b76124ba565b5b602082029050602081019050919050565b600080fd5b60006126e16126dc8461269d565b61251a565b90508083825260208201905060208402830185811115612704576127036126c9565b5b835b8181101561272d578061271988826122c4565b845260208401935050602081019050612706565b5050509392505050565b600082601f83011261274c5761274b6124b0565b5b813561275c8482602086016126ce565b91505092915050565b600067ffffffffffffffff8211156127805761277f6124ba565b5b61278982612444565b9050602081019050919050565b60006127a96127a484612765565b61251a565b9050828152602081018484840111156127c5576127c46124b5565b5b6127d0848285612566565b509392505050565b600082601f8301126127ed576127ec6124b0565b5b81356127fd848260208601612796565b91505092915050565b600080600080600060a086880312156128225761282161223b565b5b60006128308882890161228e565b95505060206128418882890161228e565b945050604086013567ffffffffffffffff81111561286257612861612240565b5b61286e88828901612737565b935050606086013567ffffffffffffffff81111561288f5761288e612240565b5b61289b88828901612737565b925050608086013567ffffffffffffffff8111156128bc576128bb612240565b5b6128c8888289016127d8565b9150509295509295909350565b6128de81612265565b82525050565b60006020820190506128f960008301846128d5565b92915050565b600067ffffffffffffffff82111561291a576129196124ba565b5b602082029050602081019050919050565b600061293e612939846128ff565b61251a565b90508083825260208201905060208402830185811115612961576129606126c9565b5b835b8181101561298a5780612976888261228e565b845260208401935050602081019050612963565b5050509392505050565b600082601f8301126129a9576129a86124b0565b5b81356129b984826020860161292b565b91505092915050565b600080604083850312156129d9576129d861223b565b5b600083013567ffffffffffffffff8111156129f7576129f6612240565b5b612a0385828601612994565b925050602083013567ffffffffffffffff811115612a2457612a23612240565b5b612a3085828601612737565b9150509250929050565b600081519050919050565b600082825260208201905092915050565b6000819050602082019050919050565b612a6f816122a3565b82525050565b6000612a818383612a66565b60208301905092915050565b6000602082019050919050565b6000612aa582612a3a565b612aaf8185612a45565b9350612aba83612a56565b8060005b83811015612aeb578151612ad28882612a75565b9750612add83612a8d565b925050600181019050612abe565b5085935050505092915050565b60006020820190508181036000830152612b128184612a9a565b905092915050565b600080600080600080600060e0888a031215612b3957612b3861223b565b5b600088013567ffffffffffffffff811115612b5757612b56612240565b5b612b638a828b016125b7565b9750506020612b748a828b016122c4565b9650506040612b858a828b016122c4565b9550506060612b968a828b016122c4565b9450506080612ba78a828b016122c4565b93505060a0612bb88a828b016122c4565b92505060c0612bc98a828b0161228e565b91505092959891949750929550565b600080600080600080600060e0888a031215612bf757612bf661223b565b5b6000612c058a828b016122c4565b9750506020612c168a828b016122c4565b9650506040612c278a828b016122c4565b9550506060612c388a828b016122c4565b9450506080612c498a828b016122c4565b93505060a0612c5a8a828b016122c4565b92505060c0612c6b8a828b0161228e565b91505092959891949750929550565b60008060008060808587031215612c9457612c9361223b565b5b6000612ca2878288016122c4565b9450506020612cb3878288016122c4565b9350506040612cc4878288016122c4565b9250506060612cd58782880161228e565b91505092959194509250565b612cea816123c8565b8114612cf557600080fd5b50565b600081359050612d0781612ce1565b92915050565b60008060408385031215612d2457612d2361223b565b5b6000612d328582860161228e565b9250506020612d4385828601612cf8565b9150509250929050565b600080600060608486031215612d6657612d6561223b565b5b600084013567ffffffffffffffff811115612d8457612d83612240565b5b612d90868287016125b7565b9350506020612da1868287016122c4565b9250506040612db2868287016122c4565b9150509250925092565b6000819050919050565b6000612de1612ddc612dd784612245565b612dbc565b612245565b9050919050565b6000612df382612dc6565b9050919050565b6000612e0582612de8565b9050919050565b612e1581612dfa565b82525050565b6000602082019050612e306000830184612e0c565b92915050565b60008060408385031215612e4d57612e4c61223b565b5b6000612e5b8582860161228e565b9250506020612e6c8582860161228e565b9150509250929050565b600080600080600060a08688031215612e9257612e9161223b565b5b6000612ea08882890161228e565b9550506020612eb18882890161228e565b9450506040612ec2888289016122c4565b9350506060612ed3888289016122c4565b925050608086013567ffffffffffffffff811115612ef457612ef3612240565b5b612f00888289016127d8565b9150509295509295909350565b7f4e487b7100000000000000000000000000000000000000000000000000000000600052602260045260246000fd5b60006002820490506001821680612f5457607f821691505b602082108103612f6757612f66612f0d565b5b50919050565b7f436f6e747261637420696e7374616e63652068617320616c726561647920626560008201527f696e6720696e697469616c697a65640000000000000000000000000000000000602082015250565b6000612fc9602f83612409565b9150612fd482612f6d565b604082019050919050565b60006020820190508181036000830152612ff881612fbc565b9050919050565b6000819050919050565b600067ffffffffffffffff82169050919050565b600061303861303361302e84612fff565b612dbc565b613009565b9050919050565b6130488161301d565b82525050565b6000602082019050613063600083018461303f565b92915050565b600081905092915050565b60008190508160005260206000209050919050565b6000815461309681612f3c565b6130a08186613069565b945060018216600081146130bb57600181146130d057613103565b60ff1983168652811515820286019350613103565b6130d985613074565b60005b838110156130fb578154818901526001820191506020810190506130dc565b838801955050505b50505092915050565b6000613117826123fe565b6131218185613069565b935061313181856020860161241a565b80840191505092915050565b60006131498285613089565b9150613155828461310c565b91508190509392505050565b600060408201905061317660008301856128d5565b61318360208301846128d5565b9392505050565b600060408201905061319f6000830185612319565b6131ac6020830184612319565b9392505050565b7f4e487b7100000000000000000000000000000000000000000000000000000000600052603260045260246000fd5b7f4e487b7100000000000000000000000000000000000000000000000000000000600052601160045260246000fd5b600061321c826122a3565b91507fffffffffffffffffffffffffffffffffffffffffffffffffffffffffffffffff820361324e5761324d6131e2565b5b600182019050919050565b7f4f6e6c7920746865206f776e6572206f6620746865206d61726b6574706c616360008201527f652063616e2063616c6c20746869732066756e6374696f6e0000000000000000602082015250565b60006132b5603883612409565b91506132c082613259565b604082019050919050565b600060208201905081810360008301526132e4816132a8565b9050919050565b60006132f682612245565b9050919050565b613306816132eb565b82525050565b600060e082019050613321600083018a612319565b61332e6020830189612319565b61333b6040830188612319565b6133486060830187612319565b6133556080830186612319565b61336260a0830185612319565b61336f60c08301846132fd565b98975050505050505050565b600061338682612de8565b9050919050565b6133968161337b565b82525050565b60006080820190506133b16000830187612319565b6133be6020830186612319565b6133cb6040830185612319565b6133d8606083018461338d565b95945050505050565b60006020601f8301049050919050565b600082821b905092915050565b60006008830261342e7fffffffffffffffffffffffffffffffffffffffffffffffffffffffffffffffff826133f1565b61343886836133f1565b95508019841693508086168417925050509392505050565b600061346b613466613461846122a3565b612dbc565b6122a3565b9050919050565b6000819050919050565b61348583613450565b61349961349182613472565b8484546133fe565b825550505050565b600090565b6134ae6134a1565b6134b981848461347c565b505050565b5b818110156134dd576134d26000826134a6565b6001810190506134bf565b5050565b601f821115613522576134f381613074565b6134fc846133e1565b8101602085101561350b578190505b61351f613517856133e1565b8301826134be565b50505b505050565b600082821c905092915050565b600061354560001984600802613527565b1980831691505092915050565b600061355e8383613534565b9150826002028217905092915050565b613577826123fe565b67ffffffffffffffff8111156135905761358f6124ba565b5b61359a8254612f3c565b6135a58282856134e1565b600060209050601f8311600181146135d857600084156135c6578287015190505b6135d08582613552565b865550613638565b601f1984166135e686613074565b60005b8281101561360e578489015182556001820191506020850194506020810190506135e9565b8683101561362b5784890151613627601f891682613534565b8355505b6001600288020188555050505b505050505050565b600060808201905061365560008301876128d5565b6136626020830186612319565b61366f6040830185612319565b61367c6060830184612319565b95945050505050565b6000613690826122a3565b915061369b836122a3565b92508282019050808211156136b3576136b26131e2565b5b92915050565b600060408201905081810360008301526136d38185612a9a565b905081810360208301526136e78184612a9a565b90509392505050565b600081519050919050565b600082825260208201905092915050565b6000613717826136f0565b61372181856136fb565b935061373181856020860161241a565b61373a81612444565b840191505092915050565b600060a08201905061375a60008301886128d5565b61376760208301876128d5565b6137746040830186612319565b6137816060830185612319565b8181036080830152613793818461370c565b90509695505050505050565b6000815190506137ae8161236f565b92915050565b6000602082840312156137ca576137c961223b565b5b60006137d88482850161379f565b91505092915050565b600060a0820190506137f660008301886128d5565b61380360208301876128d5565b81810360408301526138158186612a9a565b905081810360608301526138298185612a9a565b9050818103608083015261383d818461370c565b9050969550505050505056fea2646970667358221220ceedc6ca04a0717f4c0d30208fc6beb7669292f161037618705118352b5df63c64736f6c63430008140033",
  "linkReferences": {},
  "deployedLinkReferences": {}
}