{
  "_format": "hh-sol-artifact-1",
  "contractName": "NFTMarketplaceUpgradable",
  "sourceName": "contracts/NFTMarketplace.sol",
  "abi": [
    {
      "inputs": [],
      "name": "InvalidInitialization",
      "type": "error"
    },
    {
      "inputs": [],
      "name": "NotInitializing",
      "type": "error"
    },
    {
      "anonymous": false,
      "inputs": [
        {
          "indexed": false,
          "internalType": "uint64",
          "name": "version",
          "type": "uint64"
        }
      ],
      "name": "Initialized",
      "type": "event"
    },
    {
      "anonymous": false,
      "inputs": [
        {
          "indexed": true,
          "internalType": "uint256",
          "name": "tokenId",
          "type": "uint256"
        },
        {
          "indexed": false,
          "internalType": "address",
          "name": "smartContract",
          "type": "address"
        },
        {
          "indexed": false,
          "internalType": "address",
          "name": "author",
          "type": "address"
        },
        {
          "indexed": false,
          "internalType": "address",
          "name": "seller",
          "type": "address"
        },
        {
          "indexed": false,
          "internalType": "uint256",
          "name": "price",
          "type": "uint256"
        },
        {
          "indexed": false,
          "internalType": "uint256",
          "name": "royalties",
          "type": "uint256"
        },
        {
          "indexed": false,
          "internalType": "uint256",
          "name": "supply",
          "type": "uint256"
        }
      ],
      "name": "MarketItemCreated",
      "type": "event"
    },
    {
      "anonymous": false,
      "inputs": [
        {
          "indexed": true,
          "internalType": "uint256",
          "name": "tokenId",
          "type": "uint256"
        },
        {
          "indexed": false,
          "internalType": "address",
          "name": "smartContract",
          "type": "address"
        },
        {
          "indexed": false,
          "internalType": "uint256",
          "name": "price",
          "type": "uint256"
        },
        {
          "indexed": false,
          "internalType": "address",
          "name": "seller",
          "type": "address"
        }
      ],
      "name": "MarketItemReCreated",
      "type": "event"
    },
    {
      "anonymous": false,
      "inputs": [
        {
          "indexed": true,
          "internalType": "uint256",
          "name": "tokenId",
          "type": "uint256"
        },
        {
          "indexed": false,
          "internalType": "address",
          "name": "smartContract",
          "type": "address"
        },
        {
          "indexed": false,
          "internalType": "address",
          "name": "seller",
          "type": "address"
        },
        {
          "indexed": false,
          "internalType": "uint256",
          "name": "price",
          "type": "uint256"
        },
        {
          "indexed": false,
          "internalType": "address",
          "name": "owner",
          "type": "address"
        }
      ],
      "name": "MarketItemSold",
      "type": "event"
    },
    {
      "inputs": [
        {
          "internalType": "uint256",
          "name": "tokenId",
          "type": "uint256"
        },
        {
          "internalType": "address",
          "name": "contractAddress",
          "type": "address"
        },
        {
          "internalType": "uint256",
          "name": "price",
          "type": "uint256"
        }
      ],
      "name": "changePrice",
      "outputs": [],
      "stateMutability": "nonpayable",
      "type": "function"
    },
    {
      "inputs": [
        {
          "internalType": "uint256",
          "name": "",
          "type": "uint256"
        }
      ],
      "name": "contractsAllowed",
      "outputs": [
        {
          "internalType": "address",
          "name": "",
          "type": "address"
        }
      ],
      "stateMutability": "view",
      "type": "function"
    },
    {
      "inputs": [
        {
          "internalType": "uint256",
          "name": "tokenId",
          "type": "uint256"
        },
        {
          "internalType": "uint256",
          "name": "price",
          "type": "uint256"
        },
        {
          "internalType": "uint256",
          "name": "royalties",
          "type": "uint256"
        },
        {
          "internalType": "uint256",
          "name": "firstSalesFees",
          "type": "uint256"
        },
        {
          "internalType": "uint256",
          "name": "supply",
          "type": "uint256"
        },
        {
          "internalType": "uint256",
          "name": "amount",
          "type": "uint256"
        },
        {
          "internalType": "address payable",
          "name": "tokenCreator",
          "type": "address"
        }
      ],
      "name": "createMarketItem",
      "outputs": [],
      "stateMutability": "nonpayable",
      "type": "function"
    },
    {
      "inputs": [
        {
          "internalType": "uint256",
          "name": "tokenId",
          "type": "uint256"
        },
        {
          "internalType": "address",
          "name": "contractAddress",
          "type": "address"
        },
        {
          "internalType": "address payable",
          "name": "tokenSeller",
          "type": "address"
        },
        {
          "internalType": "uint80",
          "name": "_roundId",
          "type": "uint80"
        },
        {
          "internalType": "uint256",
          "name": "_startedAt",
          "type": "uint256"
        }
      ],
      "name": "createMarketSaleMatic",
      "outputs": [],
      "stateMutability": "payable",
      "type": "function"
    },
    {
      "inputs": [
        {
          "internalType": "uint256",
          "name": "tokenId",
          "type": "uint256"
        },
        {
          "internalType": "address",
          "name": "contractAddress",
          "type": "address"
        }
      ],
      "name": "delistAllTokens",
      "outputs": [],
      "stateMutability": "nonpayable",
      "type": "function"
    },
    {
      "inputs": [
        {
          "internalType": "uint256",
          "name": "tokenId",
          "type": "uint256"
        },
        {
          "internalType": "address",
          "name": "contractAddress",
          "type": "address"
        },
        {
          "internalType": "uint256",
          "name": "amount",
          "type": "uint256"
        }
      ],
      "name": "delistTokens",
      "outputs": [],
      "stateMutability": "nonpayable",
      "type": "function"
    },
    {
      "inputs": [],
      "name": "getLatestPrice",
      "outputs": [
        {
          "internalType": "uint80",
          "name": "",
          "type": "uint80"
        },
        {
          "internalType": "uint256",
          "name": "",
          "type": "uint256"
        },
        {
          "internalType": "int256",
          "name": "",
          "type": "int256"
        }
      ],
      "stateMutability": "view",
      "type": "function"
    },
    {
      "inputs": [
        {
          "internalType": "uint80",
          "name": "_roundId",
          "type": "uint80"
        },
        {
          "internalType": "uint256",
          "name": "USDprice",
          "type": "uint256"
        }
      ],
      "name": "getLatestPriceGivenRound",
      "outputs": [
        {
          "internalType": "uint256",
          "name": "",
          "type": "uint256"
        }
      ],
      "stateMutability": "view",
      "type": "function"
    },
    {
      "inputs": [
        {
          "internalType": "uint256",
          "name": "tokenId",
          "type": "uint256"
        },
        {
          "internalType": "address",
          "name": "contractAddress",
          "type": "address"
        }
      ],
      "name": "getSellers",
      "outputs": [
        {
          "components": [
            {
              "internalType": "address payable[]",
              "name": "sellers",
              "type": "address[]"
            },
            {
              "internalType": "uint256[]",
              "name": "sellingQuantity",
              "type": "uint256[]"
            },
            {
              "internalType": "uint256[]",
              "name": "sellingPrice",
              "type": "uint256[]"
            }
          ],
          "internalType": "struct NFTMarketplaceUpgradable.TokenSellers",
          "name": "",
          "type": "tuple"
        }
      ],
      "stateMutability": "view",
      "type": "function"
    },
    {
      "inputs": [
        {
          "internalType": "address",
          "name": "smartContract",
          "type": "address"
        }
      ],
      "name": "getTokenIds",
      "outputs": [
        {
          "internalType": "uint256[]",
          "name": "",
          "type": "uint256[]"
        }
      ],
      "stateMutability": "view",
      "type": "function"
    },
    {
      "inputs": [
        {
          "internalType": "address",
          "name": "owner",
          "type": "address"
        },
        {
          "internalType": "address",
          "name": "contractAddress",
          "type": "address"
        }
      ],
      "name": "getTokensCurrentlySelling",
      "outputs": [
        {
          "internalType": "uint256[]",
          "name": "",
          "type": "uint256[]"
        },
        {
          "internalType": "uint256[]",
          "name": "",
          "type": "uint256[]"
        }
      ],
      "stateMutability": "view",
      "type": "function"
    },
    {
      "inputs": [
        {
          "internalType": "uint256",
          "name": "",
          "type": "uint256"
        },
        {
          "internalType": "address",
          "name": "",
          "type": "address"
        }
      ],
      "name": "idToTokenInfo",
      "outputs": [
        {
          "internalType": "uint256",
          "name": "tokenId",
          "type": "uint256"
        },
        {
          "internalType": "address",
          "name": "smartContract",
          "type": "address"
        },
        {
          "internalType": "address payable",
          "name": "author",
          "type": "address"
        },
        {
          "internalType": "uint256",
          "name": "royalties",
          "type": "uint256"
        },
        {
          "internalType": "uint256",
          "name": "firstSalesFees",
          "type": "uint256"
        },
        {
          "internalType": "uint256",
          "name": "supply",
          "type": "uint256"
        },
        {
          "internalType": "string",
          "name": "uri",
          "type": "string"
        },
        {
          "internalType": "uint256",
          "name": "numberOfFirstSells",
          "type": "uint256"
        }
      ],
      "stateMutability": "view",
      "type": "function"
    },
    {
      "inputs": [
        {
          "internalType": "address",
          "name": "_exchangeRateAddress",
          "type": "address"
        }
      ],
      "name": "initialize",
      "outputs": [],
      "stateMutability": "nonpayable",
      "type": "function"
    },
    {
      "inputs": [
        {
          "internalType": "address",
          "name": "",
          "type": "address"
        },
        {
          "internalType": "address",
          "name": "",
          "type": "address"
        },
        {
          "internalType": "uint256[]",
          "name": "",
          "type": "uint256[]"
        },
        {
          "internalType": "uint256[]",
          "name": "",
          "type": "uint256[]"
        },
        {
          "internalType": "bytes",
          "name": "",
          "type": "bytes"
        }
      ],
      "name": "onERC1155BatchReceived",
      "outputs": [
        {
          "internalType": "bytes4",
          "name": "",
          "type": "bytes4"
        }
      ],
      "stateMutability": "nonpayable",
      "type": "function"
    },
    {
      "inputs": [
        {
          "internalType": "address",
          "name": "",
          "type": "address"
        },
        {
          "internalType": "address",
          "name": "",
          "type": "address"
        },
        {
          "internalType": "uint256",
          "name": "",
          "type": "uint256"
        },
        {
          "internalType": "uint256",
          "name": "",
          "type": "uint256"
        },
        {
          "internalType": "bytes",
          "name": "",
          "type": "bytes"
        }
      ],
      "name": "onERC1155Received",
      "outputs": [
        {
          "internalType": "bytes4",
          "name": "",
          "type": "bytes4"
        }
      ],
      "stateMutability": "nonpayable",
      "type": "function"
    },
    {
      "inputs": [
        {
          "internalType": "uint256",
          "name": "tokenId",
          "type": "uint256"
        },
        {
          "internalType": "uint256",
          "name": "amount",
          "type": "uint256"
        },
        {
          "internalType": "uint256",
          "name": "price",
          "type": "uint256"
        },
        {
          "internalType": "address payable",
          "name": "ownerAddress",
          "type": "address"
        }
      ],
      "name": "resellTokens",
      "outputs": [],
      "stateMutability": "nonpayable",
      "type": "function"
    },
    {
      "inputs": [
        {
          "internalType": "address",
          "name": "contracts",
          "type": "address"
        }
      ],
      "name": "storeMintingContracts",
      "outputs": [],
      "stateMutability": "nonpayable",
      "type": "function"
    },
    {
      "inputs": [
        {
          "internalType": "bytes4",
          "name": "interfaceId",
          "type": "bytes4"
        }
      ],
      "name": "supportsInterface",
      "outputs": [
        {
          "internalType": "bool",
          "name": "",
          "type": "bool"
        }
      ],
      "stateMutability": "view",
      "type": "function"
    },
    {
      "inputs": [
        {
          "internalType": "uint256",
          "name": "_SecondarySalesFee",
          "type": "uint256"
        }
      ],
      "name": "updateSecondarySalesFee",
      "outputs": [],
      "stateMutability": "nonpayable",
      "type": "function"
    },
    {
      "inputs": [],
      "name": "withdraw",
      "outputs": [],
      "stateMutability": "payable",
      "type": "function"
    }
  ],
  "bytecode": "0x608060405234801561001057600080fd5b50615443806100206000396000f3fe60806040526004361061011f5760003560e01c8063920717b6116100a0578063d004b03611610064578063d004b036146103e9578063d4e0be6b14610426578063df6333f314610442578063f1a1095714610486578063f23a6e61146104af5761011f565b8063920717b6146102f3578063b7c33d6d1461031c578063bc197c811461035a578063c4d66de814610397578063cfa90532146103c05761011f565b80637e7955fc116100e75780637e7955fc1461020e578063836bcec3146102375780638ba34827146102605780638e15f4731461028957806390177410146102b65761011f565b806301ffc9a71461012457806308c0dcbc14610161578063346da72f1461018a5780633ccfd60b146101c75780635ae903c8146101d1575b600080fd5b34801561013057600080fd5b5061014b60048036038101906101469190613704565b6104ec565b604051610158919061374c565b60405180910390f35b34801561016d57600080fd5b50610188600480360381019061018391906137fb565b610566565b005b34801561019657600080fd5b506101b160048036038101906101ac91906138a4565b610c2f565b6040516101be91906138f3565b60405180910390f35b6101cf610cfe565b005b3480156101dd57600080fd5b506101f860048036038101906101f3919061390e565b610df9565b604051610205919061395c565b60405180910390f35b34801561021a57600080fd5b5061023560048036038101906102309190613977565b610e38565b005b34801561024357600080fd5b5061025e60048036038101906102599190613a45565b611520565b005b34801561026c57600080fd5b5061028760048036038101906102829190613a85565b611692565b005b34801561029557600080fd5b5061029e611788565b6040516102ad93929190613ada565b60405180910390f35b3480156102c257600080fd5b506102dd60048036038101906102d89190613a45565b61183b565b6040516102ea9190613ceb565b60405180910390f35b3480156102ff57600080fd5b5061031a60048036038101906103159190613d0d565b6119e4565b005b34801561032857600080fd5b50610343600480360381019061033e9190613d60565b611be0565b604051610351929190613e0f565b60405180910390f35b34801561036657600080fd5b50610381600480360381019061037c9190614054565b611e91565b60405161038e9190614132565b60405180910390f35b3480156103a357600080fd5b506103be60048036038101906103b99190613a85565b611ea6565b005b3480156103cc57600080fd5b506103e760048036038101906103e29190613d0d565b6120b6565b005b3480156103f557600080fd5b50610410600480360381019061040b9190613a85565b61221d565b60405161041d919061414d565b60405180910390f35b610440600480360381019061043b919061416f565b6122b4565b005b34801561044e57600080fd5b5061046960048036038101906104649190613a45565b612b6d565b60405161047d989796959493929190614278565b60405180910390f35b34801561049257600080fd5b506104ad60048036038101906104a8919061390e565b612c8a565b005b3480156104bb57600080fd5b506104d660048036038101906104d191906142fd565b612d24565b6040516104e39190614132565b60405180910390f35b60007f4e2312e0000000000000000000000000000000000000000000000000000000007bffffffffffffffffffffffffffffffffffffffffffffffffffffffff1916827bffffffffffffffffffffffffffffffffffffffffffffffffffffffff1916148061055f575061055e82612d39565b5b9050919050565b600161057133612da3565b146105b1576040517f08c379a00000000000000000000000000000000000000000000000000000000081526004016105a890614406565b60405180910390fd5b33600260006101000a81548173ffffffffffffffffffffffffffffffffffffffff021916908373ffffffffffffffffffffffffffffffffffffffff16021790555060011515600260009054906101000a900473ffffffffffffffffffffffffffffffffffffffff1673ffffffffffffffffffffffffffffffffffffffff1663e985e9c583306040518363ffffffff1660e01b8152600401610653929190614485565b602060405180830381865afa158015610670573d6000803e3d6000fd5b505050506040513d601f19601f8201168201806040525081019061069491906144da565b1515146106d6576040517f08c379a00000000000000000000000000000000000000000000000000000000081526004016106cd90614579565b60405180910390fd5b60006106e3828633612e70565b90507fffffffffffffffffffffffffffffffffffffffffffffffffffffffffffffffff81036109985783600260009054906101000a900473ffffffffffffffffffffffffffffffffffffffff1673ffffffffffffffffffffffffffffffffffffffff1662fdd58e84886040518363ffffffff1660e01b8152600401610769929190614599565b602060405180830381865afa158015610786573d6000803e3d6000fd5b505050506040513d601f19601f820116820180604052508101906107aa91906145d7565b10156107eb576040517f08c379a00000000000000000000000000000000000000000000000000000000081526004016107e290614650565b60405180910390fd5b6007600086815260200190815260200160002060003373ffffffffffffffffffffffffffffffffffffffff1673ffffffffffffffffffffffffffffffffffffffff168152602001908152602001600020600001829080600181540180825580915050600190039060005260206000200160009091909190916101000a81548173ffffffffffffffffffffffffffffffffffffffff021916908373ffffffffffffffffffffffffffffffffffffffff1602179055506007600086815260200190815260200160002060003373ffffffffffffffffffffffffffffffffffffffff1673ffffffffffffffffffffffffffffffffffffffff1681526020019081526020016000206001018490806001815401808255809150506001900390600052602060002001600090919091909150556007600086815260200190815260200160002060003373ffffffffffffffffffffffffffffffffffffffff1673ffffffffffffffffffffffffffffffffffffffff168152602001908152602001600020600201839080600181540180825580915050600190039060005260206000200160009091909190915055610bec565b6007600086815260200190815260200160002060003373ffffffffffffffffffffffffffffffffffffffff1673ffffffffffffffffffffffffffffffffffffffff16815260200190815260200160002060010181815481106109fd576109fc614670565b5b906000526020600020015484610a1391906146ce565b600260009054906101000a900473ffffffffffffffffffffffffffffffffffffffff1673ffffffffffffffffffffffffffffffffffffffff1662fdd58e84886040518363ffffffff1660e01b8152600401610a6f929190614599565b602060405180830381865afa158015610a8c573d6000803e3d6000fd5b505050506040513d601f19601f82011682018060405250810190610ab091906145d7565b1015610af1576040517f08c379a0000000000000000000000000000000000000000000000000000000008152600401610ae890614650565b60405180910390fd5b836007600087815260200190815260200160002060003373ffffffffffffffffffffffffffffffffffffffff1673ffffffffffffffffffffffffffffffffffffffff1681526020019081526020016000206001018281548110610b5757610b56614670565b5b906000526020600020016000828254610b7091906146ce565b92505081905550826007600087815260200190815260200160002060003373ffffffffffffffffffffffffffffffffffffffff1673ffffffffffffffffffffffffffffffffffffffff1681526020019081526020016000206002018281548110610bdd57610bdc614670565b5b90600052602060002001819055505b847f58c29ca452f3bd1d463f8b1fa3f720d2dce76ebefb1e8923baeb080045c32825338585604051610c2093929190614702565b60405180910390a25050505050565b600080600360009054906101000a900473ffffffffffffffffffffffffffffffffffffffff1673ffffffffffffffffffffffffffffffffffffffff16639a6fc8f5856040518263ffffffff1660e01b8152600401610c8d9190614739565b60a060405180830381865afa158015610caa573d6000803e3d6000fd5b505050506040513d601f19601f82011682018060405250810190610cce9190614795565b50505091505060006305f5e1008285610ce7919061483f565b610cf19190614870565b9050809250505092915050565b600460009054906101000a900473ffffffffffffffffffffffffffffffffffffffff1673ffffffffffffffffffffffffffffffffffffffff163373ffffffffffffffffffffffffffffffffffffffff1614610d8e576040517f08c379a0000000000000000000000000000000000000000000000000000000008152600401610d8590614924565b60405180910390fd5b600460009054906101000a900473ffffffffffffffffffffffffffffffffffffffff1673ffffffffffffffffffffffffffffffffffffffff166108fc479081150290604051600060405180830381858888f19350505050158015610df6573d6000803e3d6000fd5b50565b60058181548110610e0957600080fd5b906000526020600020016000915054906101000a900473ffffffffffffffffffffffffffffffffffffffff1681565b6001610e4333612da3565b14610e83576040517f08c379a0000000000000000000000000000000000000000000000000000000008152600401610e7a90614406565b60405180910390fd5b33600260006101000a81548173ffffffffffffffffffffffffffffffffffffffff021916908373ffffffffffffffffffffffffffffffffffffffff16021790555081600260009054906101000a900473ffffffffffffffffffffffffffffffffffffffff1673ffffffffffffffffffffffffffffffffffffffff1662fdd58e838a6040518363ffffffff1660e01b8152600401610f21929190614599565b602060405180830381865afa158015610f3e573d6000803e3d6000fd5b505050506040513d601f19601f82011682018060405250810190610f6291906145d7565b1015610fa3576040517f08c379a0000000000000000000000000000000000000000000000000000000008152600401610f9a90614650565b60405180910390fd5b60011515600260009054906101000a900473ffffffffffffffffffffffffffffffffffffffff1673ffffffffffffffffffffffffffffffffffffffff1663e985e9c583306040518363ffffffff1660e01b8152600401611004929190614485565b602060405180830381865afa158015611021573d6000803e3d6000fd5b505050506040513d601f19601f8201168201806040525081019061104591906144da565b151514611087576040517f08c379a000000000000000000000000000000000000000000000000000000000815260040161107e906149b6565b60405180910390fd5b6000600260009054906101000a900473ffffffffffffffffffffffffffffffffffffffff1673ffffffffffffffffffffffffffffffffffffffff16630e89341c896040518263ffffffff1660e01b81526004016110e491906138f3565b600060405180830381865afa158015611101573d6000803e3d6000fd5b505050506040513d6000823e3d601f19601f8201168201806040525081019061112a9190614a77565b90506111366000612fe0565b6040518061010001604052808981526020013373ffffffffffffffffffffffffffffffffffffffff1681526020018373ffffffffffffffffffffffffffffffffffffffff1681526020018781526020018681526020018581526020018281526020016000815250600660008a815260200190815260200160002060003373ffffffffffffffffffffffffffffffffffffffff1673ffffffffffffffffffffffffffffffffffffffff1681526020019081526020016000206000820151816000015560208201518160010160006101000a81548173ffffffffffffffffffffffffffffffffffffffff021916908373ffffffffffffffffffffffffffffffffffffffff16021790555060408201518160020160006101000a81548173ffffffffffffffffffffffffffffffffffffffff021916908373ffffffffffffffffffffffffffffffffffffffff160217905550606082015181600301556080820151816004015560a0820151816005015560c08201518160060190816112b89190614cc2565b5060e082015181600701559050506007600089815260200190815260200160002060003373ffffffffffffffffffffffffffffffffffffffff1673ffffffffffffffffffffffffffffffffffffffff168152602001908152602001600020600001829080600181540180825580915050600190039060005260206000200160009091909190916101000a81548173ffffffffffffffffffffffffffffffffffffffff021916908373ffffffffffffffffffffffffffffffffffffffff1602179055506007600089815260200190815260200160002060003373ffffffffffffffffffffffffffffffffffffffff1673ffffffffffffffffffffffffffffffffffffffff1681526020019081526020016000206001018390806001815401808255809150506001900390600052602060002001600090919091909150556007600089815260200190815260200160002060003373ffffffffffffffffffffffffffffffffffffffff1673ffffffffffffffffffffffffffffffffffffffff168152602001908152602001600020600201879080600181540180825580915050600190039060005260206000200160009091909190915055600860003373ffffffffffffffffffffffffffffffffffffffff1673ffffffffffffffffffffffffffffffffffffffff168152602001908152602001600020889080600181540180825580915050600190039060005260206000200160009091909190915055877f087f1650c93355e7561c39b9a67499b066f17536e2b9666a223313902048d5cb3384308b8b8a60405161150e96959493929190614d94565b60405180910390a25050505050505050565b600061152d338484612e70565b90507fffffffffffffffffffffffffffffffffffffffffffffffffffffffffffffffff81141580156115ce575060006007600085815260200190815260200160002060008473ffffffffffffffffffffffffffffffffffffffff1673ffffffffffffffffffffffffffffffffffffffff16815260200190815260200160002060010182815481106115c1576115c0614670565b5b9060005260206000200154115b61160d576040517f08c379a000000000000000000000000000000000000000000000000000000000815260040161160490614e67565b60405180910390fd5b60006007600085815260200190815260200160002060008473ffffffffffffffffffffffffffffffffffffffff1673ffffffffffffffffffffffffffffffffffffffff168152602001908152602001600020600101828154811061167457611673614670565b5b906000526020600020018190555061168d838383612ff6565b505050565b600460009054906101000a900473ffffffffffffffffffffffffffffffffffffffff1673ffffffffffffffffffffffffffffffffffffffff163373ffffffffffffffffffffffffffffffffffffffff1614611722576040517f08c379a000000000000000000000000000000000000000000000000000000000815260040161171990614924565b60405180910390fd5b6005819080600181540180825580915050600190039060005260206000200160009091909190916101000a81548173ffffffffffffffffffffffffffffffffffffffff021916908373ffffffffffffffffffffffffffffffffffffffff16021790555050565b600080600080600080600360009054906101000a900473ffffffffffffffffffffffffffffffffffffffff1673ffffffffffffffffffffffffffffffffffffffff1663feaf968c6040518163ffffffff1660e01b815260040160a060405180830381865afa1580156117fe573d6000803e3d6000fd5b505050506040513d601f19601f820116820180604052508101906118229190614795565b5050925092509250828183955095509550505050909192565b611843613677565b6007600084815260200190815260200160002060008373ffffffffffffffffffffffffffffffffffffffff1673ffffffffffffffffffffffffffffffffffffffff1681526020019081526020016000206040518060600160405290816000820180548060200260200160405190810160405280929190818152602001828054801561192357602002820191906000526020600020905b8160009054906101000a900473ffffffffffffffffffffffffffffffffffffffff1673ffffffffffffffffffffffffffffffffffffffff16815260200190600101908083116118d9575b505050505081526020016001820180548060200260200160405190810160405280929190818152602001828054801561197b57602002820191906000526020600020905b815481526020019060010190808311611967575b50505050508152602001600282018054806020026020016040519081016040528092919081815260200182805480156119d357602002820191906000526020600020905b8154815260200190600101908083116119bf575b505050505081525050905092915050565b60006119f1338585612e70565b90507fffffffffffffffffffffffffffffffffffffffffffffffffffffffffffffffff8114158015611a925750816007600086815260200190815260200160002060008573ffffffffffffffffffffffffffffffffffffffff1673ffffffffffffffffffffffffffffffffffffffff1681526020019081526020016000206001018281548110611a8457611a83614670565b5b906000526020600020015410155b611ad1576040517f08c379a0000000000000000000000000000000000000000000000000000000008152600401611ac890614ef9565b60405180910390fd5b816007600086815260200190815260200160002060008573ffffffffffffffffffffffffffffffffffffffff1673ffffffffffffffffffffffffffffffffffffffff1681526020019081526020016000206001018281548110611b3757611b36614670565b5b906000526020600020016000828254611b509190614f19565b9250508190555060006007600086815260200190815260200160002060008573ffffffffffffffffffffffffffffffffffffffff1673ffffffffffffffffffffffffffffffffffffffff1681526020019081526020016000206001018281548110611bbe57611bbd614670565b5b906000526020600020015403611bda57611bd9848483612ff6565b5b50505050565b6060806000600860008573ffffffffffffffffffffffffffffffffffffffff1673ffffffffffffffffffffffffffffffffffffffff1681526020019081526020016000208054905090506000600860008673ffffffffffffffffffffffffffffffffffffffff1673ffffffffffffffffffffffffffffffffffffffff168152602001908152602001600020600183611c789190614f19565b81548110611c8957611c88614670565b5b9060005260206000200154905060008167ffffffffffffffff811115611cb257611cb1613e5c565b5b604051908082528060200260200182016040528015611ce05781602001602082028036833780820191505090505b50905060008267ffffffffffffffff811115611cff57611cfe613e5c565b5b604051908082528060200260200182016040528015611d2d5781602001602082028036833780820191505090505b50905060005b83811015611e7f57600181611d4891906146ce565b838281518110611d5b57611d5a614670565b5b6020026020010181815250506000611d808a600184611d7a91906146ce565b8b612e70565b90507fffffffffffffffffffffffffffffffffffffffffffffffffffffffffffffffff8114611e495760076000600184611dba91906146ce565b815260200190815260200160002060008a73ffffffffffffffffffffffffffffffffffffffff1673ffffffffffffffffffffffffffffffffffffffff1681526020019081526020016000206001018181548110611e1a57611e19614670565b5b9060005260206000200154838381518110611e3857611e37614670565b5b602002602001018181525050611e6b565b6000838381518110611e5e57611e5d614670565b5b6020026020010181815250505b508080611e7790614f4d565b915050611d33565b50818195509550505050509250929050565b600063bc197c8160e01b905095945050505050565b6000611eb0613530565b905060008160000160089054906101000a900460ff1615905060008260000160009054906101000a900467ffffffffffffffff1690506000808267ffffffffffffffff16148015611efe5750825b9050600060018367ffffffffffffffff16148015611f33575060003073ffffffffffffffffffffffffffffffffffffffff163b145b905081158015611f41575080155b15611f78576040517ff92ee8a900000000000000000000000000000000000000000000000000000000815260040160405180910390fd5b60018560000160006101000a81548167ffffffffffffffff021916908367ffffffffffffffff1602179055508315611fc85760018560000160086101000a81548160ff0219169083151502179055505b85600360006101000a81548173ffffffffffffffffffffffffffffffffffffffff021916908373ffffffffffffffffffffffffffffffffffffffff16021790555033600460006101000a81548173ffffffffffffffffffffffffffffffffffffffff021916908373ffffffffffffffffffffffffffffffffffffffff160217905550600060018190555083156120ae5760008560000160086101000a81548160ff0219169083151502179055507fc7f505b2f371ae2175ee4913f4499e1f2633a7b5936321eed1cdaeb6115181d260016040516120a59190614fe4565b60405180910390a15b505050505050565b60006120c3338585612e70565b90507fffffffffffffffffffffffffffffffffffffffffffffffffffffffffffffffff8114158015612164575060006007600086815260200190815260200160002060008573ffffffffffffffffffffffffffffffffffffffff1673ffffffffffffffffffffffffffffffffffffffff168152602001908152602001600020600101828154811061215757612156614670565b5b9060005260206000200154115b6121a3576040517f08c379a000000000000000000000000000000000000000000000000000000000815260040161219a90615071565b60405180910390fd5b816007600086815260200190815260200160002060008573ffffffffffffffffffffffffffffffffffffffff1673ffffffffffffffffffffffffffffffffffffffff168152602001908152602001600020600201828154811061220957612208614670565b5b906000526020600020018190555050505050565b6060600860008373ffffffffffffffffffffffffffffffffffffffff1673ffffffffffffffffffffffffffffffffffffffff1681526020019081526020016000208054806020026020016040519081016040528092919081815260200182805480156122a857602002820191906000526020600020905b815481526020019060010190808311612294575b50505050509050919050565b60006122c1848787612e70565b90507fffffffffffffffffffffffffffffffffffffffffffffffffffffffffffffffff8114158015612362575060006007600088815260200190815260200160002060008773ffffffffffffffffffffffffffffffffffffffff1673ffffffffffffffffffffffffffffffffffffffff168152602001908152602001600020600101828154811061235557612354614670565b5b9060005260206000200154115b6123a1576040517f08c379a000000000000000000000000000000000000000000000000000000000815260040161239890615103565b60405180910390fd5b84600260006101000a81548173ffffffffffffffffffffffffffffffffffffffff021916908373ffffffffffffffffffffffffffffffffffffffff1602179055506000600260009054906101000a900473ffffffffffffffffffffffffffffffffffffffff1673ffffffffffffffffffffffffffffffffffffffff1662fdd58e86896040518363ffffffff1660e01b8152600401612440929190614599565b602060405180830381865afa15801561245d573d6000803e3d6000fd5b505050506040513d601f19601f8201168201806040525081019061248191906145d7565b0361257257612491868683612ff6565b6001600260009054906101000a900473ffffffffffffffffffffffffffffffffffffffff1673ffffffffffffffffffffffffffffffffffffffff1662fdd58e86896040518363ffffffff1660e01b81526004016124ef929190614599565b602060405180830381865afa15801561250c573d6000803e3d6000fd5b505050506040513d601f19601f8201168201806040525081019061253091906145d7565b1015612571576040517f08c379a000000000000000000000000000000000000000000000000000000000815260040161256890615195565b60405180910390fd5b5b60004290506101f483826125869190614f19565b106125c6576040517f08c379a00000000000000000000000000000000000000000000000000000000081526004016125bd90615227565b60405180910390fd5b600061264185600760008b815260200190815260200160002060008a73ffffffffffffffffffffffffffffffffffffffff1673ffffffffffffffffffffffffffffffffffffffff168152602001908152602001600020600201858154811061263157612630614670565b5b9060005260206000200154610c2f565b9050803414612685576040517f08c379a000000000000000000000000000000000000000000000000000000000815260040161267c906152b9565b60405180910390fd5b600260009054906101000a900473ffffffffffffffffffffffffffffffffffffffff1673ffffffffffffffffffffffffffffffffffffffff1663f242432a87338b60016040518563ffffffff1660e01b81526004016126e79493929190615341565b600060405180830381600087803b15801561270157600080fd5b505af1158015612715573d6000803e3d6000fd5b50505050612724888888613558565b6000600660008a815260200190815260200160002060008973ffffffffffffffffffffffffffffffffffffffff1673ffffffffffffffffffffffffffffffffffffffff1681526020019081526020016000206003015490506000600660008b815260200190815260200160002060008a73ffffffffffffffffffffffffffffffffffffffff1673ffffffffffffffffffffffffffffffffffffffff1681526020019081526020016000206004015490506000826001546127e491906146ce565b90506000600660008d815260200190815260200160002060008c73ffffffffffffffffffffffffffffffffffffffff1673ffffffffffffffffffffffffffffffffffffffff16815260200190815260200160002060020160009054906101000a900473ffffffffffffffffffffffffffffffffffffffff16905060008a90508073ffffffffffffffffffffffffffffffffffffffff168273ffffffffffffffffffffffffffffffffffffffff1614158061297a5750600660008e815260200190815260200160002060008d73ffffffffffffffffffffffffffffffffffffffff1673ffffffffffffffffffffffffffffffffffffffff16815260200190815260200160002060050154600660008f815260200190815260200160002060008e73ffffffffffffffffffffffffffffffffffffffff1673ffffffffffffffffffffffffffffffffffffffff1681526020019081526020016000206007015414801561297957508073ffffffffffffffffffffffffffffffffffffffff168273ffffffffffffffffffffffffffffffffffffffff16145b5b15612a4b578073ffffffffffffffffffffffffffffffffffffffff166108fc606485346129a79190614870565b6129b1919061483f565b346129bc9190614f19565b9081150290604051600060405180830381858888f193505050501580156129e7573d6000803e3d6000fd5b508173ffffffffffffffffffffffffffffffffffffffff166108fc60648734612a109190614870565b612a1a919061483f565b9081150290604051600060405180830381858888f19350505050158015612a45573d6000803e3d6000fd5b50612b20565b8073ffffffffffffffffffffffffffffffffffffffff166108fc60648634612a739190614870565b612a7d919061483f565b34612a889190614f19565b9081150290604051600060405180830381858888f19350505050158015612ab3573d6000803e3d6000fd5b506001600660008f815260200190815260200160002060008e73ffffffffffffffffffffffffffffffffffffffff1673ffffffffffffffffffffffffffffffffffffffff1681526020019081526020016000206007016000828254612b1891906146ce565b925050819055505b8c7f321cdc30d9ab4c4ce5dd631337675b9d67f16a6ec4cc3fa2ae1de1464d2495c18d8d8933604051612b569493929190615399565b60405180910390a250505050505050505050505050565b6006602052816000526040600020602052806000526040600020600091509150508060000154908060010160009054906101000a900473ffffffffffffffffffffffffffffffffffffffff16908060020160009054906101000a900473ffffffffffffffffffffffffffffffffffffffff1690806003015490806004015490806005015490806006018054612c0190614aef565b80601f0160208091040260200160405190810160405280929190818152602001828054612c2d90614aef565b8015612c7a5780601f10612c4f57610100808354040283529160200191612c7a565b820191906000526020600020905b815481529060010190602001808311612c5d57829003601f168201915b5050505050908060070154905088565b600460009054906101000a900473ffffffffffffffffffffffffffffffffffffffff1673ffffffffffffffffffffffffffffffffffffffff163373ffffffffffffffffffffffffffffffffffffffff1614612d1a576040517f08c379a0000000000000000000000000000000000000000000000000000000008152600401612d1190614924565b60405180910390fd5b8060018190555050565b600063f23a6e6160e01b905095945050505050565b60007f01ffc9a7000000000000000000000000000000000000000000000000000000007bffffffffffffffffffffffffffffffffffffffffffffffffffffffff1916827bffffffffffffffffffffffffffffffffffffffffffffffffffffffff1916149050919050565b600080600090505b600580549050811015612e46578273ffffffffffffffffffffffffffffffffffffffff1660058281548110612de357612de2614670565b5b9060005260206000200160009054906101000a900473ffffffffffffffffffffffffffffffffffffffff1673ffffffffffffffffffffffffffffffffffffffff1603612e33576001915050612e6b565b8080612e3e90614f4d565b915050612dab565b507fffffffffffffffffffffffffffffffffffffffffffffffffffffffffffffffff90505b919050565b600080600090505b6007600085815260200190815260200160002060008473ffffffffffffffffffffffffffffffffffffffff1673ffffffffffffffffffffffffffffffffffffffff16815260200190815260200160002060000180549050811015612fb4578473ffffffffffffffffffffffffffffffffffffffff166007600086815260200190815260200160002060008573ffffffffffffffffffffffffffffffffffffffff1673ffffffffffffffffffffffffffffffffffffffff1681526020019081526020016000206000018281548110612f5257612f51614670565b5b9060005260206000200160009054906101000a900473ffffffffffffffffffffffffffffffffffffffff1673ffffffffffffffffffffffffffffffffffffffff1603612fa15780915050612fd9565b8080612fac90614f4d565b915050612e78565b507fffffffffffffffffffffffffffffffffffffffffffffffffffffffffffffffff90505b9392505050565b6001816000016000828254019250508190555050565b60008190505b60016007600086815260200190815260200160002060008573ffffffffffffffffffffffffffffffffffffffff1673ffffffffffffffffffffffffffffffffffffffff1681526020019081526020016000206000018054905061305f9190614f19565b8110156133a0576007600085815260200190815260200160002060008473ffffffffffffffffffffffffffffffffffffffff1673ffffffffffffffffffffffffffffffffffffffff1681526020019081526020016000206000016001826130c691906146ce565b815481106130d7576130d6614670565b5b9060005260206000200160009054906101000a900473ffffffffffffffffffffffffffffffffffffffff166007600086815260200190815260200160002060008573ffffffffffffffffffffffffffffffffffffffff1673ffffffffffffffffffffffffffffffffffffffff168152602001908152602001600020600001828154811061316757613166614670565b5b9060005260206000200160006101000a81548173ffffffffffffffffffffffffffffffffffffffff021916908373ffffffffffffffffffffffffffffffffffffffff1602179055506007600085815260200190815260200160002060008473ffffffffffffffffffffffffffffffffffffffff1673ffffffffffffffffffffffffffffffffffffffff16815260200190815260200160002060010160018261320f91906146ce565b815481106132205761321f614670565b5b90600052602060002001546007600086815260200190815260200160002060008573ffffffffffffffffffffffffffffffffffffffff1673ffffffffffffffffffffffffffffffffffffffff16815260200190815260200160002060010182815481106132905761328f614670565b5b90600052602060002001819055506007600085815260200190815260200160002060008473ffffffffffffffffffffffffffffffffffffffff1673ffffffffffffffffffffffffffffffffffffffff1681526020019081526020016000206002016001826132fe91906146ce565b8154811061330f5761330e614670565b5b90600052602060002001546007600086815260200190815260200160002060008573ffffffffffffffffffffffffffffffffffffffff1673ffffffffffffffffffffffffffffffffffffffff168152602001908152602001600020600201828154811061337f5761337e614670565b5b9060005260206000200181905550808061339890614f4d565b915050612ffc565b506007600084815260200190815260200160002060008373ffffffffffffffffffffffffffffffffffffffff1673ffffffffffffffffffffffffffffffffffffffff168152602001908152602001600020600001805480613404576134036153de565b5b6001900381819060005260206000200160006101000a81549073ffffffffffffffffffffffffffffffffffffffff021916905590556007600084815260200190815260200160002060008373ffffffffffffffffffffffffffffffffffffffff1673ffffffffffffffffffffffffffffffffffffffff16815260200190815260200160002060010180548061349c5761349b6153de565b5b600190038181906000526020600020016000905590556007600084815260200190815260200160002060008373ffffffffffffffffffffffffffffffffffffffff1673ffffffffffffffffffffffffffffffffffffffff168152602001908152602001600020600201805480613515576135146153de565b5b60019003818190600052602060002001600090559055505050565b60007ff0c57e16840df040f15088dc2f81fe391c3923bec73e23a9662efc9c229c6a00905090565b6000613565828585612e70565b905060016007600086815260200190815260200160002060008573ffffffffffffffffffffffffffffffffffffffff1673ffffffffffffffffffffffffffffffffffffffff16815260200190815260200160002060010182815481106135ce576135cd614670565b5b9060005260206000200160008282546135e79190614f19565b9250508190555060006007600086815260200190815260200160002060008573ffffffffffffffffffffffffffffffffffffffff1673ffffffffffffffffffffffffffffffffffffffff168152602001908152602001600020600101828154811061365557613654614670565b5b90600052602060002001540361367157613670848483612ff6565b5b50505050565b60405180606001604052806060815260200160608152602001606081525090565b6000604051905090565b600080fd5b600080fd5b60007fffffffff0000000000000000000000000000000000000000000000000000000082169050919050565b6136e1816136ac565b81146136ec57600080fd5b50565b6000813590506136fe816136d8565b92915050565b60006020828403121561371a576137196136a2565b5b6000613728848285016136ef565b91505092915050565b60008115159050919050565b61374681613731565b82525050565b6000602082019050613761600083018461373d565b92915050565b6000819050919050565b61377a81613767565b811461378557600080fd5b50565b60008135905061379781613771565b92915050565b600073ffffffffffffffffffffffffffffffffffffffff82169050919050565b60006137c88261379d565b9050919050565b6137d8816137bd565b81146137e357600080fd5b50565b6000813590506137f5816137cf565b92915050565b60008060008060808587031215613815576138146136a2565b5b600061382387828801613788565b945050602061383487828801613788565b935050604061384587828801613788565b9250506060613856878288016137e6565b91505092959194509250565b600069ffffffffffffffffffff82169050919050565b61388181613862565b811461388c57600080fd5b50565b60008135905061389e81613878565b92915050565b600080604083850312156138bb576138ba6136a2565b5b60006138c98582860161388f565b92505060206138da85828601613788565b9150509250929050565b6138ed81613767565b82525050565b600060208201905061390860008301846138e4565b92915050565b600060208284031215613924576139236136a2565b5b600061393284828501613788565b91505092915050565b60006139468261379d565b9050919050565b6139568161393b565b82525050565b6000602082019050613971600083018461394d565b92915050565b600080600080600080600060e0888a031215613996576139956136a2565b5b60006139a48a828b01613788565b97505060206139b58a828b01613788565b96505060406139c68a828b01613788565b95505060606139d78a828b01613788565b94505060806139e88a828b01613788565b93505060a06139f98a828b01613788565b92505060c0613a0a8a828b016137e6565b91505092959891949750929550565b613a228161393b565b8114613a2d57600080fd5b50565b600081359050613a3f81613a19565b92915050565b60008060408385031215613a5c57613a5b6136a2565b5b6000613a6a85828601613788565b9250506020613a7b85828601613a30565b9150509250929050565b600060208284031215613a9b57613a9a6136a2565b5b6000613aa984828501613a30565b91505092915050565b613abb81613862565b82525050565b6000819050919050565b613ad481613ac1565b82525050565b6000606082019050613aef6000830186613ab2565b613afc60208301856138e4565b613b096040830184613acb565b949350505050565b600081519050919050565b600082825260208201905092915050565b6000819050602082019050919050565b613b46816137bd565b82525050565b6000613b588383613b3d565b60208301905092915050565b6000602082019050919050565b6000613b7c82613b11565b613b868185613b1c565b9350613b9183613b2d565b8060005b83811015613bc2578151613ba98882613b4c565b9750613bb483613b64565b925050600181019050613b95565b5085935050505092915050565b600081519050919050565b600082825260208201905092915050565b6000819050602082019050919050565b613c0481613767565b82525050565b6000613c168383613bfb565b60208301905092915050565b6000602082019050919050565b6000613c3a82613bcf565b613c448185613bda565b9350613c4f83613beb565b8060005b83811015613c80578151613c678882613c0a565b9750613c7283613c22565b925050600181019050613c53565b5085935050505092915050565b60006060830160008301518482036000860152613caa8282613b71565b91505060208301518482036020860152613cc48282613c2f565b91505060408301518482036040860152613cde8282613c2f565b9150508091505092915050565b60006020820190508181036000830152613d058184613c8d565b905092915050565b600080600060608486031215613d2657613d256136a2565b5b6000613d3486828701613788565b9350506020613d4586828701613a30565b9250506040613d5686828701613788565b9150509250925092565b60008060408385031215613d7757613d766136a2565b5b6000613d8585828601613a30565b9250506020613d9685828601613a30565b9150509250929050565b600082825260208201905092915050565b6000613dbc82613bcf565b613dc68185613da0565b9350613dd183613beb565b8060005b83811015613e02578151613de98882613c0a565b9750613df483613c22565b925050600181019050613dd5565b5085935050505092915050565b60006040820190508181036000830152613e298185613db1565b90508181036020830152613e3d8184613db1565b90509392505050565b600080fd5b6000601f19601f8301169050919050565b7f4e487b7100000000000000000000000000000000000000000000000000000000600052604160045260246000fd5b613e9482613e4b565b810181811067ffffffffffffffff82111715613eb357613eb2613e5c565b5b80604052505050565b6000613ec6613698565b9050613ed28282613e8b565b919050565b600067ffffffffffffffff821115613ef257613ef1613e5c565b5b602082029050602081019050919050565b600080fd5b6000613f1b613f1684613ed7565b613ebc565b90508083825260208201905060208402830185811115613f3e57613f3d613f03565b5b835b81811015613f675780613f538882613788565b845260208401935050602081019050613f40565b5050509392505050565b600082601f830112613f8657613f85613e46565b5b8135613f96848260208601613f08565b91505092915050565b600080fd5b600067ffffffffffffffff821115613fbf57613fbe613e5c565b5b613fc882613e4b565b9050602081019050919050565b82818337600083830152505050565b6000613ff7613ff284613fa4565b613ebc565b90508281526020810184848401111561401357614012613f9f565b5b61401e848285613fd5565b509392505050565b600082601f83011261403b5761403a613e46565b5b813561404b848260208601613fe4565b91505092915050565b600080600080600060a086880312156140705761406f6136a2565b5b600061407e88828901613a30565b955050602061408f88828901613a30565b945050604086013567ffffffffffffffff8111156140b0576140af6136a7565b5b6140bc88828901613f71565b935050606086013567ffffffffffffffff8111156140dd576140dc6136a7565b5b6140e988828901613f71565b925050608086013567ffffffffffffffff81111561410a576141096136a7565b5b61411688828901614026565b9150509295509295909350565b61412c816136ac565b82525050565b60006020820190506141476000830184614123565b92915050565b600060208201905081810360008301526141678184613db1565b905092915050565b600080600080600060a0868803121561418b5761418a6136a2565b5b600061419988828901613788565b95505060206141aa88828901613a30565b94505060406141bb888289016137e6565b93505060606141cc8882890161388f565b92505060806141dd88828901613788565b9150509295509295909350565b6141f3816137bd565b82525050565b600081519050919050565b600082825260208201905092915050565b60005b83811015614233578082015181840152602081019050614218565b60008484015250505050565b600061424a826141f9565b6142548185614204565b9350614264818560208601614215565b61426d81613e4b565b840191505092915050565b60006101008201905061428e600083018b6138e4565b61429b602083018a61394d565b6142a860408301896141ea565b6142b560608301886138e4565b6142c260808301876138e4565b6142cf60a08301866138e4565b81810360c08301526142e1818561423f565b90506142f060e08301846138e4565b9998505050505050505050565b600080600080600060a08688031215614319576143186136a2565b5b600061432788828901613a30565b955050602061433888828901613a30565b945050604061434988828901613788565b935050606061435a88828901613788565b925050608086013567ffffffffffffffff81111561437b5761437a6136a7565b5b61438788828901614026565b9150509295509295909350565b7f4f6e6c7920616c6c6f77656420636f6e7472616374732063616e2063616c6c2060008201527f746869732066756e6374696f6e00000000000000000000000000000000000000602082015250565b60006143f0602d83614204565b91506143fb82614394565b604082019050919050565b6000602082019050818103600083015261441f816143e3565b9050919050565b6000819050919050565b600061444b6144466144418461379d565b614426565b61379d565b9050919050565b600061445d82614430565b9050919050565b600061446f82614452565b9050919050565b61447f81614464565b82525050565b600060408201905061449a6000830185614476565b6144a7602083018461394d565b9392505050565b6144b781613731565b81146144c257600080fd5b50565b6000815190506144d4816144ae565b92915050565b6000602082840312156144f0576144ef6136a2565b5b60006144fe848285016144c5565b91505092915050565b7f54686520636f6e7472616374206973206e6f7420617070726f76656420666f7260008201527f207472616e7366657272696e6720746f6b656e73000000000000000000000000602082015250565b6000614563603483614204565b915061456e82614507565b604082019050919050565b6000602082019050818103600083015261459281614556565b9050919050565b60006040820190506145ae6000830185614476565b6145bb60208301846138e4565b9392505050565b6000815190506145d181613771565b92915050565b6000602082840312156145ed576145ec6136a2565b5b60006145fb848285016145c2565b91505092915050565b7f596f7520646f206e6f74206f776e20656e6f75676820746f6b656e7300000000600082015250565b600061463a601c83614204565b915061464582614604565b602082019050919050565b600060208201905081810360008301526146698161462d565b9050919050565b7f4e487b7100000000000000000000000000000000000000000000000000000000600052603260045260246000fd5b7f4e487b7100000000000000000000000000000000000000000000000000000000600052601160045260246000fd5b60006146d982613767565b91506146e483613767565b92508282019050808211156146fc576146fb61469f565b5b92915050565b6000606082019050614717600083018661394d565b61472460208301856138e4565b6147316040830184614476565b949350505050565b600060208201905061474e6000830184613ab2565b92915050565b60008151905061476381613878565b92915050565b61477281613ac1565b811461477d57600080fd5b50565b60008151905061478f81614769565b92915050565b600080600080600060a086880312156147b1576147b06136a2565b5b60006147bf88828901614754565b95505060206147d088828901614780565b94505060406147e1888289016145c2565b93505060606147f2888289016145c2565b925050608061480388828901614754565b9150509295509295909350565b7f4e487b7100000000000000000000000000000000000000000000000000000000600052601260045260246000fd5b600061484a82613767565b915061485583613767565b92508261486557614864614810565b5b828204905092915050565b600061487b82613767565b915061488683613767565b925082820261489481613767565b915082820484148315176148ab576148aa61469f565b5b5092915050565b7f4f6e6c7920746865206f776e6572206f6620746865206d61726b6574706c616360008201527f652063616e2063616c6c20746869732066756e6374696f6e0000000000000000602082015250565b600061490e603883614204565b9150614919826148b2565b604082019050919050565b6000602082019050818103600083015261493d81614901565b9050919050565b7f54686520636f6e7472616374206973206e6f7420617070726f76656420666f7260008201527f20667574757265207472616e7366657273206f6620746f6b656e730000000000602082015250565b60006149a0603b83614204565b91506149ab82614944565b604082019050919050565b600060208201905081810360008301526149cf81614993565b9050919050565b600067ffffffffffffffff8211156149f1576149f0613e5c565b5b6149fa82613e4b565b9050602081019050919050565b6000614a1a614a15846149d6565b613ebc565b905082815260208101848484011115614a3657614a35613f9f565b5b614a41848285614215565b509392505050565b600082601f830112614a5e57614a5d613e46565b5b8151614a6e848260208601614a07565b91505092915050565b600060208284031215614a8d57614a8c6136a2565b5b600082015167ffffffffffffffff811115614aab57614aaa6136a7565b5b614ab784828501614a49565b91505092915050565b7f4e487b7100000000000000000000000000000000000000000000000000000000600052602260045260246000fd5b60006002820490506001821680614b0757607f821691505b602082108103614b1a57614b19614ac0565b5b50919050565b60008190508160005260206000209050919050565b60006020601f8301049050919050565b600082821b905092915050565b600060088302614b827fffffffffffffffffffffffffffffffffffffffffffffffffffffffffffffffff82614b45565b614b8c8683614b45565b95508019841693508086168417925050509392505050565b6000614bbf614bba614bb584613767565b614426565b613767565b9050919050565b6000819050919050565b614bd983614ba4565b614bed614be582614bc6565b848454614b52565b825550505050565b600090565b614c02614bf5565b614c0d818484614bd0565b505050565b5b81811015614c3157614c26600082614bfa565b600181019050614c13565b5050565b601f821115614c7657614c4781614b20565b614c5084614b35565b81016020851015614c5f578190505b614c73614c6b85614b35565b830182614c12565b50505b505050565b600082821c905092915050565b6000614c9960001984600802614c7b565b1980831691505092915050565b6000614cb28383614c88565b9150826002028217905092915050565b614ccb826141f9565b67ffffffffffffffff811115614ce457614ce3613e5c565b5b614cee8254614aef565b614cf9828285614c35565b600060209050601f831160018114614d2c5760008415614d1a578287015190505b614d248582614ca6565b865550614d8c565b601f198416614d3a86614b20565b60005b82811015614d6257848901518255600182019150602085019450602081019050614d3d565b86831015614d7f5784890151614d7b601f891682614c88565b8355505b6001600288020188555050505b505050505050565b600060c082019050614da9600083018961394d565b614db66020830188614476565b614dc3604083018761394d565b614dd060608301866138e4565b614ddd60808301856138e4565b614dea60a08301846138e4565b979650505050505050565b7f546f2064656c69737420746f6b656e732c20796f75206d75737420686176652060008201527f6c6973746564206f6e6500000000000000000000000000000000000000000000602082015250565b6000614e51602a83614204565b9150614e5c82614df5565b604082019050919050565b60006020820190508181036000830152614e8081614e44565b9050919050565b7f546f2064656c697374206120746f6b656e2c20796f75206d757374206861766560008201527f206c6973746564206f6e65000000000000000000000000000000000000000000602082015250565b6000614ee3602b83614204565b9150614eee82614e87565b604082019050919050565b60006020820190508181036000830152614f1281614ed6565b9050919050565b6000614f2482613767565b9150614f2f83613767565b9250828203905081811115614f4757614f4661469f565b5b92915050565b6000614f5882613767565b91507fffffffffffffffffffffffffffffffffffffffffffffffffffffffffffffffff8203614f8a57614f8961469f565b5b600182019050919050565b6000819050919050565b600067ffffffffffffffff82169050919050565b6000614fce614fc9614fc484614f95565b614426565b614f9f565b9050919050565b614fde81614fb3565b82525050565b6000602082019050614ff96000830184614fd5565b92915050565b7f546f206368616e67652074686520746f6b656e27732070726963652c20796f7560008201527f206d7573742068617665206c6973746564206f6e650000000000000000000000602082015250565b600061505b603583614204565b915061506682614fff565b604082019050919050565b6000602082019050818103600083015261508a8161504e565b9050919050565b7f546f206275792074686520746f6b656e2c20746865206f776e6572206d75737460008201527f2068617665206c6973746564206f6e6500000000000000000000000000000000602082015250565b60006150ed603083614204565b91506150f882615091565b604082019050919050565b6000602082019050818103600083015261511c816150e0565b9050919050565b7f5468652073656c6c6572206f662074686520746f6b656e2068617320616c726560008201527f616479207472616e736665727265642074686520746f6b656e00000000000000602082015250565b600061517f603983614204565b915061518a82615123565b604082019050919050565b600060208201905081810360008301526151ae81615172565b9050919050565b7f596f7572207472616e73616374696f6e206861732074616b656e20746f6f206c60008201527f6f6e672e20506c656173652074727920616761696e0000000000000000000000602082015250565b6000615211603583614204565b915061521c826151b5565b604082019050919050565b6000602082019050818103600083015261524081615204565b9050919050565b7f506c65617365207375626d6974207468652061736b696e67207072696365206960008201527f6e206f7264657220746f20636f6d706c65746520746865207075726368617365602082015250565b60006152a3604083614204565b91506152ae82615247565b604082019050919050565b600060208201905081810360008301526152d281615296565b9050919050565b60006152f46152ef6152ea84614f95565b614426565b613767565b9050919050565b615304816152d9565b82525050565b600082825260208201905092915050565b50565b600061532b60008361530a565b91506153368261531b565b600082019050919050565b600060a0820190506153566000830187614476565b615363602083018661394d565b61537060408301856138e4565b61537d60608301846152fb565b818103608083015261538e8161531e565b905095945050505050565b60006080820190506153ae600083018761394d565b6153bb6020830186614476565b6153c860408301856138e4565b6153d5606083018461394d565b95945050505050565b7f4e487b7100000000000000000000000000000000000000000000000000000000600052603160045260246000fdfea2646970667358221220d3ae8aea67dcc5acb326fa44e69f306ed49db0fac961b046fbe3faacf0621b0664736f6c63430008140033",
  "linkReferences": {},
  "deployedLinkReferences": {}
}