{
  "_format": "hh-sol-artifact-1",
  "contractName": "NFTMarketplaceUpgradableV2",
  "sourceName": "contracts/NFTMarketplaceV2.sol",
  "abi": [
    {
      "inputs": [],
      "name": "InvalidInitialization",
      "type": "error"
    },
    {
      "inputs": [],
      "name": "NotInitializing",
      "type": "error"
    },
    {
      "anonymous": false,
      "inputs": [
        {
          "indexed": false,
          "internalType": "uint64",
          "name": "version",
          "type": "uint64"
        }
      ],
      "name": "Initialized",
      "type": "event"
    },
    {
      "anonymous": false,
      "inputs": [
        {
          "indexed": true,
          "internalType": "uint256",
          "name": "tokenId",
          "type": "uint256"
        },
        {
          "indexed": false,
          "internalType": "address",
          "name": "smartContract",
          "type": "address"
        },
        {
          "indexed": false,
          "internalType": "address",
          "name": "author",
          "type": "address"
        },
        {
          "indexed": false,
          "internalType": "address",
          "name": "seller",
          "type": "address"
        },
        {
          "indexed": false,
          "internalType": "uint256",
          "name": "price",
          "type": "uint256"
        },
        {
          "indexed": false,
          "internalType": "uint256",
          "name": "royalties",
          "type": "uint256"
        },
        {
          "indexed": false,
          "internalType": "uint256",
          "name": "supply",
          "type": "uint256"
        }
      ],
      "name": "MarketItemCreated",
      "type": "event"
    },
    {
      "anonymous": false,
      "inputs": [
        {
          "indexed": true,
          "internalType": "uint256",
          "name": "tokenId",
          "type": "uint256"
        },
        {
          "indexed": false,
          "internalType": "address",
          "name": "smartContract",
          "type": "address"
        },
        {
          "indexed": false,
          "internalType": "uint256",
          "name": "price",
          "type": "uint256"
        },
        {
          "indexed": false,
          "internalType": "address",
          "name": "seller",
          "type": "address"
        }
      ],
      "name": "MarketItemReCreated",
      "type": "event"
    },
    {
      "anonymous": false,
      "inputs": [
        {
          "indexed": true,
          "internalType": "uint256",
          "name": "tokenId",
          "type": "uint256"
        },
        {
          "indexed": false,
          "internalType": "address",
          "name": "smartContract",
          "type": "address"
        },
        {
          "indexed": false,
          "internalType": "address",
          "name": "seller",
          "type": "address"
        },
        {
          "indexed": false,
          "internalType": "uint256",
          "name": "price",
          "type": "uint256"
        },
        {
          "indexed": false,
          "internalType": "address",
          "name": "owner",
          "type": "address"
        }
      ],
      "name": "MarketItemSold",
      "type": "event"
    },
    {
      "inputs": [
        {
          "internalType": "uint256",
          "name": "tokenId",
          "type": "uint256"
        },
        {
          "internalType": "address",
          "name": "contractAddress",
          "type": "address"
        },
        {
          "internalType": "address payable",
          "name": "tokenSeller",
          "type": "address"
        },
        {
          "internalType": "address",
          "name": "tokenBuyer",
          "type": "address"
        }
      ],
      "name": "GasFreeTransaction",
      "outputs": [],
      "stateMutability": "nonpayable",
      "type": "function"
    },
    {
      "inputs": [
        {
          "internalType": "uint256",
          "name": "tokenId",
          "type": "uint256"
        },
        {
          "internalType": "address",
          "name": "contractAddress",
          "type": "address"
        },
        {
          "internalType": "uint256",
          "name": "price",
          "type": "uint256"
        }
      ],
      "name": "changePrice",
      "outputs": [],
      "stateMutability": "nonpayable",
      "type": "function"
    },
    {
      "inputs": [
        {
          "internalType": "uint256",
          "name": "",
          "type": "uint256"
        }
      ],
      "name": "contractsAllowed",
      "outputs": [
        {
          "internalType": "address",
          "name": "",
          "type": "address"
        }
      ],
      "stateMutability": "view",
      "type": "function"
    },
    {
      "inputs": [
        {
          "internalType": "uint256",
          "name": "tokenId",
          "type": "uint256"
        },
        {
          "internalType": "uint256",
          "name": "price",
          "type": "uint256"
        },
        {
          "internalType": "uint256",
          "name": "royalties",
          "type": "uint256"
        },
        {
          "internalType": "uint256",
          "name": "firstSalesFees",
          "type": "uint256"
        },
        {
          "internalType": "uint256",
          "name": "supply",
          "type": "uint256"
        },
        {
          "internalType": "uint256",
          "name": "amount",
          "type": "uint256"
        },
        {
          "internalType": "address payable",
          "name": "tokenCreator",
          "type": "address"
        }
      ],
      "name": "createMarketItem",
      "outputs": [],
      "stateMutability": "nonpayable",
      "type": "function"
    },
    {
      "inputs": [
        {
          "internalType": "uint256",
          "name": "tokenId",
          "type": "uint256"
        },
        {
          "internalType": "address",
          "name": "contractAddress",
          "type": "address"
        },
        {
          "internalType": "address payable",
          "name": "tokenSeller",
          "type": "address"
        },
        {
          "internalType": "uint80",
          "name": "_roundId",
          "type": "uint80"
        },
        {
          "internalType": "uint256",
          "name": "_startedAt",
          "type": "uint256"
        }
      ],
      "name": "createMarketSaleMatic",
      "outputs": [],
      "stateMutability": "payable",
      "type": "function"
    },
    {
      "inputs": [
        {
          "internalType": "uint256",
          "name": "tokenId",
          "type": "uint256"
        },
        {
          "internalType": "address",
          "name": "contractAddress",
          "type": "address"
        }
      ],
      "name": "delistAllTokens",
      "outputs": [],
      "stateMutability": "nonpayable",
      "type": "function"
    },
    {
      "inputs": [
        {
          "internalType": "uint256",
          "name": "tokenId",
          "type": "uint256"
        },
        {
          "internalType": "address",
          "name": "contractAddress",
          "type": "address"
        },
        {
          "internalType": "uint256",
          "name": "amount",
          "type": "uint256"
        }
      ],
      "name": "delistTokens",
      "outputs": [],
      "stateMutability": "nonpayable",
      "type": "function"
    },
    {
      "inputs": [],
      "name": "getLatestPrice",
      "outputs": [
        {
          "internalType": "uint80",
          "name": "",
          "type": "uint80"
        },
        {
          "internalType": "uint256",
          "name": "",
          "type": "uint256"
        },
        {
          "internalType": "int256",
          "name": "",
          "type": "int256"
        }
      ],
      "stateMutability": "view",
      "type": "function"
    },
    {
      "inputs": [
        {
          "internalType": "uint80",
          "name": "_roundId",
          "type": "uint80"
        },
        {
          "internalType": "uint256",
          "name": "USDprice",
          "type": "uint256"
        }
      ],
      "name": "getLatestPriceGivenRound",
      "outputs": [
        {
          "internalType": "uint256",
          "name": "",
          "type": "uint256"
        }
      ],
      "stateMutability": "view",
      "type": "function"
    },
    {
      "inputs": [
        {
          "internalType": "uint256",
          "name": "tokenId",
          "type": "uint256"
        },
        {
          "internalType": "address",
          "name": "contractAddress",
          "type": "address"
        }
      ],
      "name": "getSellers",
      "outputs": [
        {
          "components": [
            {
              "internalType": "address payable[]",
              "name": "sellers",
              "type": "address[]"
            },
            {
              "internalType": "uint256[]",
              "name": "sellingQuantity",
              "type": "uint256[]"
            },
            {
              "internalType": "uint256[]",
              "name": "sellingPrice",
              "type": "uint256[]"
            }
          ],
          "internalType": "struct NFTMarketplaceUpgradableV2.TokenSellers",
          "name": "",
          "type": "tuple"
        }
      ],
      "stateMutability": "view",
      "type": "function"
    },
    {
      "inputs": [
        {
          "internalType": "address",
          "name": "smartContract",
          "type": "address"
        }
      ],
      "name": "getTokenIds",
      "outputs": [
        {
          "internalType": "uint256[]",
          "name": "",
          "type": "uint256[]"
        }
      ],
      "stateMutability": "view",
      "type": "function"
    },
    {
      "inputs": [
        {
          "internalType": "address",
          "name": "owner",
          "type": "address"
        },
        {
          "internalType": "address",
          "name": "contractAddress",
          "type": "address"
        }
      ],
      "name": "getTokensCurrentlySelling",
      "outputs": [
        {
          "internalType": "uint256[]",
          "name": "",
          "type": "uint256[]"
        },
        {
          "internalType": "uint256[]",
          "name": "",
          "type": "uint256[]"
        }
      ],
      "stateMutability": "view",
      "type": "function"
    },
    {
      "inputs": [
        {
          "internalType": "uint256",
          "name": "",
          "type": "uint256"
        },
        {
          "internalType": "address",
          "name": "",
          "type": "address"
        }
      ],
      "name": "idToTokenInfo",
      "outputs": [
        {
          "internalType": "uint256",
          "name": "tokenId",
          "type": "uint256"
        },
        {
          "internalType": "address",
          "name": "smartContract",
          "type": "address"
        },
        {
          "internalType": "address payable",
          "name": "author",
          "type": "address"
        },
        {
          "internalType": "uint256",
          "name": "royalties",
          "type": "uint256"
        },
        {
          "internalType": "uint256",
          "name": "firstSalesFees",
          "type": "uint256"
        },
        {
          "internalType": "uint256",
          "name": "supply",
          "type": "uint256"
        },
        {
          "internalType": "string",
          "name": "uri",
          "type": "string"
        },
        {
          "internalType": "uint256",
          "name": "numberOfFirstSells",
          "type": "uint256"
        }
      ],
      "stateMutability": "view",
      "type": "function"
    },
    {
      "inputs": [
        {
          "internalType": "address",
          "name": "_exchangeRateAddress",
          "type": "address"
        }
      ],
      "name": "initialize",
      "outputs": [],
      "stateMutability": "nonpayable",
      "type": "function"
    },
    {
      "inputs": [
        {
          "internalType": "address",
          "name": "",
          "type": "address"
        },
        {
          "internalType": "address",
          "name": "",
          "type": "address"
        },
        {
          "internalType": "uint256[]",
          "name": "",
          "type": "uint256[]"
        },
        {
          "internalType": "uint256[]",
          "name": "",
          "type": "uint256[]"
        },
        {
          "internalType": "bytes",
          "name": "",
          "type": "bytes"
        }
      ],
      "name": "onERC1155BatchReceived",
      "outputs": [
        {
          "internalType": "bytes4",
          "name": "",
          "type": "bytes4"
        }
      ],
      "stateMutability": "nonpayable",
      "type": "function"
    },
    {
      "inputs": [
        {
          "internalType": "address",
          "name": "",
          "type": "address"
        },
        {
          "internalType": "address",
          "name": "",
          "type": "address"
        },
        {
          "internalType": "uint256",
          "name": "",
          "type": "uint256"
        },
        {
          "internalType": "uint256",
          "name": "",
          "type": "uint256"
        },
        {
          "internalType": "bytes",
          "name": "",
          "type": "bytes"
        }
      ],
      "name": "onERC1155Received",
      "outputs": [
        {
          "internalType": "bytes4",
          "name": "",
          "type": "bytes4"
        }
      ],
      "stateMutability": "nonpayable",
      "type": "function"
    },
    {
      "inputs": [
        {
          "internalType": "uint256",
          "name": "tokenId",
          "type": "uint256"
        },
        {
          "internalType": "uint256",
          "name": "amount",
          "type": "uint256"
        },
        {
          "internalType": "uint256",
          "name": "price",
          "type": "uint256"
        },
        {
          "internalType": "address payable",
          "name": "ownerAddress",
          "type": "address"
        }
      ],
      "name": "resellTokens",
      "outputs": [],
      "stateMutability": "nonpayable",
      "type": "function"
    },
    {
      "inputs": [
        {
          "internalType": "address",
          "name": "contracts",
          "type": "address"
        }
      ],
      "name": "storeMintingContracts",
      "outputs": [],
      "stateMutability": "nonpayable",
      "type": "function"
    },
    {
      "inputs": [
        {
          "internalType": "bytes4",
          "name": "interfaceId",
          "type": "bytes4"
        }
      ],
      "name": "supportsInterface",
      "outputs": [
        {
          "internalType": "bool",
          "name": "",
          "type": "bool"
        }
      ],
      "stateMutability": "view",
      "type": "function"
    },
    {
      "inputs": [
        {
          "internalType": "uint256",
          "name": "_SecondarySalesFee",
          "type": "uint256"
        }
      ],
      "name": "updateSecondarySalesFee",
      "outputs": [],
      "stateMutability": "nonpayable",
      "type": "function"
    },
    {
      "inputs": [],
      "name": "withdraw",
      "outputs": [],
      "stateMutability": "payable",
      "type": "function"
    }
  ],
  "bytecode": "0x608060405234801561001057600080fd5b50615a5a80620000216000396000f3fe60806040526004361061012a5760003560e01c8063920717b6116100ab578063cfa905321161006f578063cfa90532146103f4578063d004b0361461041d578063d4e0be6b1461045a578063df6333f314610476578063f1a10957146104ba578063f23a6e61146104e35761012a565b8063920717b6146102fe578063ac1aec3a14610327578063b7c33d6d14610350578063bc197c811461038e578063c4d66de8146103cb5761012a565b80637e7955fc116100f25780637e7955fc14610219578063836bcec3146102425780638ba348271461026b5780638e15f4731461029457806390177410146102c15761012a565b806301ffc9a71461012f57806308c0dcbc1461016c578063346da72f146101955780633ccfd60b146101d25780635ae903c8146101dc575b600080fd5b34801561013b57600080fd5b5061015660048036038101906101519190613c22565b610520565b6040516101639190613c6a565b60405180910390f35b34801561017857600080fd5b50610193600480360381019061018e9190613d19565b61059a565b005b3480156101a157600080fd5b506101bc60048036038101906101b79190613dc2565b610c63565b6040516101c99190613e11565b60405180910390f35b6101da610d32565b005b3480156101e857600080fd5b5061020360048036038101906101fe9190613e2c565b610e2d565b6040516102109190613e7a565b60405180910390f35b34801561022557600080fd5b50610240600480360381019061023b9190613e95565b610e6c565b005b34801561024e57600080fd5b5061026960048036038101906102649190613f63565b611554565b005b34801561027757600080fd5b50610292600480360381019061028d9190613fa3565b6116c6565b005b3480156102a057600080fd5b506102a96117bc565b6040516102b893929190613ff8565b60405180910390f35b3480156102cd57600080fd5b506102e860048036038101906102e39190613f63565b61186f565b6040516102f59190614209565b60405180910390f35b34801561030a57600080fd5b506103256004803603810190610320919061422b565b611a18565b005b34801561033357600080fd5b5061034e6004803603810190610349919061427e565b611c14565b005b34801561035c57600080fd5b50610377600480360381019061037291906142e5565b6120fe565b604051610385929190614394565b60405180910390f35b34801561039a57600080fd5b506103b560048036038101906103b091906145d9565b6123af565b6040516103c291906146b7565b60405180910390f35b3480156103d757600080fd5b506103f260048036038101906103ed9190613fa3565b6123c4565b005b34801561040057600080fd5b5061041b6004803603810190610416919061422b565b6125d4565b005b34801561042957600080fd5b50610444600480360381019061043f9190613fa3565b61273b565b60405161045191906146d2565b60405180910390f35b610474600480360381019061046f91906146f4565b6127d2565b005b34801561048257600080fd5b5061049d60048036038101906104989190613f63565b61308b565b6040516104b19897969594939291906147fd565b60405180910390f35b3480156104c657600080fd5b506104e160048036038101906104dc9190613e2c565b6131a8565b005b3480156104ef57600080fd5b5061050a60048036038101906105059190614882565b613242565b60405161051791906146b7565b60405180910390f35b60007f4e2312e0000000000000000000000000000000000000000000000000000000007bffffffffffffffffffffffffffffffffffffffffffffffffffffffff1916827bffffffffffffffffffffffffffffffffffffffffffffffffffffffff19161480610593575061059282613257565b5b9050919050565b60016105a5336132c1565b146105e5576040517f08c379a00000000000000000000000000000000000000000000000000000000081526004016105dc9061498b565b60405180910390fd5b33600260006101000a81548173ffffffffffffffffffffffffffffffffffffffff021916908373ffffffffffffffffffffffffffffffffffffffff16021790555060011515600260009054906101000a900473ffffffffffffffffffffffffffffffffffffffff1673ffffffffffffffffffffffffffffffffffffffff1663e985e9c583306040518363ffffffff1660e01b8152600401610687929190614a0a565b602060405180830381865afa1580156106a4573d6000803e3d6000fd5b505050506040513d601f19601f820116820180604052508101906106c89190614a5f565b15151461070a576040517f08c379a000000000000000000000000000000000000000000000000000000000815260040161070190614afe565b60405180910390fd5b600061071782863361338e565b90507fffffffffffffffffffffffffffffffffffffffffffffffffffffffffffffffff81036109cc5783600260009054906101000a900473ffffffffffffffffffffffffffffffffffffffff1673ffffffffffffffffffffffffffffffffffffffff1662fdd58e84886040518363ffffffff1660e01b815260040161079d929190614b1e565b602060405180830381865afa1580156107ba573d6000803e3d6000fd5b505050506040513d601f19601f820116820180604052508101906107de9190614b5c565b101561081f576040517f08c379a000000000000000000000000000000000000000000000000000000000815260040161081690614bd5565b60405180910390fd5b6007600086815260200190815260200160002060003373ffffffffffffffffffffffffffffffffffffffff1673ffffffffffffffffffffffffffffffffffffffff168152602001908152602001600020600001829080600181540180825580915050600190039060005260206000200160009091909190916101000a81548173ffffffffffffffffffffffffffffffffffffffff021916908373ffffffffffffffffffffffffffffffffffffffff1602179055506007600086815260200190815260200160002060003373ffffffffffffffffffffffffffffffffffffffff1673ffffffffffffffffffffffffffffffffffffffff1681526020019081526020016000206001018490806001815401808255809150506001900390600052602060002001600090919091909150556007600086815260200190815260200160002060003373ffffffffffffffffffffffffffffffffffffffff1673ffffffffffffffffffffffffffffffffffffffff168152602001908152602001600020600201839080600181540180825580915050600190039060005260206000200160009091909190915055610c20565b6007600086815260200190815260200160002060003373ffffffffffffffffffffffffffffffffffffffff1673ffffffffffffffffffffffffffffffffffffffff1681526020019081526020016000206001018181548110610a3157610a30614bf5565b5b906000526020600020015484610a479190614c53565b600260009054906101000a900473ffffffffffffffffffffffffffffffffffffffff1673ffffffffffffffffffffffffffffffffffffffff1662fdd58e84886040518363ffffffff1660e01b8152600401610aa3929190614b1e565b602060405180830381865afa158015610ac0573d6000803e3d6000fd5b505050506040513d601f19601f82011682018060405250810190610ae49190614b5c565b1015610b25576040517f08c379a0000000000000000000000000000000000000000000000000000000008152600401610b1c90614bd5565b60405180910390fd5b836007600087815260200190815260200160002060003373ffffffffffffffffffffffffffffffffffffffff1673ffffffffffffffffffffffffffffffffffffffff1681526020019081526020016000206001018281548110610b8b57610b8a614bf5565b5b906000526020600020016000828254610ba49190614c53565b92505081905550826007600087815260200190815260200160002060003373ffffffffffffffffffffffffffffffffffffffff1673ffffffffffffffffffffffffffffffffffffffff1681526020019081526020016000206002018281548110610c1157610c10614bf5565b5b90600052602060002001819055505b847f58c29ca452f3bd1d463f8b1fa3f720d2dce76ebefb1e8923baeb080045c32825338585604051610c5493929190614c87565b60405180910390a25050505050565b600080600360009054906101000a900473ffffffffffffffffffffffffffffffffffffffff1673ffffffffffffffffffffffffffffffffffffffff16639a6fc8f5856040518263ffffffff1660e01b8152600401610cc19190614cbe565b60a060405180830381865afa158015610cde573d6000803e3d6000fd5b505050506040513d601f19601f82011682018060405250810190610d029190614d1a565b50505091505060006305f5e1008285610d1b9190614dc4565b610d259190614df5565b9050809250505092915050565b600460009054906101000a900473ffffffffffffffffffffffffffffffffffffffff1673ffffffffffffffffffffffffffffffffffffffff163373ffffffffffffffffffffffffffffffffffffffff1614610dc2576040517f08c379a0000000000000000000000000000000000000000000000000000000008152600401610db990614ea9565b60405180910390fd5b600460009054906101000a900473ffffffffffffffffffffffffffffffffffffffff1673ffffffffffffffffffffffffffffffffffffffff166108fc479081150290604051600060405180830381858888f19350505050158015610e2a573d6000803e3d6000fd5b50565b60058181548110610e3d57600080fd5b906000526020600020016000915054906101000a900473ffffffffffffffffffffffffffffffffffffffff1681565b6001610e77336132c1565b14610eb7576040517f08c379a0000000000000000000000000000000000000000000000000000000008152600401610eae9061498b565b60405180910390fd5b33600260006101000a81548173ffffffffffffffffffffffffffffffffffffffff021916908373ffffffffffffffffffffffffffffffffffffffff16021790555081600260009054906101000a900473ffffffffffffffffffffffffffffffffffffffff1673ffffffffffffffffffffffffffffffffffffffff1662fdd58e838a6040518363ffffffff1660e01b8152600401610f55929190614b1e565b602060405180830381865afa158015610f72573d6000803e3d6000fd5b505050506040513d601f19601f82011682018060405250810190610f969190614b5c565b1015610fd7576040517f08c379a0000000000000000000000000000000000000000000000000000000008152600401610fce90614bd5565b60405180910390fd5b60011515600260009054906101000a900473ffffffffffffffffffffffffffffffffffffffff1673ffffffffffffffffffffffffffffffffffffffff1663e985e9c583306040518363ffffffff1660e01b8152600401611038929190614a0a565b602060405180830381865afa158015611055573d6000803e3d6000fd5b505050506040513d601f19601f820116820180604052508101906110799190614a5f565b1515146110bb576040517f08c379a00000000000000000000000000000000000000000000000000000000081526004016110b290614f3b565b60405180910390fd5b6000600260009054906101000a900473ffffffffffffffffffffffffffffffffffffffff1673ffffffffffffffffffffffffffffffffffffffff16630e89341c896040518263ffffffff1660e01b81526004016111189190613e11565b600060405180830381865afa158015611135573d6000803e3d6000fd5b505050506040513d6000823e3d601f19601f8201168201806040525081019061115e9190614ffc565b905061116a60006134fe565b6040518061010001604052808981526020013373ffffffffffffffffffffffffffffffffffffffff1681526020018373ffffffffffffffffffffffffffffffffffffffff1681526020018781526020018681526020018581526020018281526020016000815250600660008a815260200190815260200160002060003373ffffffffffffffffffffffffffffffffffffffff1673ffffffffffffffffffffffffffffffffffffffff1681526020019081526020016000206000820151816000015560208201518160010160006101000a81548173ffffffffffffffffffffffffffffffffffffffff021916908373ffffffffffffffffffffffffffffffffffffffff16021790555060408201518160020160006101000a81548173ffffffffffffffffffffffffffffffffffffffff021916908373ffffffffffffffffffffffffffffffffffffffff160217905550606082015181600301556080820151816004015560a0820151816005015560c08201518160060190816112ec9190615247565b5060e082015181600701559050506007600089815260200190815260200160002060003373ffffffffffffffffffffffffffffffffffffffff1673ffffffffffffffffffffffffffffffffffffffff168152602001908152602001600020600001829080600181540180825580915050600190039060005260206000200160009091909190916101000a81548173ffffffffffffffffffffffffffffffffffffffff021916908373ffffffffffffffffffffffffffffffffffffffff1602179055506007600089815260200190815260200160002060003373ffffffffffffffffffffffffffffffffffffffff1673ffffffffffffffffffffffffffffffffffffffff1681526020019081526020016000206001018390806001815401808255809150506001900390600052602060002001600090919091909150556007600089815260200190815260200160002060003373ffffffffffffffffffffffffffffffffffffffff1673ffffffffffffffffffffffffffffffffffffffff168152602001908152602001600020600201879080600181540180825580915050600190039060005260206000200160009091909190915055600860003373ffffffffffffffffffffffffffffffffffffffff1673ffffffffffffffffffffffffffffffffffffffff168152602001908152602001600020889080600181540180825580915050600190039060005260206000200160009091909190915055877f087f1650c93355e7561c39b9a67499b066f17536e2b9666a223313902048d5cb3384308b8b8a60405161154296959493929190615319565b60405180910390a25050505050505050565b600061156133848461338e565b90507fffffffffffffffffffffffffffffffffffffffffffffffffffffffffffffffff8114158015611602575060006007600085815260200190815260200160002060008473ffffffffffffffffffffffffffffffffffffffff1673ffffffffffffffffffffffffffffffffffffffff16815260200190815260200160002060010182815481106115f5576115f4614bf5565b5b9060005260206000200154115b611641576040517f08c379a0000000000000000000000000000000000000000000000000000000008152600401611638906153ec565b60405180910390fd5b60006007600085815260200190815260200160002060008473ffffffffffffffffffffffffffffffffffffffff1673ffffffffffffffffffffffffffffffffffffffff16815260200190815260200160002060010182815481106116a8576116a7614bf5565b5b90600052602060002001819055506116c1838383613514565b505050565b600460009054906101000a900473ffffffffffffffffffffffffffffffffffffffff1673ffffffffffffffffffffffffffffffffffffffff163373ffffffffffffffffffffffffffffffffffffffff1614611756576040517f08c379a000000000000000000000000000000000000000000000000000000000815260040161174d90614ea9565b60405180910390fd5b6005819080600181540180825580915050600190039060005260206000200160009091909190916101000a81548173ffffffffffffffffffffffffffffffffffffffff021916908373ffffffffffffffffffffffffffffffffffffffff16021790555050565b600080600080600080600360009054906101000a900473ffffffffffffffffffffffffffffffffffffffff1673ffffffffffffffffffffffffffffffffffffffff1663feaf968c6040518163ffffffff1660e01b815260040160a060405180830381865afa158015611832573d6000803e3d6000fd5b505050506040513d601f19601f820116820180604052508101906118569190614d1a565b5050925092509250828183955095509550505050909192565b611877613b95565b6007600084815260200190815260200160002060008373ffffffffffffffffffffffffffffffffffffffff1673ffffffffffffffffffffffffffffffffffffffff1681526020019081526020016000206040518060600160405290816000820180548060200260200160405190810160405280929190818152602001828054801561195757602002820191906000526020600020905b8160009054906101000a900473ffffffffffffffffffffffffffffffffffffffff1673ffffffffffffffffffffffffffffffffffffffff168152602001906001019080831161190d575b50505050508152602001600182018054806020026020016040519081016040528092919081815260200182805480156119af57602002820191906000526020600020905b81548152602001906001019080831161199b575b5050505050815260200160028201805480602002602001604051908101604052809291908181526020018280548015611a0757602002820191906000526020600020905b8154815260200190600101908083116119f3575b505050505081525050905092915050565b6000611a2533858561338e565b90507fffffffffffffffffffffffffffffffffffffffffffffffffffffffffffffffff8114158015611ac65750816007600086815260200190815260200160002060008573ffffffffffffffffffffffffffffffffffffffff1673ffffffffffffffffffffffffffffffffffffffff1681526020019081526020016000206001018281548110611ab857611ab7614bf5565b5b906000526020600020015410155b611b05576040517f08c379a0000000000000000000000000000000000000000000000000000000008152600401611afc9061547e565b60405180910390fd5b816007600086815260200190815260200160002060008573ffffffffffffffffffffffffffffffffffffffff1673ffffffffffffffffffffffffffffffffffffffff1681526020019081526020016000206001018281548110611b6b57611b6a614bf5565b5b906000526020600020016000828254611b84919061549e565b9250508190555060006007600086815260200190815260200160002060008573ffffffffffffffffffffffffffffffffffffffff1673ffffffffffffffffffffffffffffffffffffffff1681526020019081526020016000206001018281548110611bf257611bf1614bf5565b5b906000526020600020015403611c0e57611c0d848483613514565b5b50505050565b600460009054906101000a900473ffffffffffffffffffffffffffffffffffffffff1673ffffffffffffffffffffffffffffffffffffffff163373ffffffffffffffffffffffffffffffffffffffff1614611ca4576040517f08c379a0000000000000000000000000000000000000000000000000000000008152600401611c9b90614ea9565b60405180910390fd5b6000611cb183868661338e565b90507fffffffffffffffffffffffffffffffffffffffffffffffffffffffffffffffff8114158015611d52575060006007600087815260200190815260200160002060008673ffffffffffffffffffffffffffffffffffffffff1673ffffffffffffffffffffffffffffffffffffffff1681526020019081526020016000206001018281548110611d4557611d44614bf5565b5b9060005260206000200154115b611d91576040517f08c379a0000000000000000000000000000000000000000000000000000000008152600401611d8890615544565b60405180910390fd5b60006007600087815260200190815260200160002060008673ffffffffffffffffffffffffffffffffffffffff1673ffffffffffffffffffffffffffffffffffffffff1681526020019081526020016000206002018281548110611df857611df7614bf5565b5b9060005260206000200154905060008114611e48576040517f08c379a0000000000000000000000000000000000000000000000000000000008152600401611e3f906155d6565b60405180910390fd5b84600260006101000a81548173ffffffffffffffffffffffffffffffffffffffff021916908373ffffffffffffffffffffffffffffffffffffffff1602179055506000600260009054906101000a900473ffffffffffffffffffffffffffffffffffffffff1673ffffffffffffffffffffffffffffffffffffffff1662fdd58e86896040518363ffffffff1660e01b8152600401611ee7929190614b1e565b602060405180830381865afa158015611f04573d6000803e3d6000fd5b505050506040513d601f19601f82011682018060405250810190611f289190614b5c565b0361201957611f38868684613514565b6001600260009054906101000a900473ffffffffffffffffffffffffffffffffffffffff1673ffffffffffffffffffffffffffffffffffffffff1662fdd58e86896040518363ffffffff1660e01b8152600401611f96929190614b1e565b602060405180830381865afa158015611fb3573d6000803e3d6000fd5b505050506040513d601f19601f82011682018060405250810190611fd79190614b5c565b1015612018576040517f08c379a000000000000000000000000000000000000000000000000000000000815260040161200f90615668565b60405180910390fd5b5b600260009054906101000a900473ffffffffffffffffffffffffffffffffffffffff1673ffffffffffffffffffffffffffffffffffffffff1663f242432a85858960016040518563ffffffff1660e01b815260040161207b94939291906156fa565b600060405180830381600087803b15801561209557600080fd5b505af11580156120a9573d6000803e3d6000fd5b505050506120b8868686613a4e565b857f321cdc30d9ab4c4ce5dd631337675b9d67f16a6ec4cc3fa2ae1de1464d2495c1868684876040516120ee9493929190615752565b60405180910390a2505050505050565b6060806000600860008573ffffffffffffffffffffffffffffffffffffffff1673ffffffffffffffffffffffffffffffffffffffff1681526020019081526020016000208054905090506000600860008673ffffffffffffffffffffffffffffffffffffffff1673ffffffffffffffffffffffffffffffffffffffff168152602001908152602001600020600183612196919061549e565b815481106121a7576121a6614bf5565b5b9060005260206000200154905060008167ffffffffffffffff8111156121d0576121cf6143e1565b5b6040519080825280602002602001820160405280156121fe5781602001602082028036833780820191505090505b50905060008267ffffffffffffffff81111561221d5761221c6143e1565b5b60405190808252806020026020018201604052801561224b5781602001602082028036833780820191505090505b50905060005b8381101561239d576001816122669190614c53565b83828151811061227957612278614bf5565b5b602002602001018181525050600061229e8a6001846122989190614c53565b8b61338e565b90507fffffffffffffffffffffffffffffffffffffffffffffffffffffffffffffffff811461236757600760006001846122d89190614c53565b815260200190815260200160002060008a73ffffffffffffffffffffffffffffffffffffffff1673ffffffffffffffffffffffffffffffffffffffff168152602001908152602001600020600101818154811061233857612337614bf5565b5b906000526020600020015483838151811061235657612355614bf5565b5b602002602001018181525050612389565b600083838151811061237c5761237b614bf5565b5b6020026020010181815250505b50808061239590615797565b915050612251565b50818195509550505050509250929050565b600063bc197c8160e01b905095945050505050565b60006123ce613b6d565b905060008160000160089054906101000a900460ff1615905060008260000160009054906101000a900467ffffffffffffffff1690506000808267ffffffffffffffff1614801561241c5750825b9050600060018367ffffffffffffffff16148015612451575060003073ffffffffffffffffffffffffffffffffffffffff163b145b90508115801561245f575080155b15612496576040517ff92ee8a900000000000000000000000000000000000000000000000000000000815260040160405180910390fd5b60018560000160006101000a81548167ffffffffffffffff021916908367ffffffffffffffff16021790555083156124e65760018560000160086101000a81548160ff0219169083151502179055505b85600360006101000a81548173ffffffffffffffffffffffffffffffffffffffff021916908373ffffffffffffffffffffffffffffffffffffffff16021790555033600460006101000a81548173ffffffffffffffffffffffffffffffffffffffff021916908373ffffffffffffffffffffffffffffffffffffffff160217905550600060018190555083156125cc5760008560000160086101000a81548160ff0219169083151502179055507fc7f505b2f371ae2175ee4913f4499e1f2633a7b5936321eed1cdaeb6115181d260016040516125c39190615824565b60405180910390a15b505050505050565b60006125e133858561338e565b90507fffffffffffffffffffffffffffffffffffffffffffffffffffffffffffffffff8114158015612682575060006007600086815260200190815260200160002060008573ffffffffffffffffffffffffffffffffffffffff1673ffffffffffffffffffffffffffffffffffffffff168152602001908152602001600020600101828154811061267557612674614bf5565b5b9060005260206000200154115b6126c1576040517f08c379a00000000000000000000000000000000000000000000000000000000081526004016126b8906158b1565b60405180910390fd5b816007600086815260200190815260200160002060008573ffffffffffffffffffffffffffffffffffffffff1673ffffffffffffffffffffffffffffffffffffffff168152602001908152602001600020600201828154811061272757612726614bf5565b5b906000526020600020018190555050505050565b6060600860008373ffffffffffffffffffffffffffffffffffffffff1673ffffffffffffffffffffffffffffffffffffffff1681526020019081526020016000208054806020026020016040519081016040528092919081815260200182805480156127c657602002820191906000526020600020905b8154815260200190600101908083116127b2575b50505050509050919050565b60006127df84878761338e565b90507fffffffffffffffffffffffffffffffffffffffffffffffffffffffffffffffff8114158015612880575060006007600088815260200190815260200160002060008773ffffffffffffffffffffffffffffffffffffffff1673ffffffffffffffffffffffffffffffffffffffff168152602001908152602001600020600101828154811061287357612872614bf5565b5b9060005260206000200154115b6128bf576040517f08c379a00000000000000000000000000000000000000000000000000000000081526004016128b690615544565b60405180910390fd5b84600260006101000a81548173ffffffffffffffffffffffffffffffffffffffff021916908373ffffffffffffffffffffffffffffffffffffffff1602179055506000600260009054906101000a900473ffffffffffffffffffffffffffffffffffffffff1673ffffffffffffffffffffffffffffffffffffffff1662fdd58e86896040518363ffffffff1660e01b815260040161295e929190614b1e565b602060405180830381865afa15801561297b573d6000803e3d6000fd5b505050506040513d601f19601f8201168201806040525081019061299f9190614b5c565b03612a90576129af868683613514565b6001600260009054906101000a900473ffffffffffffffffffffffffffffffffffffffff1673ffffffffffffffffffffffffffffffffffffffff1662fdd58e86896040518363ffffffff1660e01b8152600401612a0d929190614b1e565b602060405180830381865afa158015612a2a573d6000803e3d6000fd5b505050506040513d601f19601f82011682018060405250810190612a4e9190614b5c565b1015612a8f576040517f08c379a0000000000000000000000000000000000000000000000000000000008152600401612a8690615668565b60405180910390fd5b5b60004290506101f48382612aa4919061549e565b10612ae4576040517f08c379a0000000000000000000000000000000000000000000000000000000008152600401612adb90615943565b60405180910390fd5b6000612b5f85600760008b815260200190815260200160002060008a73ffffffffffffffffffffffffffffffffffffffff1673ffffffffffffffffffffffffffffffffffffffff1681526020019081526020016000206002018581548110612b4f57612b4e614bf5565b5b9060005260206000200154610c63565b9050803414612ba3576040517f08c379a0000000000000000000000000000000000000000000000000000000008152600401612b9a906159d5565b60405180910390fd5b600260009054906101000a900473ffffffffffffffffffffffffffffffffffffffff1673ffffffffffffffffffffffffffffffffffffffff1663f242432a87338b60016040518563ffffffff1660e01b8152600401612c0594939291906156fa565b600060405180830381600087803b158015612c1f57600080fd5b505af1158015612c33573d6000803e3d6000fd5b50505050612c42888888613a4e565b6000600660008a815260200190815260200160002060008973ffffffffffffffffffffffffffffffffffffffff1673ffffffffffffffffffffffffffffffffffffffff1681526020019081526020016000206003015490506000600660008b815260200190815260200160002060008a73ffffffffffffffffffffffffffffffffffffffff1673ffffffffffffffffffffffffffffffffffffffff168152602001908152602001600020600401549050600082600154612d029190614c53565b90506000600660008d815260200190815260200160002060008c73ffffffffffffffffffffffffffffffffffffffff1673ffffffffffffffffffffffffffffffffffffffff16815260200190815260200160002060020160009054906101000a900473ffffffffffffffffffffffffffffffffffffffff16905060008a90508073ffffffffffffffffffffffffffffffffffffffff168273ffffffffffffffffffffffffffffffffffffffff16141580612e985750600660008e815260200190815260200160002060008d73ffffffffffffffffffffffffffffffffffffffff1673ffffffffffffffffffffffffffffffffffffffff16815260200190815260200160002060050154600660008f815260200190815260200160002060008e73ffffffffffffffffffffffffffffffffffffffff1673ffffffffffffffffffffffffffffffffffffffff16815260200190815260200160002060070154148015612e9757508073ffffffffffffffffffffffffffffffffffffffff168273ffffffffffffffffffffffffffffffffffffffff16145b5b15612f69578073ffffffffffffffffffffffffffffffffffffffff166108fc60648534612ec59190614df5565b612ecf9190614dc4565b34612eda919061549e565b9081150290604051600060405180830381858888f19350505050158015612f05573d6000803e3d6000fd5b508173ffffffffffffffffffffffffffffffffffffffff166108fc60648734612f2e9190614df5565b612f389190614dc4565b9081150290604051600060405180830381858888f19350505050158015612f63573d6000803e3d6000fd5b5061303e565b8073ffffffffffffffffffffffffffffffffffffffff166108fc60648634612f919190614df5565b612f9b9190614dc4565b34612fa6919061549e565b9081150290604051600060405180830381858888f19350505050158015612fd1573d6000803e3d6000fd5b506001600660008f815260200190815260200160002060008e73ffffffffffffffffffffffffffffffffffffffff1673ffffffffffffffffffffffffffffffffffffffff16815260200190815260200160002060070160008282546130369190614c53565b925050819055505b8c7f321cdc30d9ab4c4ce5dd631337675b9d67f16a6ec4cc3fa2ae1de1464d2495c18d8d89336040516130749493929190615752565b60405180910390a250505050505050505050505050565b6006602052816000526040600020602052806000526040600020600091509150508060000154908060010160009054906101000a900473ffffffffffffffffffffffffffffffffffffffff16908060020160009054906101000a900473ffffffffffffffffffffffffffffffffffffffff169080600301549080600401549080600501549080600601805461311f90615074565b80601f016020809104026020016040519081016040528092919081815260200182805461314b90615074565b80156131985780601f1061316d57610100808354040283529160200191613198565b820191906000526020600020905b81548152906001019060200180831161317b57829003601f168201915b5050505050908060070154905088565b600460009054906101000a900473ffffffffffffffffffffffffffffffffffffffff1673ffffffffffffffffffffffffffffffffffffffff163373ffffffffffffffffffffffffffffffffffffffff1614613238576040517f08c379a000000000000000000000000000000000000000000000000000000000815260040161322f90614ea9565b60405180910390fd5b8060018190555050565b600063f23a6e6160e01b905095945050505050565b60007f01ffc9a7000000000000000000000000000000000000000000000000000000007bffffffffffffffffffffffffffffffffffffffffffffffffffffffff1916827bffffffffffffffffffffffffffffffffffffffffffffffffffffffff1916149050919050565b600080600090505b600580549050811015613364578273ffffffffffffffffffffffffffffffffffffffff166005828154811061330157613300614bf5565b5b9060005260206000200160009054906101000a900473ffffffffffffffffffffffffffffffffffffffff1673ffffffffffffffffffffffffffffffffffffffff1603613351576001915050613389565b808061335c90615797565b9150506132c9565b507fffffffffffffffffffffffffffffffffffffffffffffffffffffffffffffffff90505b919050565b600080600090505b6007600085815260200190815260200160002060008473ffffffffffffffffffffffffffffffffffffffff1673ffffffffffffffffffffffffffffffffffffffff168152602001908152602001600020600001805490508110156134d2578473ffffffffffffffffffffffffffffffffffffffff166007600086815260200190815260200160002060008573ffffffffffffffffffffffffffffffffffffffff1673ffffffffffffffffffffffffffffffffffffffff16815260200190815260200160002060000182815481106134705761346f614bf5565b5b9060005260206000200160009054906101000a900473ffffffffffffffffffffffffffffffffffffffff1673ffffffffffffffffffffffffffffffffffffffff16036134bf57809150506134f7565b80806134ca90615797565b915050613396565b507fffffffffffffffffffffffffffffffffffffffffffffffffffffffffffffffff90505b9392505050565b6001816000016000828254019250508190555050565b60008190505b60016007600086815260200190815260200160002060008573ffffffffffffffffffffffffffffffffffffffff1673ffffffffffffffffffffffffffffffffffffffff1681526020019081526020016000206000018054905061357d919061549e565b8110156138be576007600085815260200190815260200160002060008473ffffffffffffffffffffffffffffffffffffffff1673ffffffffffffffffffffffffffffffffffffffff1681526020019081526020016000206000016001826135e49190614c53565b815481106135f5576135f4614bf5565b5b9060005260206000200160009054906101000a900473ffffffffffffffffffffffffffffffffffffffff166007600086815260200190815260200160002060008573ffffffffffffffffffffffffffffffffffffffff1673ffffffffffffffffffffffffffffffffffffffff168152602001908152602001600020600001828154811061368557613684614bf5565b5b9060005260206000200160006101000a81548173ffffffffffffffffffffffffffffffffffffffff021916908373ffffffffffffffffffffffffffffffffffffffff1602179055506007600085815260200190815260200160002060008473ffffffffffffffffffffffffffffffffffffffff1673ffffffffffffffffffffffffffffffffffffffff16815260200190815260200160002060010160018261372d9190614c53565b8154811061373e5761373d614bf5565b5b90600052602060002001546007600086815260200190815260200160002060008573ffffffffffffffffffffffffffffffffffffffff1673ffffffffffffffffffffffffffffffffffffffff16815260200190815260200160002060010182815481106137ae576137ad614bf5565b5b90600052602060002001819055506007600085815260200190815260200160002060008473ffffffffffffffffffffffffffffffffffffffff1673ffffffffffffffffffffffffffffffffffffffff16815260200190815260200160002060020160018261381c9190614c53565b8154811061382d5761382c614bf5565b5b90600052602060002001546007600086815260200190815260200160002060008573ffffffffffffffffffffffffffffffffffffffff1673ffffffffffffffffffffffffffffffffffffffff168152602001908152602001600020600201828154811061389d5761389c614bf5565b5b906000526020600020018190555080806138b690615797565b91505061351a565b506007600084815260200190815260200160002060008373ffffffffffffffffffffffffffffffffffffffff1673ffffffffffffffffffffffffffffffffffffffff168152602001908152602001600020600001805480613922576139216159f5565b5b6001900381819060005260206000200160006101000a81549073ffffffffffffffffffffffffffffffffffffffff021916905590556007600084815260200190815260200160002060008373ffffffffffffffffffffffffffffffffffffffff1673ffffffffffffffffffffffffffffffffffffffff1681526020019081526020016000206001018054806139ba576139b96159f5565b5b600190038181906000526020600020016000905590556007600084815260200190815260200160002060008373ffffffffffffffffffffffffffffffffffffffff1673ffffffffffffffffffffffffffffffffffffffff168152602001908152602001600020600201805480613a3357613a326159f5565b5b60019003818190600052602060002001600090559055505050565b6000613a5b82858561338e565b905060016007600086815260200190815260200160002060008573ffffffffffffffffffffffffffffffffffffffff1673ffffffffffffffffffffffffffffffffffffffff1681526020019081526020016000206001018281548110613ac457613ac3614bf5565b5b906000526020600020016000828254613add919061549e565b9250508190555060006007600086815260200190815260200160002060008573ffffffffffffffffffffffffffffffffffffffff1673ffffffffffffffffffffffffffffffffffffffff1681526020019081526020016000206001018281548110613b4b57613b4a614bf5565b5b906000526020600020015403613b6757613b66848483613514565b5b50505050565b60007ff0c57e16840df040f15088dc2f81fe391c3923bec73e23a9662efc9c229c6a00905090565b60405180606001604052806060815260200160608152602001606081525090565b6000604051905090565b600080fd5b600080fd5b60007fffffffff0000000000000000000000000000000000000000000000000000000082169050919050565b613bff81613bca565b8114613c0a57600080fd5b50565b600081359050613c1c81613bf6565b92915050565b600060208284031215613c3857613c37613bc0565b5b6000613c4684828501613c0d565b91505092915050565b60008115159050919050565b613c6481613c4f565b82525050565b6000602082019050613c7f6000830184613c5b565b92915050565b6000819050919050565b613c9881613c85565b8114613ca357600080fd5b50565b600081359050613cb581613c8f565b92915050565b600073ffffffffffffffffffffffffffffffffffffffff82169050919050565b6000613ce682613cbb565b9050919050565b613cf681613cdb565b8114613d0157600080fd5b50565b600081359050613d1381613ced565b92915050565b60008060008060808587031215613d3357613d32613bc0565b5b6000613d4187828801613ca6565b9450506020613d5287828801613ca6565b9350506040613d6387828801613ca6565b9250506060613d7487828801613d04565b91505092959194509250565b600069ffffffffffffffffffff82169050919050565b613d9f81613d80565b8114613daa57600080fd5b50565b600081359050613dbc81613d96565b92915050565b60008060408385031215613dd957613dd8613bc0565b5b6000613de785828601613dad565b9250506020613df885828601613ca6565b9150509250929050565b613e0b81613c85565b82525050565b6000602082019050613e266000830184613e02565b92915050565b600060208284031215613e4257613e41613bc0565b5b6000613e5084828501613ca6565b91505092915050565b6000613e6482613cbb565b9050919050565b613e7481613e59565b82525050565b6000602082019050613e8f6000830184613e6b565b92915050565b600080600080600080600060e0888a031215613eb457613eb3613bc0565b5b6000613ec28a828b01613ca6565b9750506020613ed38a828b01613ca6565b9650506040613ee48a828b01613ca6565b9550506060613ef58a828b01613ca6565b9450506080613f068a828b01613ca6565b93505060a0613f178a828b01613ca6565b92505060c0613f288a828b01613d04565b91505092959891949750929550565b613f4081613e59565b8114613f4b57600080fd5b50565b600081359050613f5d81613f37565b92915050565b60008060408385031215613f7a57613f79613bc0565b5b6000613f8885828601613ca6565b9250506020613f9985828601613f4e565b9150509250929050565b600060208284031215613fb957613fb8613bc0565b5b6000613fc784828501613f4e565b91505092915050565b613fd981613d80565b82525050565b6000819050919050565b613ff281613fdf565b82525050565b600060608201905061400d6000830186613fd0565b61401a6020830185613e02565b6140276040830184613fe9565b949350505050565b600081519050919050565b600082825260208201905092915050565b6000819050602082019050919050565b61406481613cdb565b82525050565b6000614076838361405b565b60208301905092915050565b6000602082019050919050565b600061409a8261402f565b6140a4818561403a565b93506140af8361404b565b8060005b838110156140e05781516140c7888261406a565b97506140d283614082565b9250506001810190506140b3565b5085935050505092915050565b600081519050919050565b600082825260208201905092915050565b6000819050602082019050919050565b61412281613c85565b82525050565b60006141348383614119565b60208301905092915050565b6000602082019050919050565b6000614158826140ed565b61416281856140f8565b935061416d83614109565b8060005b8381101561419e5781516141858882614128565b975061419083614140565b925050600181019050614171565b5085935050505092915050565b600060608301600083015184820360008601526141c8828261408f565b915050602083015184820360208601526141e2828261414d565b915050604083015184820360408601526141fc828261414d565b9150508091505092915050565b6000602082019050818103600083015261422381846141ab565b905092915050565b60008060006060848603121561424457614243613bc0565b5b600061425286828701613ca6565b935050602061426386828701613f4e565b925050604061427486828701613ca6565b9150509250925092565b6000806000806080858703121561429857614297613bc0565b5b60006142a687828801613ca6565b94505060206142b787828801613f4e565b93505060406142c887828801613d04565b92505060606142d987828801613f4e565b91505092959194509250565b600080604083850312156142fc576142fb613bc0565b5b600061430a85828601613f4e565b925050602061431b85828601613f4e565b9150509250929050565b600082825260208201905092915050565b6000614341826140ed565b61434b8185614325565b935061435683614109565b8060005b8381101561438757815161436e8882614128565b975061437983614140565b92505060018101905061435a565b5085935050505092915050565b600060408201905081810360008301526143ae8185614336565b905081810360208301526143c28184614336565b90509392505050565b600080fd5b6000601f19601f8301169050919050565b7f4e487b7100000000000000000000000000000000000000000000000000000000600052604160045260246000fd5b614419826143d0565b810181811067ffffffffffffffff82111715614438576144376143e1565b5b80604052505050565b600061444b613bb6565b90506144578282614410565b919050565b600067ffffffffffffffff821115614477576144766143e1565b5b602082029050602081019050919050565b600080fd5b60006144a061449b8461445c565b614441565b905080838252602082019050602084028301858111156144c3576144c2614488565b5b835b818110156144ec57806144d88882613ca6565b8452602084019350506020810190506144c5565b5050509392505050565b600082601f83011261450b5761450a6143cb565b5b813561451b84826020860161448d565b91505092915050565b600080fd5b600067ffffffffffffffff821115614544576145436143e1565b5b61454d826143d0565b9050602081019050919050565b82818337600083830152505050565b600061457c61457784614529565b614441565b90508281526020810184848401111561459857614597614524565b5b6145a384828561455a565b509392505050565b600082601f8301126145c0576145bf6143cb565b5b81356145d0848260208601614569565b91505092915050565b600080600080600060a086880312156145f5576145f4613bc0565b5b600061460388828901613f4e565b955050602061461488828901613f4e565b945050604086013567ffffffffffffffff81111561463557614634613bc5565b5b614641888289016144f6565b935050606086013567ffffffffffffffff81111561466257614661613bc5565b5b61466e888289016144f6565b925050608086013567ffffffffffffffff81111561468f5761468e613bc5565b5b61469b888289016145ab565b9150509295509295909350565b6146b181613bca565b82525050565b60006020820190506146cc60008301846146a8565b92915050565b600060208201905081810360008301526146ec8184614336565b905092915050565b600080600080600060a086880312156147105761470f613bc0565b5b600061471e88828901613ca6565b955050602061472f88828901613f4e565b945050604061474088828901613d04565b935050606061475188828901613dad565b925050608061476288828901613ca6565b9150509295509295909350565b61477881613cdb565b82525050565b600081519050919050565b600082825260208201905092915050565b60005b838110156147b857808201518184015260208101905061479d565b60008484015250505050565b60006147cf8261477e565b6147d98185614789565b93506147e981856020860161479a565b6147f2816143d0565b840191505092915050565b600061010082019050614813600083018b613e02565b614820602083018a613e6b565b61482d604083018961476f565b61483a6060830188613e02565b6148476080830187613e02565b61485460a0830186613e02565b81810360c083015261486681856147c4565b905061487560e0830184613e02565b9998505050505050505050565b600080600080600060a0868803121561489e5761489d613bc0565b5b60006148ac88828901613f4e565b95505060206148bd88828901613f4e565b94505060406148ce88828901613ca6565b93505060606148df88828901613ca6565b925050608086013567ffffffffffffffff811115614900576148ff613bc5565b5b61490c888289016145ab565b9150509295509295909350565b7f4f6e6c7920616c6c6f77656420636f6e7472616374732063616e2063616c6c2060008201527f746869732066756e6374696f6e00000000000000000000000000000000000000602082015250565b6000614975602d83614789565b915061498082614919565b604082019050919050565b600060208201905081810360008301526149a481614968565b9050919050565b6000819050919050565b60006149d06149cb6149c684613cbb565b6149ab565b613cbb565b9050919050565b60006149e2826149b5565b9050919050565b60006149f4826149d7565b9050919050565b614a04816149e9565b82525050565b6000604082019050614a1f60008301856149fb565b614a2c6020830184613e6b565b9392505050565b614a3c81613c4f565b8114614a4757600080fd5b50565b600081519050614a5981614a33565b92915050565b600060208284031215614a7557614a74613bc0565b5b6000614a8384828501614a4a565b91505092915050565b7f54686520636f6e7472616374206973206e6f7420617070726f76656420666f7260008201527f207472616e7366657272696e6720746f6b656e73000000000000000000000000602082015250565b6000614ae8603483614789565b9150614af382614a8c565b604082019050919050565b60006020820190508181036000830152614b1781614adb565b9050919050565b6000604082019050614b3360008301856149fb565b614b406020830184613e02565b9392505050565b600081519050614b5681613c8f565b92915050565b600060208284031215614b7257614b71613bc0565b5b6000614b8084828501614b47565b91505092915050565b7f596f7520646f206e6f74206f776e20656e6f75676820746f6b656e7300000000600082015250565b6000614bbf601c83614789565b9150614bca82614b89565b602082019050919050565b60006020820190508181036000830152614bee81614bb2565b9050919050565b7f4e487b7100000000000000000000000000000000000000000000000000000000600052603260045260246000fd5b7f4e487b7100000000000000000000000000000000000000000000000000000000600052601160045260246000fd5b6000614c5e82613c85565b9150614c6983613c85565b9250828201905080821115614c8157614c80614c24565b5b92915050565b6000606082019050614c9c6000830186613e6b565b614ca96020830185613e02565b614cb660408301846149fb565b949350505050565b6000602082019050614cd36000830184613fd0565b92915050565b600081519050614ce881613d96565b92915050565b614cf781613fdf565b8114614d0257600080fd5b50565b600081519050614d1481614cee565b92915050565b600080600080600060a08688031215614d3657614d35613bc0565b5b6000614d4488828901614cd9565b9550506020614d5588828901614d05565b9450506040614d6688828901614b47565b9350506060614d7788828901614b47565b9250506080614d8888828901614cd9565b9150509295509295909350565b7f4e487b7100000000000000000000000000000000000000000000000000000000600052601260045260246000fd5b6000614dcf82613c85565b9150614dda83613c85565b925082614dea57614de9614d95565b5b828204905092915050565b6000614e0082613c85565b9150614e0b83613c85565b9250828202614e1981613c85565b91508282048414831517614e3057614e2f614c24565b5b5092915050565b7f4f6e6c7920746865206f776e6572206f6620746865206d61726b6574706c616360008201527f652063616e2063616c6c20746869732066756e6374696f6e0000000000000000602082015250565b6000614e93603883614789565b9150614e9e82614e37565b604082019050919050565b60006020820190508181036000830152614ec281614e86565b9050919050565b7f54686520636f6e7472616374206973206e6f7420617070726f76656420666f7260008201527f20667574757265207472616e7366657273206f6620746f6b656e730000000000602082015250565b6000614f25603b83614789565b9150614f3082614ec9565b604082019050919050565b60006020820190508181036000830152614f5481614f18565b9050919050565b600067ffffffffffffffff821115614f7657614f756143e1565b5b614f7f826143d0565b9050602081019050919050565b6000614f9f614f9a84614f5b565b614441565b905082815260208101848484011115614fbb57614fba614524565b5b614fc684828561479a565b509392505050565b600082601f830112614fe357614fe26143cb565b5b8151614ff3848260208601614f8c565b91505092915050565b60006020828403121561501257615011613bc0565b5b600082015167ffffffffffffffff8111156150305761502f613bc5565b5b61503c84828501614fce565b91505092915050565b7f4e487b7100000000000000000000000000000000000000000000000000000000600052602260045260246000fd5b6000600282049050600182168061508c57607f821691505b60208210810361509f5761509e615045565b5b50919050565b60008190508160005260206000209050919050565b60006020601f8301049050919050565b600082821b905092915050565b6000600883026151077fffffffffffffffffffffffffffffffffffffffffffffffffffffffffffffffff826150ca565b61511186836150ca565b95508019841693508086168417925050509392505050565b600061514461513f61513a84613c85565b6149ab565b613c85565b9050919050565b6000819050919050565b61515e83615129565b61517261516a8261514b565b8484546150d7565b825550505050565b600090565b61518761517a565b615192818484615155565b505050565b5b818110156151b6576151ab60008261517f565b600181019050615198565b5050565b601f8211156151fb576151cc816150a5565b6151d5846150ba565b810160208510156151e4578190505b6151f86151f0856150ba565b830182615197565b50505b505050565b600082821c905092915050565b600061521e60001984600802615200565b1980831691505092915050565b6000615237838361520d565b9150826002028217905092915050565b6152508261477e565b67ffffffffffffffff811115615269576152686143e1565b5b6152738254615074565b61527e8282856151ba565b600060209050601f8311600181146152b1576000841561529f578287015190505b6152a9858261522b565b865550615311565b601f1984166152bf866150a5565b60005b828110156152e7578489015182556001820191506020850194506020810190506152c2565b868310156153045784890151615300601f89168261520d565b8355505b6001600288020188555050505b505050505050565b600060c08201905061532e6000830189613e6b565b61533b60208301886149fb565b6153486040830187613e6b565b6153556060830186613e02565b6153626080830185613e02565b61536f60a0830184613e02565b979650505050505050565b7f546f2064656c69737420746f6b656e732c20796f75206d75737420686176652060008201527f6c6973746564206f6e6500000000000000000000000000000000000000000000602082015250565b60006153d6602a83614789565b91506153e18261537a565b604082019050919050565b60006020820190508181036000830152615405816153c9565b9050919050565b7f546f2064656c697374206120746f6b656e2c20796f75206d757374206861766560008201527f206c6973746564206f6e65000000000000000000000000000000000000000000602082015250565b6000615468602b83614789565b91506154738261540c565b604082019050919050565b600060208201905081810360008301526154978161545b565b9050919050565b60006154a982613c85565b91506154b483613c85565b92508282039050818111156154cc576154cb614c24565b5b92915050565b7f546f206275792074686520746f6b656e2c20746865206f776e6572206d75737460008201527f2068617665206c6973746564206f6e6500000000000000000000000000000000602082015250565b600061552e603083614789565b9150615539826154d2565b604082019050919050565b6000602082019050818103600083015261555d81615521565b9050919050565b7f5072696365206d757374206265207a65726f20746f206765742061206761732d60008201527f66726565207472616e73616374696f6e00000000000000000000000000000000602082015250565b60006155c0603083614789565b91506155cb82615564565b604082019050919050565b600060208201905081810360008301526155ef816155b3565b9050919050565b7f5468652073656c6c6572206f662074686520746f6b656e2068617320616c726560008201527f616479207472616e736665727265642074686520746f6b656e00000000000000602082015250565b6000615652603983614789565b915061565d826155f6565b604082019050919050565b6000602082019050818103600083015261568181615645565b9050919050565b6000819050919050565b60006156ad6156a86156a384615688565b6149ab565b613c85565b9050919050565b6156bd81615692565b82525050565b600082825260208201905092915050565b50565b60006156e46000836156c3565b91506156ef826156d4565b600082019050919050565b600060a08201905061570f60008301876149fb565b61571c6020830186613e6b565b6157296040830185613e02565b61573660608301846156b4565b8181036080830152615747816156d7565b905095945050505050565b60006080820190506157676000830187613e6b565b61577460208301866149fb565b6157816040830185613e02565b61578e6060830184613e6b565b95945050505050565b60006157a282613c85565b91507fffffffffffffffffffffffffffffffffffffffffffffffffffffffffffffffff82036157d4576157d3614c24565b5b600182019050919050565b600067ffffffffffffffff82169050919050565b600061580e61580961580484615688565b6149ab565b6157df565b9050919050565b61581e816157f3565b82525050565b60006020820190506158396000830184615815565b92915050565b7f546f206368616e67652074686520746f6b656e27732070726963652c20796f7560008201527f206d7573742068617665206c6973746564206f6e650000000000000000000000602082015250565b600061589b603583614789565b91506158a68261583f565b604082019050919050565b600060208201905081810360008301526158ca8161588e565b9050919050565b7f596f7572207472616e73616374696f6e206861732074616b656e20746f6f206c60008201527f6f6e672e20506c656173652074727920616761696e0000000000000000000000602082015250565b600061592d603583614789565b9150615938826158d1565b604082019050919050565b6000602082019050818103600083015261595c81615920565b9050919050565b7f506c65617365207375626d6974207468652061736b696e67207072696365206960008201527f6e206f7264657220746f20636f6d706c65746520746865207075726368617365602082015250565b60006159bf604083614789565b91506159ca82615963565b604082019050919050565b600060208201905081810360008301526159ee816159b2565b9050919050565b7f4e487b7100000000000000000000000000000000000000000000000000000000600052603160045260246000fdfea26469706673582212206ee3b0a44c0ee5d6c86a2cd9b2948174c650320cc2d6b7dd766fb324eff5ea9864736f6c63430008140033",
  "linkReferences": {},
  "deployedLinkReferences": {}
}